:020000040800F2
:10000000005000204D040008E5040008E504000845
:10001000E5040008E5040008E5040008000000000D
:10002000000000000000000000000000E5040008DF
:10003000E504000800000000E5040008891100083C
:10004000E5040008E5040008E5040008E5040008EC
:10005000E5040008E5040008E5040008E5040008DC
:10006000E5040008E5040008E5040008E5040008CC
:10007000E5040008E5040008E5040008E5040008BC
:10008000E5040008E5040008E5040008E5040008AC
:10009000E5040008E5040008E5040008E50400089C
:1000A000E5040008E5040008E5040008E50400088C
:1000B000E5040008E5040008E5040008E50400087C
:1000C000E5040008E5040008E5040008E50400086C
:1000D000E5040008E5040008E50400087D0A0008BE
:1000E000E5040008E504000800000000E50400083D
:1000F000E5040008E5040008E5040008E50400083C
:10010000E5040008E5040008E5040008E50400082B
:10011000E5040008E5040008E5040008E50400081B
:10012000E5040008E5040008E5040008E50400080B
:1001300080B500AF074B084A1A60084B1B68084A95
:1001400013600849022000F01FFC054B1B6898470C
:1001500000BF80BD08ED00E0001400080414000892
:10016000700000209C11000880B500AF00F0C0F9BD
:1001700000F03AFF0321022000F0E2F912210120F1
:1001800000F0DEF90421002000F0DAF90B220A2148
:10019000012000F035FD04220B21012000F030FD8C
:1001A00000F0AAFA00BF80BD80B582B000AFFFF7B3
:1001B000DBFF2449244800F04FFF39E0234B1B7834
:1001C000DBB21A46224B13441946022000F056FBBC
:1001D0000346FB71FB79002B2AD100F0A3FF1B4BD8
:1001E0001B78DBB21A461A4B9B5CDBB20A2B14D18C
:1001F000184B1B78DBB2012B04D100F049FC154BE6
:1002000000221A70124800F002F91349022000F08F
:10021000BBFB0E4B00221A7006E00C4B1B78DBB2C6
:100220000133DAB2094B1A700649074800F014FF8F
:100230000A4B1B78DBB2002BC0D000BF00BF0837D1
:10024000BD4680BD31010008C0E1E4006C00002023
:100250000800002000000020A01100086D00002010
:1002600080B485B000AF0346FB71FB792F2B06D914
:10027000FB79392B03D8FB79303BFB7302E0FB7928
:10028000373BFB73FB7B18461437BD4680BC704779
:1002900080B586B000AF78600023BB757B68013302
:1002A0001B781846FFF7DCFF03467B757B6802333B
:1002B0001B781846FFF7D4FF03463B757B7D1B0177
:1002C0005AB297F9143013435BB2FB747B68033363
:1002D0001B781846FFF7C4FF0346BB747B680433E2
:1002E0001B781846FFF7BCFF03467B747B68053319
:1002F0001B781846FFF7B4FF03463B747B68063350
:100300001B781846FFF7ACFF0346FB73394B1B689D
:100310001B0C1B04374A1360FA7B364B1B681343D4
:100320003A7C120113437A7C12021343BA7C120303
:100330001343304A13600023FB7547E0FB7D9B00AD
:1003400009337A6813441B781846FFF789FF034680
:10035000BB74FB7D9B000A337A6813441B781846F4
:10036000FFF77EFF03467B74FB7D9B000B337A68AF
:1003700013441B781846FFF773FF03463B74FB7D5D
:100380009B000C337A6813441B781846FFF768FF0C
:100390000346FB73FB7B1B021AB23B7C1B031BB2A5
:1003A00013431AB27B7C1BB213431AB2BB7C1B01F2
:1003B0001BB213431AB2BB7D91B20F4A22F813103D
:1003C000BB7D0133BB75FB7D0133FB75FB7C5B089B
:1003D000DBB2FA7D9A42B1D3064B1868FB7C5B080E
:1003E000DBB21A46044900F0B1FB00BF1837BD4626
:1003F00080BD00BF040000207400002080B483B0E2
:1004000000AF786000BF0C37BD4680BC704780B538
:1004100082B000AF78607B6808331B78302B02D045
:10042000342B04D007E07868FFF732FF03E07868E8
:10043000FFF7E4FF00BF00BF0837BD4680BD00BF27
:1004400080B400AF00BFBD4680BC704780B586B0A9
:1004500000AF00237B6000237B6100233B611C4ACB
:100460001C4BD31A9B107B601B4B7B61194B3B6170
:100470000023FB600AE07A69131D7B613B69191D4B
:10048000396112681A60FB680133FB60FA687B68A7
:100490009A42F0D3114A124BD31A9B107B60104B37
:1004A0003B610023BB6007E03B691A1D3A610022F3
:1004B0001A60BB680133BB60BA687B689A42F3D3A9
:1004C000FFF7BEFFFFF770FE00BF1837BD4680BDC7
:1004D0000800002000000020A81100084C010020A6
:1004E0000800002080B400AF00BFBD4680BC70474C
:1004F00080B483B000AF0023FB800F4A136843F041
:100500000103136002E0FB880133FB800A4B1B6888
:10051000C3F34003DBB2012B04D0FB8841F28732E6
:100520009342F0D9054A13686FF30103136000BFCB
:100530000C37BD4680BC70470010024004100240DA
:1005400080B485B000AF03460A46FB711346BB7109
:100550000023FB73FB79022B02D90123FB7330E0EC
:10056000BB791E2B02D90223FB732AE0FB79022BF5
:100570001CD0022B25DC002B02D0012B0BD020E05D
:10058000134B1B68BA79012101FA02F21146104A95
:100590000B43136015E00F4B1B68BA79012101FA78
:1005A00002F211460B4A0B4313600AE00A4B1B6828
:1005B000BA79012101FA02F21146074A0B4313608E
:1005C00000BFFB7B18461437BD4680BC704700BF98
:1005D000141002401C1002401810024080B485B074
:1005E00000AF03460A46FB711346BB710023FB7341
:1005F000FB79022B02D90123FB7333E0BB791E2B5D
:1006000002D90223FB732DE0FB79022B1ED0022BB3
:1006100028DC002B02D0012B0CD023E0144B1B68EC
:10062000BA79012101FA02F2D2431146104A0B4075
:10063000136017E00F4B1B68BA79012101FA02F22F
:10064000D24311460B4A0B4013600BE00A4B1B6868
:10065000BA79012101FA02F2D2431146064A0B404F
:10066000136000BFFB7B18461437BD4680BC704743
:10067000141002401C1002401810024080B485B0D3
:1006800000AF03460A46FB711346BB710023FB73A0
:10069000FB79022B02D90123FB7323E0BB791E2BCC
:1006A00002D90223FB731DE0FB79012B02D0022B40
:1006B0000BD015E00E4B1B68BA79012101FA02F24A
:1006C00011460B4A0B4313600CE00A4B1B68BA79C6
:1006D000012101FA02F21146064A0B43136001E0C0
:1006E0000123FB73FB7B18461437BD4680BC704763
:1006F000101002400C10024080B483B000AF0423FD
:100700007B607A68294BA3FB02135B09642101FB20
:1007100003F3D31A1B0107331B093B603B680F2B04
:1007200004D97B6801337B6000233B60204A7B68EF
:10073000C3F30B0399B2136861F30F1313601C4AE0
:100740003B6803F00F03D9B2136861F3030313602E
:10075000184A13686FF30C331360164A13686FF36B
:100760008A231360134A13686FF3C7131360114A87
:1007700013686FF3861313600F4A13686FF3CC236B
:1007800013600C4A136843F008031360094A1368A6
:1007900043F004031360074A136843F400531360E3
:1007A00000BF0C37BD4680BC704700BF1F85EB51B2
:1007B000084800400C4800401048004080B483B016
:1007C00000AF03460A46FB711346BB71FB79022B4F
:1007D0002ED0022B40DC002B02D0012B14D03BE0AA
:1007E00000BF204B1B68C3F3C013DBB2012BF8D151
:1007F0001D4ABB79136000BF1A4B1B68C3F38013FB
:10080000DBB2012BF8D127E000BF184B1B68C3F304
:10081000C013DBB2012BF8D1154ABB79136000BFBE
:10082000124B1B68C3F38013DBB2012BF8D113E02A
:1008300000BF104B1B68C3F3C013DBB2012BF8D110
:100840000D4ABB79136000BF0A4B1B68C3F38013CA
:10085000DBB2012BF8D100BF00BF0C37BD4680BC16
:10086000704700BF00380140043801400044004098
:1008700004440040004800400448004080B485B073
:1008800000AF03463960FB710023FB600023FB725D
:10089000354A13686FF3451313603B68002B02D190
:1008A0000223FB725AE00023FB72FB79002B1BD161
:1008B00002E0FB680133FB602B4B1B68C3F3401362
:1008C000DBB2002B03D1FB68284A9342F1D9FB68C5
:1008D000274A934202D10523FB723FE0254B1B6858
:1008E000DAB23B681A7039E0FB79012B18D102E0CB
:1008F000FB680133FB60204B1B68C3F34013DBB282
:10090000002B03D1FB68194A9342F1D9FB68184ABE
:10091000934223D0194B1B68DAB23B681A701DE072
:10092000FB79022B1AD102E0FB680133FB60144B08
:100930001B68C3F34013DBB2002B03D1FB680B4AE7
:100940009342F1D9FB680A4A934202D10523FB7214
:1009500004E00C4B1B68DAB23B681A70FB7A18464D
:100960001437BD4680BC7047003801403F0D03007E
:10097000400D03000438014000440040044400409E
:10098000004800400448004080B584B000AF0346F2
:100990003960FB710023FB730023BB733B68002BA2
:1009A0000ED10223FB7311E0BB7B3A6813441A7823
:1009B000FB7911461846FFF701FFBB7B0133BB7380
:1009C000BB7B3A6813441B78002BEDD1FB7B1846A8
:1009D0001037BD4680BD80B584B000AF0346396096
:1009E000FB711346BB710023FB731AE007F10E0283
:1009F000FB7911461846FFF741FFBB7B0A2B02D05B
:100A0000BB7B0D2B05D1FB7B3A68134400221A7087
:100A10000DE0FB7B5A1CFA731A463B681344BA7B01
:100A20001A70FA7BBB79013B9A42DFDB00BF00BF43
:100A30001037BD4680BD80B487B000AFF860B960A4
:100A40001346FB710023FB750EE0FB7DFA6813442F
:100A50001A78FB7DB9680B441B789A4201D00023B9
:100A600007E0FB7D0133FB75FA7DFB799A42ECD3FD
:100A7000012318461C37BD4680BC704780B500AFC7
:100A8000024B1B68984700BF80BD00BF4401002097
:100A900080B582B000AF0523FB7106E0FB791846F4
:100AA00000F00BF8FB790133FB71FB793F2BF5D993
:100AB00000BF00BF0837BD4680BD80B483B000AF23
:100AC0000346FB7100BF1E4BDB6803F00103012BE3
:100AD000F9D01B4B1B69DB0903F00103012B05D186
:100AE000174B184A5A60164B174A5A60144B1B6929
:100AF000134A43F002031361FB799B02104A03F18E
:100B0000006353610E4B1B690D4A43F040031361B0
:100B100000BF0B4BDB6803F00103012BF9D0084B3E
:100B2000DB68074A43F02003D360054B1B69044A86
:100B300023F00203136100BF0C37BD4680BC704731
:100B40000020024023016745AB89EFCD80B487B018
:100B500000AFF860B9601346FB7100BF254BDB683E
:100B600003F00103012BF9D0224B1B69DB0903F0D1
:100B70000103012B05D11F4B1F4A5A601D4B1F4A11
:100B80005A600023FB752BE01A4B1B69194A43F08E
:100B900001031361FB7D5B00BA6813441B88BB82B1
:100BA000FB7D5B00BA681A44FB6812881A80FB68F8
:100BB0000233FB6000BF0F4BDB6803F00103012B26
:100BC000F9D00C4BDB680B4A43F02003D360094B90
:100BD0001B69084A23F001031361FB7D0133FB7598
:100BE000FA7DFB799A42CFD300BF00BF1C37BD46C8
:100BF00080BC70470020024023016745AB89EFCDE0
:100C000080B485B000AF0346FB710B46BB71134641
:100C10007B710023FB73FB79022B02D90123FB7349
:100C2000B4E0BB790F2B02D90223FB73AEE0BB7992
:100C3000072B52D8FB79022B37D0022B00F3A6806A
:100C4000002B02D0012B18D0A0E0534B1B68BA79BF
:100C500092000F2101FA02F2D24311464E4A0B4094
:100C600013604D4B1B687979BA79920001FA02F250
:100C70001146494A0B43136088E0484B1B68BA7918
:100C800092000F2101FA02F2D2431146434A0B406F
:100C90001360424B1B687979BA79920001FA02F22B
:100CA00011463E4A0B43136070E03D4B1B68BA7916
:100CB00092000F2101FA02F2D2431146384A0B404A
:100CC0001360374B1B687979BA79920001FA02F206
:100CD0001146334A0B43136058E0BB79072B54D9B4
:100CE000BB79083BBB71FB79022B36D0022B4DDC64
:100CF000002B02D0012B18D048E02A4B1B68BA7990
:100D000092000F2101FA02F2D2431146254A0B400C
:100D10001360244B1B687979BA79920001FA02F2C8
:100D20001146204A0B43136030E01F4B1B68BA7911
:100D300092000F2101FA02F2D24311461A4A0B40E7
:100D40001360194B1B687979BA79920001FA02F2A3
:100D50001146154A0B43136018E0144B1B68BA790F
:100D600092000F2101FA02F2D24311460F4A0B40C2
:100D700013600E4B1B687979BA79920001FA02F27E
:100D800011460A4A0B43136000E000BFFB7B184684
:100D90001437BD4680BC704700080140000C01407C
:100DA0000010014004080140040C014004100140FF
:100DB00080B485B000AF03463A60FB710B46BB714F
:100DC0000023FB73FB79022B02D90123FB7333E071
:100DD000BB790F2B02D90223FB732DE0FB79022B89
:100DE0001ED0022B28DC002B02D0012B0CD023E0DC
:100DF000144B1A68BB7922FA03F3DBB203F0010348
:100E0000DAB23B681A7017E00F4B1A68BB7922FA06
:100E100003F3DBB203F00103DAB23B681A700BE0B4
:100E20000A4B1A68BB7922FA03F3DBB203F0010321
:100E3000DAB23B681A7000BFFB7B18461437BD4618
:100E400080BC704708080140080C014008100140B0
:100E500080B485B000AF03463960FB710023FB739B
:100E6000FB79022B02D90123FB731BE0FB79022BD8
:100E700012D0022B16DC002B02D0012B06D011E081
:100E80000B4B1B689AB23B681A800BE0094B1B683E
:100E90009AB23B681A8005E0074B1B689AB23B6820
:100EA0001A8000BFFB7B18461437BD4680BC7047D4
:100EB00008080140080C01400810014080B485B0CA
:100EC00000AF0346FB710B46BB7113467B710023D9
:100ED000FB73FB79012B02D90123FB7344E0BB793F
:100EE0000F2B02D90223FB733EE07B79012B1BD130
:100EF000FB79022B12D0022B36DC002B02D0012B07
:100F000006D031E0BB7901229A401A4B1A602BE0DF
:100F1000BB7901229A40184B1A6025E0BB79012267
:100F20009A40164B1A601FE07B79002B1BD1FB798E
:100F3000022B12D0022B17DC002B02D0012B06D083
:100F400012E0BB7901229A400D4B1A600CE0BB798C
:100F500001229A400B4B1A6006E0BB7901229A40AD
:100F6000094B1A6000E000BFFB7B18461437BD46F2
:100F700080BC704710080140100C01401010014067
:100F800014080140140C01401410014080B485B0D5
:100F900000AF03460A46FB711346BB800023FB7378
:100FA000FB79012B02D90123FB7312E0FB79022BA1
:100FB0000ED0022B0DDC002B02D0012B04D008E058
:100FC000074ABB88136004E0064ABB88136000E050
:100FD00000BFFB7B18461437BD4680BC704700BF7E
:100FE0000C0801400C0C014080B400AF044A1368A7
:100FF0006FF38203136000BFBD4680BC704700BF23
:1010000010E000E080B584B000AF78607B6842F209
:10101000283202FB03F3FB600C4B00221A600C4ADF
:10102000FB6813600B4A136843F00103136000BFB1
:10103000084B1B68C3F30043DBB2002BF8D000F071
:1010400071F800BF1037BD4680BD00BF18E000E05A
:1010500014E000E010E000E080B485B000AF7860FC
:1010600039600123FB733B68002B03D10223FB7320
:10107000FB7B1DE0114A13686FF300031360104BF4
:1010800000221A600F4B00221A600023FB730C4AE7
:101090007B681360094A136843F0010313600A4A2E
:1010A0003B681360054A136843F002031360FB7B3F
:1010B00018461437BD4680BC704700BF10E000E002
:1010C00014E000E018E000E04801002080B485B0A2
:1010D00000AF786039600123FB733B68002B02D1BD
:1010E0000223FB7311E00023FB730B4A3B68136080
:1010F0000A4A7B6813600A4A136843F002031360CC
:10110000074A136843F001031360FB7B184614374A
:10111000BD4680BC704700BF4801002014E000E0DD
:1011200010E000E080B400AF074A13686FF30003DB
:101130001360064B00221A60054B00221A6000BFA4
:10114000BD4680BC704700BF10E000E014E000E046
:1011500018E000E080B400AF044B1A68044B1B6831
:10116000D31A1846BD4680BC704700BF14E000E0AB
:1011700018E000E080B400AF024B1B681846BD4683
:1011800080BC704718E000E080B500AF024B1B68E0
:0C119000984700BF80BD00BF4801002050
:0C119C00627965006F6B000000500020BD
:0811A800010000000000000836
:0400000508000130BE
:00000001FF
