:020000040800F2
:10000000005000204D010008E1010008E101000856
:10001000E1010008E1010008E10100080000000022
:10002000000000000000000000000000E1010008E6
:10003000E101000800000000E1010008650500087A
:10004000E1010008E1010008E1010008E101000808
:10005000E1010008E1010008E1010008E1010008F8
:10006000E1010008E1010008E1010008E1010008E8
:10007000E1010008E1010008E1010008E1010008D8
:10008000E1010008E1010008E1010008E1010008C8
:10009000E1010008E1010008E1010008E1010008B8
:1000A000E1010008E1010008E1010008E1010008A8
:1000B000E1010008E1010008E1010008E101000898
:1000C000E1010008E1010008E1010008E101000888
:1000D000E1010008E1010008E10100085D0A0008F3
:1000E000E1010008E101000800000000E101000852
:1000F000E1010008E1010008E1010008E101000858
:10010000E1010008E1010008E1010008E101000847
:10011000E1010008E1010008E1010008E101000837
:10012000E1010008E1010008E1010008E101000827
:1001300080B500AF00F05AF800F01EFAFEE70000AC
:1001400080B400AF00BFBD4680BC704780B586B0AC
:1001500000AF00237B6000237B6100233B611B4ACF
:100160001B4BD31A9B107B601A4B7B61184B3B6176
:100170000023FB600AE07A69131D7B613B69191D4E
:10018000396112681A60FB680133FB60FA687B68AA
:100190009A42F0D3104A114BD31A9B107B600F4B3D
:1001A0003B610023BB6007E03B691A1D3A610022F6
:1001B0001A60BB680133BB60BA687B689A42F3D3AC
:1001C000FFF7BEFFFFF7B4FFFEE700BF000000200F
:1001D00000000020E40B00081000002000000020B8
:1001E00080B400AF00BFBD4680BC704780B483B010
:1001F00000AF0023FB800F4A136843F00103136034
:1002000002E0FB880133FB800A4B1B68C3F3400309
:10021000DBB2012B04D0FB8841F287329342F0D944
:10022000054A13686FF30103136000BF0C37BD4626
:1002300080BC7047001002400410024080B485B0BA
:1002400000AF03460A46FB711346BB710023FB73E4
:10025000FB79022B02D90123FB7330E0BB791E2B03
:1002600002D90223FB732AE0FB79022B1CD0022B5C
:1002700025DC002B02D0012B0BD020E0134B1B6898
:10028000BA79012101FA02F21146104A0B431360B8
:1002900015E00F4B1B68BA79012101FA02F21146F1
:1002A0000B4A0B4313600AE00A4B1B68BA79012121
:1002B00001FA02F21146074A0B43136000BFFB7BB1
:1002C00018461437BD4680BC704700BF141002406A
:1002D0001C1002401810024080B485B000AF0346E5
:1002E0000A46FB711346BB710023FB73FB79022B9B
:1002F00002D90123FB7333E0BB791E2B02D9022301
:10030000FB732DE0FB79022B1ED0022B28DC002B87
:1003100002D0012B0CD023E0144B1B68BA790121C9
:1003200001FA02F2D2431146104A0B40136017E063
:100330000F4B1B68BA79012101FA02F2D243114630
:100340000B4A0B4013600BE00A4B1B68BA79012182
:1003500001FA02F2D2431146064A0B40136000BF75
:10036000FB7B18461437BD4680BC70471410024012
:100370001C1002401810024080B485B000AF034644
:100380000A46FB711346BB710023FB73FB79022BFA
:1003900002D90123FB7323E0BB791E2B02D9022370
:1003A000FB731DE0FB79012B02D0022B0BD015E073
:1003B0000E4B1B68BA79012101FA02F211460B4A71
:1003C0000B4313600CE00A4B1B68BA79012101FA58
:1003D00002F21146064A0B43136001E00123FB734E
:1003E000FB7B18461437BD4680BC70471010024096
:1003F0000C10024080B400AF044A13686FF382030C
:10040000136000BFBD4680BC704700BF10E000E035
:1004100080B584B000AF78607B6842F2283202FB7E
:1004200003F3FB600C4B00221A600C4AFB6813605C
:100430000B4A136843F00103136000BF084B1B68AD
:10044000C3F30043DBB2002BF8D000F063F800BF29
:100450001037BD4680BD00BF18E000E014E000E0AA
:1004600010E000E080B485B000AF7860396001230F
:10047000FB733B68002B02D10223FB7311E00023C6
:10048000FB730B4A3B6813600A4A7B6813600A4A95
:10049000136843F002031360074A136843F0010333
:1004A0001360FB7B18461437BD4680BC704700BF05
:1004B0000000002014E000E010E000E080B485B00F
:1004C00000AF786039600123FB733B68002B02D1D9
:1004D0000223FB7311E00023FB730B4A3B6813609C
:1004E0000A4A7B6813600A4A136843F002031360E8
:1004F000074A136843F001031360FB7B1846143767
:10050000BD4680BC704700BF0000002014E000E042
:1005100010E000E080B400AF044A13686FF30003FA
:10052000136000BFBD4680BC704700BF10E000E014
:1005300080B400AF044B1A68044B1B68D31A1846EA
:10054000BD4680BC704700BF14E000E018E000E04A
:1005500080B400AF024B1B681846BD4680BC704794
:1005600018E000E080B500AF024B1B68984700BF61
:1005700080BD00BF0000002080B487B000AF04231E
:100580007B617A697F4BA3FB02135B09642101FB4A
:1005900003F3D31A1B0107331B093B613B690F2B84
:1005A00004D97B6901337B6100233B61764A7B6917
:1005B000C3F30B0399B2136861F30F131360724A0C
:1005C0003B6903F00F03D9B2136861F303031360AF
:1005D0006E4A13686FF30C3313606C4A13686FF341
:1005E0008A231360694A13686FF3C7131360674A5D
:1005F00013686FF386131360644A13686FF345132F
:100600001360634A13686FF3CC2313605F4A136867
:1006100043F0080313605D4A136843F0040313605A
:100620005A4A136843F4005313600423FB60FA68CA
:10063000544BA3FB02135B09642101FB03F3D31AA0
:100640001B0107331B09BB60BB680F2B04D9FB6878
:100650000133FB600023BB604E4AFB68C3F30B030E
:1006600099B2136861F30F1313604A4ABB6803F031
:100670000F03D9B2136861F303031360464A13688A
:100680006FF30C331360444A13686FF38A231360CB
:10069000414A13686FF3C71313603F4A13686FF33F
:1006A000861313603C4A13686FF3451313603B4A8B
:1006B00013686FF3CC231360374A136843F00803C1
:1006C0001360354A136843F004031360324A136819
:1006D00043F40053136004237B607A68294BA3FB27
:1006E00002135B09642101FB03F3D31A1B010733D7
:1006F0001B093B603B680F2B04D97B6801337B608F
:1007000000233B60264A7B68C3F30B0399B213684E
:1007100061F30F131360224A3B6803F00F03D9B251
:10072000136861F3030313601E4A13686FF30C33FD
:1007300013601C4A13686FF38A231360194A136805
:100740006FF3C7131360174A13686FF386131360B0
:10075000154A13686FF3CC231360124A136843F0F1
:10076000080313600F4A136843F0040313600D4A33
:10077000136843F40053136000BF1C37BD4680BCB0
:10078000704700BF1F85EB51083801400C3801400D
:1007900010380140084400400C4400401044004020
:1007A000084800400C4800401048004080B483B026
:1007B00000AF03460A46FB711346BB71FB79022B5F
:1007C0002ED0022B40DC002B02D0012B14D03BE0BA
:1007D00000BF204B1B68C3F3C013DBB2012BF8D161
:1007E0001D4ABB79136000BF1A4B1B68C3F380130B
:1007F000DBB2012BF8D127E000BF184B1B68C3F315
:10080000C013DBB2012BF8D1154ABB79136000BFCE
:10081000124B1B68C3F38013DBB2012BF8D113E03A
:1008200000BF104B1B68C3F3C013DBB2012BF8D120
:100830000D4ABB79136000BF0A4B1B68C3F38013DA
:10084000DBB2012BF8D100BF00BF0C37BD4680BC26
:10085000704700BF003801400438014000440040A8
:1008600004440040004800400448004080B485B083
:1008700000AF03463960FB710023FB600023FB726D
:10088000314A13686FF3451313603B68002B02D1A4
:100890000223FB7252E0FB79002B18D102E0FB68C7
:1008A0000133FB60284B1B68C3F34013DBB2002B02
:1008B00003D1FB68254A9342F1D9FB68244A93424D
:1008C0003CD0244B1B68DAB23B681A7036E0FB79E7
:1008D000012B18D102E0FB680133FB601E4B1B6843
:1008E000C3F34013DBB2002B03D1FB68174A9342DA
:1008F000F1D9FB68164A934220D0184B1B68DAB234
:100900003B681A701AE0FB79022B17D102E0FB68F2
:100910000133FB60124B1B68C3F34013DBB2002BA7
:1009200003D1FB68094A9342F1D9FB68084A934214
:1009300004D00C4B1B68DAB23B681A70FB7A18467D
:100940001437BD4680BC7047003801403F0D03009E
:10095000400D0300043801400044004004440040BE
:10096000004800400448004080B584B000AF034612
:100970003960FB710023FB730023BB733B68002BC2
:100980000ED10223FB7311E0BB7B3A6813441A7843
:10099000FB7911461846FFF709FFBB7B0133BB7398
:1009A000BB7B3A6813441B78002BEDD1FB7B1846C8
:1009B0001037BD4680BD80B584B000AF03463960B6
:1009C000FB711346BB710023FB731AE007F10E02A3
:1009D000FB7911461846FFF749FFBB7B0A2B02D073
:1009E000BB7B0D2B05D1FB7B3A68134400221A70A8
:1009F0000DE0FB7B5A1CFA731A463B681344BA7B22
:100A00001A70FA7BBB79013B9A42DFDB00BF00BF63
:100A10001037BD4680BD80B487B000AFF860B960C4
:100A20001346FB710023FB750EE0FB7DFA6813444F
:100A30001A78FB7DB9680B441B789A4201D00023D9
:100A400007E0FB7D0133FB75FA7DFB799A42ECD31D
:100A5000012318461C37BD4680BC704780B500AFE7
:100A6000024B1B68984700BF80BD00BF0C000020F0
:100A700080B582B000AF0423FB7106E0FB79184615
:100A800000F00BF8FB790133FB71FB793F2BF5D9B3
:100A900000BF00BF0837BD4680BD80B483B000AF43
:100AA0000346FB7100BF1E4BDB6803F00103012B03
:100AB000F9D01B4B1B69DB0903F00103012B05D1A6
:100AC000174B184A5A60164B174A5A60144B1B6949
:100AD000134A43F002031361FB799B02104A03F1AE
:100AE000006353610E4B1B690D4A43F040031361D1
:100AF00000BF0B4BDB6803F00103012BF9D0084B5F
:100B0000DB68074A43F02003D360054B1B69044AA6
:100B100023F00203136100BF0C37BD4680BC704751
:100B20000020024023016745AB89EFCD80B487B038
:100B300000AFF860B9601346FB7100BF254BDB685E
:100B400003F00103012BF9D0224B1B69DB0903F0F1
:100B50000103012B05D11F4B1F4A5A601D4B1F4A31
:100B60005A600023FB752BE01A4B1B69194A43F0AE
:100B700001031361FB7D5B00BA6813441B88BB82D1
:100B8000FB7D5B00BA681A44FB6812881A80FB6818
:100B90000233FB6000BF0F4BDB6803F00103012B46
:100BA000F9D00C4BDB680B4A43F02003D360094BB0
:100BB0001B69084A23F001031361FB7D0133FB75B8
:100BC000FA7DFB799A42CFD300BF00BF1C37BD46E8
:100BD00080BC70470020024023016745AB89EFCD00
:040BE00000500020A1
:0400000508000130BE
:00000001FF
