:020000040800F2
:1014000000500020B11500084916000849160008D0
:101410004916000849160008491600080000000097
:101420000000000000000000000000004916000855
:10143000491600080000000049160008DD1B0008DE
:101440004916000849160008491600084916000800
:101450004916000849160008AD220008C5220008F8
:10146000DD220008F52200080D23000849160008B7
:1014700049160008491600084916000849160008D0
:1014800049160008491600084916000849160008C0
:1014900049160008491600084916000849160008B0
:1014A00049160008491600084916000849160008A0
:1014B0004916000849160008491600084916000890
:1014C0004916000849160008491600089525000825
:1014D000BD250008592900086D2900088129000848
:1014E00049160008491600080000000049160008C7
:1014F0004916000849160008491600084916000850
:10150000491600084916000849160008491600083F
:10151000491600084916000849160008491600082F
:10152000491600084916000849160008491600081F
:1015300080B582B000AF00F08DF801F053F80321C0
:10154000022000F0AFF81221012000F0ABF8134B9D
:1015500005221A600B220A21012000F049FB042217
:101560000B21012000F044FB00237B6002E07B683C
:1015700001337B607B68B3F57A7FF8DB0849022092
:1015800001F070F900233B6002E03B6801333B60EF
:101590003B68B3F57A7FF8DBE6E700BF0000002088
:1015A0009429000880B400AF00BFBD4680BC7047DE
:1015B00080B586B000AF00237B6000237B610023F1
:1015C0003B611C4A1C4BD31A9B107B601B4B7B61FD
:1015D000194B3B610023FB600AE07A69131D7B61B4
:1015E0003B69191D396112681A60FB680133FB60A1
:1015F000FA687B689A42F0D3114A124BD31A9B10B7
:101600007B60104B3B610023BB6007E03B691A1D08
:101610003A6100221A60BB680133BB60BA687B681C
:101620009A42F3D3FFF7BEFFFFF782FF00BF1837E0
:10163000BD4680BD0400002000000020A029000855
:10164000300000200400002080B400AF00BFBD4681
:1016500080BC704780B483B000AF0023FB800F4A8A
:10166000136843F00103136002E0FB880133FB8041
:101670000A4B1B68C3F34003DBB2012B04D0FB8889
:1016800041F287329342F0D9054A13686FF30103A0
:10169000136000BF0C37BD4680BC7047001002408D
:1016A0000410024080B485B000AF03460A46FB71C7
:1016B0001346BB710023FB73FB79022B02D9012374
:1016C000FB7330E0BB791E2B02D90223FB732AE0A7
:1016D000FB79022B1CD0022B25DC002B02D0012B26
:1016E0000BD020E0134B1B68BA79012101FA02F2FA
:1016F0001146104A0B43136015E00F4B1B68BA7973
:10170000012101FA02F211460B4A0B4313600AE071
:101710000A4B1B68BA79012101FA02F21146074A05
:101720000B43136000BFFB7B18461437BD4680BCDB
:10173000704700BF141002401C10024018100240F5
:1017400080B485B000AF03460A46FB711346BB71F7
:101750000023FB73FB79022B02D90123FB7333E0D7
:10176000BB791E2B02D90223FB732DE0FB79022BE0
:101770001ED0022B28DC002B02D0012B0CD023E042
:10178000144B1B68BA79012101FA02F2D2431146C7
:10179000104A0B40136017E00F4B1B68BA79012108
:1017A00001FA02F2D24311460B4A0B4013600BE0E0
:1017B0000A4B1B68BA79012101FA02F2D2431146A1
:1017C000064A0B40136000BFFB7B18461437BD462A
:1017D00080BC7047141002401C10024018100240D8
:1017E00080B485B000AF03460A46FB711346BB7157
:1017F0000023FB73FB79022B02D90123FB7323E047
:10180000BB791E2B02D90223FB731DE0FB79012B50
:1018100002D0022B0BD015E00E4B1B68BA790121C8
:1018200001FA02F211460B4A0B4313600CE00A4B1B
:101830001B68BA79012101FA02F21146064A0B43EC
:10184000136001E00123FB73FB7B18461437BD4690
:1018500080BC7047101002400C10024080B485B06C
:1018600000AF0346FB710023FB73FB791F2B05D8E8
:10187000FB7901229A400B4B1A600DE0FB793B2B60
:1018800008D8FB79203BFB71FB7901229A40064B7B
:101890001A6001E00123FB73FB7B18461437BD4639
:1018A00080BC704700E100E004E100E080B485B056
:1018B00000AF0346FB710023FB73FB791F2B05D898
:1018C000FB7901229A400B4B1A600DE0FB793B2B10
:1018D00008D8FB79203BFB71FB7901229A40064B2B
:1018E0001A6001E00123FB73FB7B18461437BD46E9
:1018F00080BC704780E100E084E100E080B485B006
:1019000000AF0346FB710023FB73FB791F2B05D847
:10191000FB7901229A400B4B1A600DE0FB793B2BBF
:1019200008D8FB79203BFB71FB7901229A40064BDA
:101930001A6001E00123FB73FB7B18461437BD4698
:1019400080BC704700E200E004E200E080B485B0B3
:1019500000AF0346FB710023FB73FB791F2B05D8F7
:10196000FB7901229A400B4B1A600DE0FB793B2B6F
:1019700008D8FB79203BFB71FB7901229A40064B8A
:101980001A6001E00123FB73FB7B18461437BD4648
:1019900080BC704780E200E084E200E080B485B063
:1019A00000AF03463960FB710023FB73FB791F2BEB
:1019B0000BD8134B1A68FB7922FA03F3DBB203F05E
:1019C0000103DAB23B681A7013E0FB793B2B0ED8A7
:1019D000FB79203BFB710B4B1A68FB7922FA03F36E
:1019E000DBB203F00103DAB23B681A7001E00123B5
:1019F000FB73FB7B18461437BD4680BC704700BFA5
:101A000000E300E004E300E080B485B000AF0346EB
:101A1000FB710B46BB7113467B71124B124A1A6065
:101A20000223FB7397F90730002B16DB97F9073079
:101A3000002B12DBBA79FB7B02FA03F35AB297F957
:101A4000053013435BB2DAB297F9073003F1604314
:101A500003F564431201D2B21A7000BF1437BD46B9
:101A600080BC70470CED00E00005FA0580B400AFC3
:101A7000044A13686FF38203136000BFBD4680BC45
:101A8000704700BF10E000E080B584B000AF786020
:101A90007B6842F2283202FB03F3FB600C4B00220E
:101AA0001A600C4AFB6813600B4A136843F0010389
:101AB000136000BF084B1B68C3F30043DBB2002B6D
:101AC000F8D000F063F800BF1037BD4680BD00BFFE
:101AD00018E000E014E000E010E000E080B485B021
:101AE00000AF786039600123FB733B68002B02D1A3
:101AF0000223FB7311E00023FB730B4A3B68136066
:101B00000A4A7B6813600A4A136843F002031360B1
:101B1000074A136843F001031360FB7B1846143730
:101B2000BD4680BC704700BF0400002014E000E008
:101B300010E000E080B485B000AF78603960012328
:101B4000FB733B68002B02D10223FB7311E00023DF
:101B5000FB730B4A3B6813600A4A7B6813600A4AAE
:101B6000136843F002031360074A136843F001034C
:101B70001360FB7B18461437BD4680BC704700BF1E
:101B80000400002014E000E010E000E080B400AFAA
:101B9000044A13686FF30003136000BFBD4680BCA6
:101BA000704700BF10E000E080B400AF044B1A683B
:101BB000044B1B68D31A1846BD4680BC704700BF53
:101BC00014E000E018E000E080B400AF024B1B68B6
:101BD0001846BD4680BC704718E000E080B500AFF5
:101BE000024B1B68984700BF80BD00BF0400002067
:101BF00080B485B000AF0346FB710B46BB71134642
:101C00007B710023FB73FB79022B02D90123FB7349
:101C1000B4E0BB790F2B02D90223FB73AEE0BB7992
:101C2000072B52D8FB79022B37D0022B00F3A6806A
:101C3000002B02D0012B18D0A0E0534B1B68BA79BF
:101C400092000F2101FA02F2D24311464E4A0B4094
:101C500013604D4B1B687979BA79920001FA02F250
:101C60001146494A0B43136088E0484B1B68BA7918
:101C700092000F2101FA02F2D2431146434A0B406F
:101C80001360424B1B687979BA79920001FA02F22B
:101C900011463E4A0B43136070E03D4B1B68BA7916
:101CA00092000F2101FA02F2D2431146384A0B404A
:101CB0001360374B1B687979BA79920001FA02F206
:101CC0001146334A0B43136058E0BB79072B54D9B4
:101CD000BB79083BBB71FB79022B36D0022B4DDC64
:101CE000002B02D0012B18D048E02A4B1B68BA7990
:101CF00092000F2101FA02F2D2431146254A0B400D
:101D00001360244B1B687979BA79920001FA02F2C8
:101D10001146204A0B43136030E01F4B1B68BA7911
:101D200092000F2101FA02F2D24311461A4A0B40E7
:101D30001360194B1B687979BA79920001FA02F2A3
:101D40001146154A0B43136018E0144B1B68BA790F
:101D500092000F2101FA02F2D24311460F4A0B40C2
:101D600013600E4B1B687979BA79920001FA02F27E
:101D700011460A4A0B43136000E000BFFB7B184684
:101D80001437BD4680BC704700080140000C01407C
:101D90000010014004080140040C014004100140FF
:101DA00080B485B000AF03463A60FB710B46BB714F
:101DB0000023FB73FB79022B02D90123FB7333E071
:101DC000BB790F2B02D90223FB732DE0FB79022B89
:101DD0001ED0022B28DC002B02D0012B0CD023E0DC
:101DE000144B1A68BB7922FA03F3DBB203F0010348
:101DF000DAB23B681A7017E00F4B1A68BB7922FA07
:101E000003F3DBB203F00103DAB23B681A700BE0B4
:101E10000A4B1A68BB7922FA03F3DBB203F0010321
:101E2000DAB23B681A7000BFFB7B18461437BD4618
:101E300080BC704708080140080C014008100140B0
:101E400080B485B000AF03463960FB710023FB739B
:101E5000FB79022B02D90123FB731BE0FB79022BD8
:101E600012D0022B16DC002B02D0012B06D011E081
:101E70000B4B1B689AB23B681A800BE0094B1B683E
:101E80009AB23B681A8005E0074B1B689AB23B6820
:101E90001A8000BFFB7B18461437BD4680BC7047D4
:101EA00008080140080C01400810014080B485B0CA
:101EB00000AF0346FB710B46BB7113467B710023D9
:101EC000FB73FB79012B02D90123FB7344E0BB793F
:101ED0000F2B02D90223FB733EE07B79012B1BD130
:101EE000FB79022B12D0022B36DC002B02D0012B07
:101EF00006D031E0BB7901229A401A4B1A602BE0E0
:101F0000BB7901229A40184B1A6025E0BB79012267
:101F10009A40164B1A601FE07B79002B1BD1FB798E
:101F2000022B12D0022B17DC002B02D0012B06D083
:101F300012E0BB7901229A400D4B1A600CE0BB798C
:101F400001229A400B4B1A6006E0BB7901229A40AD
:101F5000094B1A6000E000BFFB7B18461437BD46F2
:101F600080BC704710080140100C01401010014067
:101F700014080140140C01401410014080B485B0D5
:101F800000AF03460A46FB711346BB800023FB7378
:101F9000FB79012B02D90123FB7312E0FB79022BA1
:101FA0000ED0022B0DDC002B02D0012B04D008E058
:101FB000074ABB88136004E0064ABB88136000E050
:101FC00000BFFB7B18461437BD4680BC704700BF7E
:101FD0000C0801400C0C014080B483B000AF0346F4
:101FE000FB71074B1B68FA79012101FA02F21146D5
:101FF000034A0B43136000BF0C37BD4680BC7047DB
:102000000004014080B483B000AF0346FB71084B6D
:102010001B68FA79012101FA02F2D2431146044AFF
:102020000B40136000BF0C37BD4680BC704700BF3B
:102030000004014080B485B000AF0346FB710B463D
:10204000BB7113467B710023FB737B79012B37D166
:10205000BB79022B1CD0022B2FDC002B02D0012BD2
:102060000BD02AE0394B9B68FA79012101FA02F280
:102070001146364A0B43936062E0344BDB68FA79D1
:10208000012101FA02F21146304A0B43D36057E0B6
:102090002E4B9B68FA79012101FA02F211462B4A74
:1020A0000B439360294BDB68FA79012101FA02F2B4
:1020B0001146264A0B43D36042E00123FB733FE005
:1020C0007B79002B3BD1BB79022B1ED0022B33DC5A
:1020D000002B02D0012B0CD02EE01C4B9B68FA7910
:1020E000012101FA02F2D2431146184A0B409360D3
:1020F00026E0164BDB68FA79012101FA02F2D2439D
:102100001146124A0B40D3601AE0104B9B68FA79D3
:10211000012101FA02F2D24311460C4A0B409360AE
:102120000A4BDB68FA79012101FA02F2D243114627
:10213000064A0B40D36003E00123FB7300E000BFBD
:10214000FB7B18461437BD4680BC70470004014035
:1021500080B483B000AF0346FB71074B1B69FA796B
:10216000012101FA02F21146034A0B43136100BF39
:102170000C37BD4680BC70470004014080B483B07A
:1021800000AF0346FB71074B5B69FA79012101FA45
:1021900002F21146034A0B43536100BF0C37BD46A0
:1021A00080BC70470004014080B485B000AF786007
:1021B0000123FB737B68002B02D10223FB7304E035
:1021C0000023FB73044A7B681360FB7B18461437BB
:1021D000BD4680BC704700BF0800002080B485B0B9
:1021E00000AF78600123FB737B68002B02D10223D0
:1021F000FB7304E00023FB73044A7B681360FB7BE2
:1022000018461437BD4680BC704700BF0C00002044
:1022100080B485B000AF78600123FB737B68002B2E
:1022200002D10223FB7304E00023FB73044A7B68A2
:102230001360FB7B18461437BD4680BC704700BF57
:102240001000002080B485B000AF78600123FB73DC
:102250007B68002B02D10223FB7304E00023FB7395
:10226000044A7B681360FB7B18461437BD4680BC6C
:10227000704700BF1400002080B485B000AF7860C4
:102280000123FB737B68002B02D10223FB7304E064
:102290000023FB73044A7B681360FB7B18461437EA
:1022A000BD4680BC704700BF1800002080B500AF5D
:1022B000034B1B6898470020FFF760FF00BF80BDFD
:1022C0000800002080B500AF034B1B689847012031
:1022D000FFF754FF00BF80BD0C00002080B500AFA9
:1022E000034B1B6898470220FFF748FF00BF80BDE3
:1022F0001000002080B500AF034B1B6898470320F7
:10230000FFF73CFF00BF80BD1400002080B500AF88
:10231000034B1B6898470420FFF730FF00BF80BDC8
:102320001800002080B483B000AF03460A46FB715A
:102330001346BB71FB79032B17D83B4B9B68FA798B
:1023400092000F2101FA02F2D2431146364A0B40A5
:102350009360354B9B68B979FA79920001FA02F2E1
:102360001146314A0B43936058E0FB79072B1AD88A
:10237000FB79043BFB712C4BDB68FA7992000F214F
:1023800001FA02F2D2431146274A0B40D360264B92
:10239000DB68B979FA79920001FA02F21146224A11
:1023A0000B43D3603AE0FB790B2B1AD8FB79083B3F
:1023B000FB711D4B1B69FA7992000F2101FA02F2A1
:1023C000D2431146184A0B401361174B1B69B97968
:1023D000FA79920001FA02F21146134A0B43136193
:1023E0001CE0FB790F2B19D8FB790C3BFB710E4BD2
:1023F0005B69FA7992000F2101FA02F2D243114689
:10240000094A0B405361084B5B69B979FA7992002C
:1024100001FA02F21146044A0B43536100BF0C3724
:10242000BD4680BC704700BF0000014080B400AFD3
:102430001D4A13686FF3CB2313601B4A13686FF3B5
:102440008A231360184A136843F400731360164A12
:1024500013686FF3C7131360134A1368022161F303
:10246000C5031360104A136843F0040313600E4A57
:1024700013686FF3410313600B4A136843F00103C1
:102480001360094A136843F040031360074A136856
:1024900043F080031360054A136843F04003136060
:1024A00000BFBD4680BC7047003001400430014091
:1024B00080B485B000AF03463A60FB710B46BB8029
:1024C0000123FB733B68002B02D10223FB7329E03D
:1024D0000023FB73FB79002B02D0012B11D021E0EC
:1024E000134ABB88136000BF124B1B68C3F3C013B1
:1024F000DBB2012BF8D00E4B1B689AB23B681A80F6
:1025000010E00D4ABB88136000BF0C4B1B68C3F37F
:10251000C013DBB2012BF8D0074B1B689AB23B68A3
:102520001A8000BFFB7B18461437BD4680BC70473D
:102530000C300140083001400C38004008380040A1
:1025400080B483B000AF03463A60FB710B46BB809A
:10255000FB79002B02D0012B07D00DE0094A3B6824
:102560001360094ABB88136006E0084A3B681360A1
:10257000074ABB88136000BF00BF18460C37BD4632
:1025800080BC70471C0000200C300140200000205F
:102590000C38004080B500AF064B1B68002B06D0FE
:1025A000044B1B68044A126892B21046984700BF59
:1025B00080BD00BF1C0000200C30014080B500AF82
:1025C000064B1B68002B06D0044B1B68044A12689C
:1025D00092B21046984700BF80BD00BF2000002087
:1025E0000C38004080B483B000AF04237B607A686D
:1025F000294BA3FB02135B09642101FB03F3D31AEC
:102600001B0107331B093B603B680F2B04D97B6818
:1026100001337B6000233B60204A7B68C3F30B03DC
:1026200099B2136861F30F1313601C4A3B6803F0FF
:102630000F03D9B2136861F303031360184A1368D8
:102640006FF30C331360164A13686FF38A23136019
:10265000134A13686FF3C7131360114A13686FF3BB
:10266000861313600F4A13686FF3CC2313600C4A70
:10267000136843F008031360094A136843F0040326
:102680001360074A136843F40053136000BF0C370C
:10269000BD4680BC704700BF1F85EB510848004015
:1026A0000C4800401048004080B483B000AF03469F
:1026B0000A46FB711346BB71FB79022B2ED0022B0D
:1026C00040DC002B02D0012B14D03BE000BF204B9C
:1026D0001B68C3F3C013DBB2012BF8D11D4ABB79D1
:1026E000136000BF1A4B1B68C3F38013DBB2012BCE
:1026F000F8D127E000BF184B1B68C3F3C013DBB24F
:10270000012BF8D1154ABB79136000BF124B1B682F
:10271000C3F38013DBB2012BF8D113E000BF104BE1
:102720001B68C3F3C013DBB2012BF8D10D4ABB7990
:10273000136000BF0A4B1B68C3F38013DBB2012B8D
:10274000F8D100BF00BF0C37BD4680BC704700BF4A
:102750000038014004380140004400400444004077
:10276000004800400448004080B485B000AF0346F4
:102770003960FB710023FB600023FB72314A136850
:102780006FF3451313603B68002B02D10223FB72E9
:1027900052E0FB79002B18D102E0FB680133FB60AB
:1027A000284B1B68C3F34013DBB2002B03D1FB683B
:1027B000254A9342F1D9FB68244A93423CD0244BEA
:1027C0001B68DAB23B681A7036E0FB79012B18D12E
:1027D00002E0FB680133FB601E4B1B68C3F3401330
:1027E000DBB2002B03D1FB68174A9342F1D9FB6897
:1027F000164A934220D0184B1B68DAB23B681A7015
:102800001AE0FB79022B17D102E0FB680133FB6071
:10281000124B1B68C3F34013DBB2002B03D1FB68E0
:10282000094A9342F1D9FB68084A934204D00C4B01
:102830001B68DAB23B681A70FB7A18461437BD463B
:1028400080BC7047003801403F0D0300400D03007D
:102850000438014000440040044400400048004067
:102860000448004080B584B000AF03463960FB7176
:102870000023FB730023BB733B68002B0ED10223A4
:10288000FB7311E0BB7B3A6813441A78FB7911465D
:102890001846FFF709FFBB7B0133BB73BB7B3A686C
:1028A00013441B78002BEDD1FB7B18461037BD4637
:1028B00080BD80B584B000AF03463960FB7113461C
:1028C000BB710023FB731AE007F10E02FB7911467E
:1028D0001846FFF749FFBB7B0A2B02D0BB7B0D2BB1
:1028E00005D1FB7B3A68134400221A700DE0FB7B94
:1028F0005A1CFA731A463B681344BA7B1A70FA7B67
:10290000BB79013B9A42DFDB00BF00BF1037BD46F9
:1029100080BD80B487B000AFF860B9601346FB712A
:102920000023FB750EE0FB7DFA6813441A78FB7DEB
:10293000B9680B441B789A4201D0002307E0FB7D65
:102940000133FB75FA7DFB799A42ECD301231846DB
:102950001C37BD4680BC704780B500AF024B1B687A
:10296000984700BF80BD00BF2400002080B500AFA5
:10297000024B1B68984700BF80BD00BF28000020A5
:1029800080B500AF024B1B68984700BF80BD00BFF9
:042990002C000020F7
:0C2994006D616E676120000000500020A3
:0429A0000200000031
:0400000508001530AA
:00000001FF
