:020000040800F2
:102800000050002099290008312A0008312A0008C8
:10281000312A0008312A0008312A0008000000008F
:10282000000000000000000000000000312A000845
:10283000312A000800000000312A0008C52F0008D6
:10284000312A0008312A0008312A0008312A0008FC
:10285000312A0008312A000895360008AD360008F4
:10286000C5360008DD360008F5360008312A0008B4
:10287000312A0008312A0008312A0008312A0008CC
:10288000312A0008312A0008312A0008312A0008BC
:10289000312A0008312A0008312A0008312A0008AC
:1028A000312A0008312A0008312A0008312A00089C
:1028B000312A0008312A0008312A0008312A00088C
:1028C000312A0008312A0008312A0008ED390008B1
:1028D000153A0008D13F0008E53F0008F93F00081D
:1028E000312A0008312A000800000000312A0008BF
:1028F000312A0008312A0008312A0008312A00084C
:10290000312A0008312A0008312A0008312A00083B
:10291000312A0008312A0008312A0008312A00082B
:10292000312A0008312A0008312A0008312A00081B
:1029300080B500AF00F00CF800F018F8642000F04B
:1029400097FA0249002001F0C9FAF7E744EA0008C3
:1029500080B500AF00F072F80221022000F096F876
:102960000E21022000F092F800BF80BD80B500AFBC
:102970000B220921002000F02FFB04220A21002055
:1029800000F02AFB01F0AEF800BF80BD80B400AFBC
:1029900000BFBD4680BC704780B586B000AF002345
:1029A0007B6000237B6100233B611C4A1C4BD31AD4
:1029B0009B107B601B4B7B61194B3B610023FB60D1
:1029C0000AE07A69131D7B613B69191D3961126840
:1029D0001A60FB680133FB60FA687B689A42F0D3A7
:1029E000114A124BD31A9B107B60104B3B610023A2
:1029F000BB6007E03B691A1D3A6100221A60BB68A0
:102A00000133BB60BA687B689A42F3D3FFF7BEFF1D
:102A1000FFF78EFF00BF1837BD4680BD00000020C5
:102A20000000002050EA00083800002000000020CC
:102A300080B400AF00BFBD4680BC704780B483B097
:102A400000AF0023FB800F4A136843F001031360BB
:102A500002E0FB880133FB800A4B1B68C3F3400391
:102A6000DBB2012B04D0FB8841F287329342F0D9CC
:102A7000054A13686FF30103136000BF0C37BD46AE
:102A800080BC7047001002400410024080B485B042
:102A900000AF03460A46FB711346BB710023FB736C
:102AA000FB79022B02D90123FB7330E0BB791E2B8B
:102AB00002D90223FB732AE0FB79022B1CD0022BE4
:102AC00025DC002B02D0012B0BD020E0134B1B6820
:102AD000BA79012101FA02F21146104A0B43136040
:102AE00015E00F4B1B68BA79012101FA02F2114679
:102AF0000B4A0B4313600AE00A4B1B68BA790121A9
:102B000001FA02F21146074A0B43136000BFFB7B38
:102B100018461437BD4680BC704700BF14100240F1
:102B20001C1002401810024080B485B000AF03466C
:102B30000A46FB711346BB710023FB73FB79022B22
:102B400002D90123FB7333E0BB791E2B02D9022388
:102B5000FB732DE0FB79022B1ED0022B28DC002B0F
:102B600002D0012B0CD023E0144B1B68BA79012151
:102B700001FA02F2D2431146104A0B40136017E0EB
:102B80000F4B1B68BA79012101FA02F2D2431146B8
:102B90000B4A0B4013600BE00A4B1B68BA7901210A
:102BA00001FA02F2D2431146064A0B40136000BFFD
:102BB000FB7B18461437BD4680BC7047141002409A
:102BC0001C1002401810024080B485B000AF0346CC
:102BD0000A46FB711346BB710023FB73FB79022B82
:102BE00002D90123FB7323E0BB791E2B02D90223F8
:102BF000FB731DE0FB79012B02D0022B0BD015E0FB
:102C00000E4B1B68BA79012101FA02F211460B4AF8
:102C10000B4313600CE00A4B1B68BA79012101FADF
:102C200002F21146064A0B43136001E00123FB73D5
:102C3000FB7B18461437BD4680BC7047101002401D
:102C40000C10024080B485B000AF0346FB71002336
:102C5000FB73FB791F2B05D8FB7901229A400B4BA4
:102C60001A600DE0FB793B2B08D8FB79203BFB7108
:102C7000FB7901229A40064B1A6001E00123FB73A5
:102C8000FB7B18461437BD4680BC704700E100E06E
:102C900004E100E080B485B000AF0346FB7100237F
:102CA000FB73FB791F2B05D8FB7901229A400B4B54
:102CB0001A600DE0FB793B2B08D8FB79203BFB71B8
:102CC000FB7901229A40064B1A6001E00123FB7355
:102CD000FB7B18461437BD4680BC704780E100E09E
:102CE00084E100E080B485B000AF0346FB710023AF
:102CF000FB73FB791F2B05D8FB7901229A400B4B04
:102D00001A600DE0FB793B2B08D8FB79203BFB7167
:102D1000FB7901229A40064B1A6001E00123FB7304
:102D2000FB7B18461437BD4680BC704700E200E0CC
:102D300004E200E080B485B000AF0346FB710023DD
:102D4000FB73FB791F2B05D8FB7901229A400B4BB3
:102D50001A600DE0FB793B2B08D8FB79203BFB7117
:102D6000FB7901229A40064B1A6001E00123FB73B4
:102D7000FB7B18461437BD4680BC704780E200E0FC
:102D800084E200E080B485B000AF03463960FB7197
:102D90000023FB73FB791F2B0BD8134B1A68FB79AD
:102DA00022FA03F3DBB203F00103DAB23B681A70D4
:102DB00013E0FB793B2B0ED8FB79203BFB710B4BCF
:102DC0001A68FB7922FA03F3DBB203F00103DAB2EB
:102DD0003B681A7001E00123FB73FB7B1846143734
:102DE000BD4680BC704700BF00E300E004E300E0A4
:102DF00080B485B000AF0346FB710B46BB71134630
:102E00007B71124B124A1A600223FB7397F9073049
:102E1000002B16DB97F90730002B12DBBA79FB7B0E
:102E200002FA03F35AB297F9053013435BB2DAB2F0
:102E300097F9073003F1604303F564431201D2B2FE
:102E40001A7000BF1437BD4680BC70470CED00E01F
:102E50000005FA0580B400AF044A13686FF38203DB
:102E6000136000BFBD4680BC704700BF10E000E0AB
:102E700080B584B000AF78607B684FF47A7202FB53
:102E800003F3FB600C4B00221A600C4AFB681360D2
:102E90000B4A136843F00103136000BF084B1B6823
:102EA000C3F30043DBB2002BF8D000F063F800BF9F
:102EB0001037BD4680BD00BF18E000E014E000E020
:102EC00010E000E080B485B000AF78603960012385
:102ED000FB733B68002B02D10223FB7311E000233C
:102EE000FB730B4A3B6813600A4A7B6813600A4A0B
:102EF000136843F002031360074A136843F00103A9
:102F00001360FB7B18461437BD4680BC704700BF7A
:102F10000C00002014E000E010E000E080B485B078
:102F200000AF786039600123FB733B68002B02D14E
:102F30000223FB7311E00023FB730B4A3B68136011
:102F40000A4A7B6813600A4A136843F0020313605D
:102F5000074A136843F001031360FB7B18461437DC
:102F6000BD4680BC704700BF0C00002014E000E0AC
:102F700010E000E080B400AF044A13686FF3000370
:102F8000136000BFBD4680BC704700BF10E000E08A
:102F900080B400AF044B1A68044B1B68D31A184660
:102FA000BD4680BC704700BF14E000E018E000E0C0
:102FB00080B400AF024B1B681846BD4680BC70470A
:102FC00018E000E080B500AF024B1B68984700BFD7
:102FD00080BD00BF0C00002080B485B000AF034668
:102FE000FB710B46BB7113467B710023FB73FB79AE
:102FF000022B02D90123FB73B4E0BB790F2B02D95A
:103000000223FB73AEE0BB79072B52D8FB79022B6E
:1030100037D0022B00F3A680002B02D0012B18D052
:10302000A0E0534B1B68BA7992000F2101FA02F21B
:10303000D24311464E4A0B4013604D4B1B687979C1
:10304000BA79920001FA02F21146494A0B43136021
:1030500088E0484B1B68BA7992000F2101FA02F20E
:10306000D2431146434A0B401360424B1B687979A7
:10307000BA79920001FA02F211463E4A0B431360FC
:1030800070E03D4B1B68BA7992000F2101FA02F201
:10309000D2431146384A0B401360374B1B6879798D
:1030A000BA79920001FA02F21146334A0B431360D7
:1030B00058E0BB79072B54D9BB79083BBB71FB792E
:1030C000022B36D0022B4DDC002B02D0012B18D066
:1030D00048E02A4B1B68BA7992000F2101FA02F2EC
:1030E000D2431146254A0B401360244B1B68797963
:1030F000BA79920001FA02F21146204A0B4313609A
:1031000030E01F4B1B68BA7992000F2101FA02F2DE
:10311000D24311461A4A0B401360194B1B68797948
:10312000BA79920001FA02F21146154A0B43136074
:1031300018E0144B1B68BA7992000F2101FA02F2D1
:10314000D24311460F4A0B4013600E4B1B6879792E
:10315000BA79920001FA02F211460A4A0B4313604F
:1031600000E000BFFB7B18461437BD4680BC7047AB
:1031700000080140000C014000100140040801401B
:10318000040C01400410014080B485B000AF034638
:103190003A60FB710B46BB710023FB73FB79022B7A
:1031A00002D90123FB7333E0BB790F2B02D9022331
:1031B000FB732DE0FB79022B1ED0022B28DC002BA9
:1031C00002D0012B0CD023E0144B1A68BB7922FAF1
:1031D00003F3DBB203F00103DAB23B681A7017E0C5
:1031E0000F4B1A68BB7922FA03F3DBB203F0010339
:1031F000DAB23B681A700BE00A4B1A68BB7922FA04
:1032000003F3DBB203F00103DAB23B681A7000BFCC
:10321000FB7B18461437BD4680BC70470808014048
:10322000080C01400810014080B485B000AF03468F
:103230003960FB710023FB73FB79022B02D9012358
:10324000FB731BE0FB79022B12D0022B16DC002B48
:1032500002D0012B06D011E00B4B1B689AB23B68E1
:103260001A800BE0094B1B689AB23B681A8005E094
:10327000074B1B689AB23B681A8000BFFB7B18465D
:103280001437BD4680BC704708080140080C014057
:103290000810014080B485B000AF0346FB710B46B7
:1032A000BB7113467B710023FB73FB79012B02D9A1
:1032B0000123FB7344E0BB790F2B02D90223FB737C
:1032C0003EE07B79012B1BD1FB79022B12D0022B24
:1032D00036DC002B02D0012B06D031E0BB79012275
:1032E0009A401A4B1A602BE0BB7901229A40184B86
:1032F0001A6025E0BB7901229A40164B1A601FE044
:103300007B79002B1BD1FB79022B12D0022B17DC0F
:10331000002B02D0012B06D012E0BB7901229A408B
:103320000D4B1A600CE0BB7901229A400B4B1A60DE
:1033300006E0BB7901229A40094B1A6000E000BF09
:10334000FB7B18461437BD4680BC7047100801400F
:10335000100C01401010014014080140140C0140F1
:103360001410014080B485B000AF03460A46FB71DB
:103370001346BB800023FB73FB79012B02D9012389
:10338000FB7312E0FB79022B0ED0022B0DDC002B1D
:1033900002D0012B04D008E0074ABB88136004E088
:1033A000064ABB88136000E000BFFB7B1846143759
:1033B000BD4680BC704700BF0C0801400C0C0140AA
:1033C00080B483B000AF0346FB71074B1B68FA79EA
:1033D000012101FA02F21146034A0B43136000BFB8
:1033E0000C37BD4680BC70470004014080B483B0F8
:1033F00000AF0346FB71084B1B68FA79012101FA03
:1034000002F2D2431146044A0B40136000BF0C374E
:10341000BD4680BC704700BF0004014080B485B049
:1034200000AF0346FB710B46BB7113467B71002353
:10343000FB737B79012B37D1BB79022B1CD0022B7C
:103440002FDC002B02D0012B0BD02AE0394B9B68DC
:10345000FA79012101FA02F21146364A0B439360D0
:1034600062E0344BDB68FA79012101FA02F211467D
:10347000304A0B43D36057E02E4B9B68FA79012109
:1034800001FA02F211462B4A0B439360294BDB6889
:10349000FA79012101FA02F21146264A0B43D36060
:1034A00042E00123FB733FE07B79002B3BD1BB79EA
:1034B000022B1ED0022B33DC002B02D0012B0CD0B0
:1034C0002EE01C4B9B68FA79012101FA02F2D243EB
:1034D0001146184A0B40936026E0164BDB68FA79D8
:1034E000012101FA02F2D2431146124A0B40D36085
:1034F0001AE0104B9B68FA79012101FA02F2D243DB
:1035000011460C4A0B4093600A4BDB68FA790121A3
:1035100001FA02F2D2431146064A0B40D36003E09F
:103520000123FB7300E000BFFB7B18461437BD4648
:1035300080BC70470004014080B483B000AF0346F4
:10354000FB71074B1B69FA79012101FA02F211465E
:10355000034A0B43136100BF0C37BD4680BC704764
:103560000004014080B483B000AF0346FB71074BF9
:103570005B69FA79012101FA02F21146034A0B4311
:10358000536100BF0C37BD4680BC7047000401404A
:1035900080B485B000AF78600123FB737B68002B9B
:1035A00002D10223FB7304E00023FB73044A7B680F
:1035B0001360FB7B18461437BD4680BC704700BFC4
:1035C0001000002080B485B000AF78600123FB7349
:1035D0007B68002B02D10223FB7304E00023FB7302
:1035E000044A7B681360FB7B18461437BD4680BCD9
:1035F000704700BF1400002080B485B000AF786031
:103600000123FB737B68002B02D10223FB7304E0D0
:103610000023FB73044A7B681360FB7B1846143756
:10362000BD4680BC704700BF1800002080B485B044
:1036300000AF78600123FB737B68002B02D102236B
:10364000FB7304E00023FB73044A7B681360FB7B7D
:1036500018461437BD4680BC704700BF1C000020D0
:1036600080B485B000AF78600123FB737B68002BCA
:1036700002D10223FB7304E00023FB73044A7B683E
:103680001360FB7B18461437BD4680BC704700BFF3
:103690002000002080B500AF034B1B689847002036
:1036A000FFF760FF00BF80BD1000002080B500AFB5
:1036B000034B1B6898470120FFF754FF00BF80BDF4
:1036C0001400002080B500AF034B1B689847022010
:1036D000FFF748FF00BF80BD1800002080B500AF95
:1036E000034B1B6898470320FFF73CFF00BF80BDDA
:1036F0001C00002080B500AF034B1B6898470420D6
:10370000FFF730FF00BF80BD2000002080B483B0F1
:1037100000AF03460A46FB711346BB71FB79032BCE
:1037200017D83B4B9B68FA7992000F2101FA02F2FD
:10373000D2431146364A0B409360354B9B68B979AA
:10374000FA79920001FA02F21146314A0B43936072
:1037500058E0FB79072B1AD8FB79043BFB712C4B03
:10376000DB68FA7992000F2101FA02F2D243114686
:10377000274A0B40D360264BDB68B979FA7992006F
:1037800001FA02F21146224A0B43D3603AE0FB7978
:103790000B2B1AD8FB79083BFB711D4B1B69FA797F
:1037A00092000F2101FA02F2D2431146184A0B404F
:1037B0001361174B1B69B979FA79920001FA02F289
:1037C0001146134A0B4313611CE0FB790F2B19D8E8
:1037D000FB790C3BFB710E4B5B69FA7992000F2170
:1037E00001FA02F2D2431146094A0B405361084BD9
:1037F0005B69B979FA79920001FA02F21146044A3A
:103800000B43536100BF0C37BD4680BC704700BFFF
:103810000000014080B483B000AF78600B467B802D
:103820000E4B1B680D4A23F0010313600C4A7B8882
:1038300013600C4A7B6813600B4B0C4A1A60074BF1
:1038400042F292021A60054B1B68044A43F00103DE
:10385000136000BF0C37BD4680BC70475800024063
:103860005C00024064000240600002400C380040EE
:1038700080B400AF224A13686FF3CB231360204A51
:1038800013686FF38A2313601D4A136843F40073AF
:1038900013601B4A136843F480731360184A13685B
:1038A0006FF3C7131360164A1368022161F3C5034F
:1038B0001360134A136843F004031360104A13683B
:1038C0006FF3410313600E4A136843F00103136062
:1038D0000B4A136843F0400313600A4A136843F02D
:1038E00080031360074A136843F040031360054ADE
:1038F000136843F00203136000BFBD4680BC7047ED
:10390000003800400438004080B485B000AF034662
:103910003A60FB710B46BB800123FB733B68002BB5
:1039200002D10223FB7329E00023FB73FB79002BF8
:1039300002D0012B11D021E0134ABB88136000BFD5
:10394000124B1B68C3F3C013DBB2012BF8D00E4B34
:103950001B689AB23B681A8010E00D4ABB8813605E
:1039600000BF0C4B1B68C3F3C013DBB2012BF8D0B4
:10397000074B1B689AB23B681A8000BFFB7B184656
:103980001437BD4680BC70470C3001400830014000
:103990000C3800400838004080B483B000AF0346C4
:1039A0003A60FB710B46BB80FB79002B02D0012BE8
:1039B00007D00DE0094A3B681360094ABB881360D1
:1039C00006E0084A3B681360074ABB88136000BFE3
:1039D00000BF18460C37BD4680BC7047240000204D
:1039E0000C300140280000200C38004080B500AFAA
:1039F000064B1B68002B06D0044B1B68044A126858
:103A000092B21046984700BF80BD00BF240000203E
:103A10000C30014080B500AF064B1B68002B06D070
:103A2000044B1B68044A126892B21046984700BFC4
:103A300080BD00BF280000200C38004080B586B053
:103A400000AF03463960FB713B68002B06DA2D217D
:103A5000022000F061F93B685B423B603B68002B51
:103A600004D13021022000F057F936E00023FB7525
:103A70001DE03A681A4B83FB02139910D317C91A39
:103A80000B469B000B445B00D11ACAB2FB7D591C4C
:103A9000F9753032D2B218333B4403F80C2C3B6832
:103AA0000F4A82FB03129210DB17D31A3B603B686C
:103AB000002BDEDCFB7DBB750CE0BB7D013B1833CE
:103AC0003B4413F80C3C1946022000F025F9BB7D5D
:103AD000013BBB75BB7D002BEFD11837BD4680BDC8
:103AE0006766666680B487B000AF04237B617A693D
:103AF0007F4BA3FB02135B09642101FB03F3D31A81
:103B00001B0107331B093B613B690F2B04D97B6900
:103B100001337B6100233B61764A7B69C3F30B036E
:103B200099B2136861F30F131360724A3B6903F093
:103B30000F03D9B2136861F3030313606E4A13686D
:103B40006FF30C3313606C4A13686FF38A231360AE
:103B5000694A13686FF3C7131360674A13686FF3FA
:103B600086131360644A13686FF345131360634A46
:103B700013686FF3CC2313605F4A136843F00803A4
:103B800013605D4A136843F0040313605A4A1368D4
:103B900043F4005313600423FB60FA68544BA3FB07
:103BA00002135B09642101FB03F3D31A1B010733E2
:103BB0001B09BB60BB680F2B04D9FB680133FB609A
:103BC0000023BB604E4AFB68C3F30B0399B2136832
:103BD00061F30F1313604A4ABB6803F00F03D9B2B5
:103BE000136861F303031360464A13686FF30C33E1
:103BF0001360444A13686FF38A231360414A1368C1
:103C00006FF3C71313603F4A13686FF38613136093
:103C10003C4A13686FF3451313603B4A13686FF314
:103C2000CC231360374A136843F008031360354A06
:103C3000136843F004031360324A136843F40053DB
:103C4000136004237B607A68294BA3FB02135B0992
:103C5000642101FB03F3D31A1B0107331B093B60EB
:103C60003B680F2B04D97B6801337B6000233B60EA
:103C7000264A7B68C3F30B0399B2136861F30F13F1
:103C80001360224A3B6803F00F03D9B2136861F353
:103C9000030313601E4A13686FF30C3313601C4A4E
:103CA00013686FF38A231360194A13686FF3C713FD
:103CB0001360174A13686FF386131360154A13686D
:103CC0006FF3CC231360124A136843F008031360A8
:103CD0000F4A136843F0040313600D4A136843F45A
:103CE0000053136000BF1C37BD4680BC704700BF47
:103CF0001F85EB51083801400C3801401038014055
:103D0000084400400C440040104400400848004073
:103D10000C4800401048004080B483B000AF034618
:103D20000A46FB711346BB71FB79022B2ED0022B86
:103D300040DC002B02D0012B14D03BE000BF204B15
:103D40001B68C3F3C013DBB2012BF8D11D4ABB794A
:103D5000136000BF1A4B1B68C3F38013DBB2012B47
:103D6000F8D127E000BF184B1B68C3F3C013DBB2C8
:103D7000012BF8D1154ABB79136000BF124B1B68A9
:103D8000C3F38013DBB2012BF8D113E000BF104B5B
:103D90001B68C3F3C013DBB2012BF8D10D4ABB790A
:103DA000136000BF0A4B1B68C3F38013DBB2012B07
:103DB000F8D100BF00BF0C37BD4680BC704700BFC4
:103DC00000380140043801400044004004440040F1
:103DD000004800400448004080B485B000AF03466E
:103DE0003960FB710023FB600023FB723B68002BF2
:103DF00001D10223FB72FB79002B1BD102E0FB688F
:103E00000133FB602D4B1B68C3F34013DBB2002B67
:103E100003D1FB682A4A9342F1D9FB68294A9342AD
:103E200002D10323FB7242E0274B1B68DAB23B68E6
:103E30001A703CE0FB79012B1BD102E0FB680133D7
:103E4000FB60224B1B68C3F34013DBB2002B03D192
:103E5000FB681B4A9342F1D9FB681A4A934202D18C
:103E60000323FB7223E01A4B1B68DAB23B681A701B
:103E70001DE0FB79022B1AD102E0FB680133FB60E5
:103E8000144B1B68C3F34013DBB2002B03D1FB6858
:103E90000B4A9342F1D9FB680A4A934202D10323A9
:103EA000FB7204E00C4B1B68DAB23B681A70FB7AB9
:103EB00018461437BD4680BC704700BF003801402B
:103EC0003F0D0300400D0300043801400044004052
:103ED00004440040004800400448004080B584B0DD
:103EE00000AF03463960FB710023FB730023BB73F3
:103EF0003B68002B0ED10223FB7311E0BB7B3A68B9
:103F000013441A78FB7911461846FFF705FFBB7B6F
:103F10000133BB73BB7B3A6813441B78002BEDD194
:103F2000FB7B18461037BD4680BD80B584B000AF1E
:103F300003463960FB711346BB710023FB731AE023
:103F400007F10E02FB7911461846FFF745FFBB7BD0
:103F50000A2B02D0BB7B0D2B05D1FB7B3A681344A7
:103F600000221A700DE0FB7B5A1CFA731A463B685C
:103F70001344BA7B1A70FA7BBB79013B9A42DFDBB0
:103F800000BF00BF1037BD4680BD80B487B000AF12
:103F9000F860B9601346FB710023FB750EE0FB7DF2
:103FA000FA6813441A78FB7DB9680B441B789A426F
:103FB00001D0002307E0FB7D0133FB75FA7DFB791F
:103FC0009A42ECD3012318461C37BD4680BC70478B
:103FD00080B500AF024B1B68984700BF80BD00BF93
:103FE0002C00002080B500AF024B1B68984700BF33
:103FF00080BD00BF3000002080B500AF024B1B68C1
:10400000984700BF80BD00BF3400002080B582B05B
:1040100000AF0523FB7106E0FB79184600F00BF8B2
:10402000FB790133FB71FB793F2BF5D900BF00BF52
:104030000837BD4680BD80B483B000AF0346FB7136
:1040400000BF1E4BDB6803F00103012BF9D01B4BB3
:104050001B69DB0903F00103012B05D1174B184A3B
:104060005A60164B174A5A60144B1B69134A43F0A7
:1040700002031361FB799B02104A03F10063536151
:104080000E4B1B690D4A43F04003136100BF0B4BFD
:10409000DB6803F00103012BF9D0084BDB68074A0A
:1040A00043F02003D360054B1B69044A23F002034D
:1040B000136100BF0C37BD4680BC70470020024032
:1040C00023016745AB89EFCD80B487B000AFF860BE
:1040D000B9601346FB7100BF254BDB6803F0010399
:1040E000012BF9D0224B1B69DB0903F00103012BE3
:1040F00005D11F4B1F4A5A601D4B1F4A5A600023AF
:10410000FB752BE01A4B1B69194A43F0010313613D
:10411000FB7D5B00BA6813441B88BB82FB7D5B00A0
:10412000BA681A44FB6812881A80FB680233FB6085
:1041300000BF0F4BDB6803F00103012BF9D00C4BE0
:10414000DB680B4A43F02003D360094B1B69084A24
:1041500023F001031361FB7D0133FB75FA7DFB79CD
:104160009A42CFD300BF00BF1C37BD4680BC70470A
:104170000020024023016745AB89EFCD80B400AF3A
:10418000054B1B68044A23F00403136030BF00BFD3
:10419000BD4680BC704700BF10ED00E080B400AFAA
:1041A0000B4B1B680A4A43F080531360094B1B6892
:1041B000084A43F001031360074B1B68064A43F0AB
:1041C0000403136030BF00BFBD4680BC704700BF12
:1041D0001C1002400070004010ED00E080B400AF01
:1041E0000E4B1B680D4A43F0805313600C4B1B6849
:1041F0000B4A43F004031360094B1B68084A43F061
:1042000002031360074B1B68064A43F00403136064
:1042100030BF00BFBD4680BC704700BF1C100240CD
:104220000070004010ED00E080B400AF064B1B684A
:1042300003F00103002B14BF01230023DBB2184657
:10424000BD4680BC704700BF0470004080B485B09C
:1042500000AFF8607A603B600B46FB72FB7A5A1E37
:1042600013469B0013449B001A46FB681344083313
:104270001968FB7A5A1E13469B0013449B001A468A
:10428000FB68134408331A4621F001031360FB7ADC
:104290005A1E13469B0013449B001A46FB681344A6
:1042A00010331A467B681360FB7A5A1E13469B0034
:1042B00013449B001A46FB68134414331A463B68A8
:1042C0001360FB7A5A1E13469B0013449B001A4648
:1042D000FB6813440C331A46BB691360FB7A5A1E01
:1042E00013469B0013449B001A46FB681344083393
:1042F0001A4642F2C2031360FB7A5A1E13469B0011
:1043000013449B001A46FB68134408331968FB7A70
:104310005A1E13469B0013449B001A46FB68134425
:1043200008331A4641F00103136000BF1437BD463D
:0443300080BC704796
:10433400BEF7FFFFFEFFB8C63195AE84CE84CE84AF
:10434400CE84CE84AE84AE84AE846D7CEB6B0C6C78
:104354002F740F743074CF6B1074B384369DF8AD22
:10436400559DD48C18B69AC69AC6BACEBACE9ACEF1
:10437400BAC6BBCEBBCE7BC67BC619BE77AD56A52F
:10438400D8B53ABE39BEF8B5D7AD95A5549D1395A9
:1043940091844F7C2F740E74ED6BED6B2E744E7400
:1043A4006F7C8F7CB0848F7C4E744E742E744E74EC
:1043B4004E6C4E6C2E6C2E6C2E6C0E6C4E74B08447
:1043C400B084D08CF08C3195529D729D519D309566
:1043D400719D519510953095EF8CCF841095119562
:1043E400D08C6F84D18C549DD6AD38BE59BE7AC65C
:1043F400BBBE79BE79BEF6AD339DF29C6F8CED8366
:104404008B73AB7BE76AA56A688BC99BA9A3A8AB2E
:10441400A8B387AB67ABE59AA592C592C5920693FC
:10442400079BC58A4482848A279B47A368A3C9AB98
:10443400F3DD7AFFFEFFFFF7FFFFDEF736BEB08C39
:10444400AE84CE84CE84AD84CE84CE84AE84AE8459
:10445400AE846D7C0C6C2C6C707C507C91843074BC
:1044640092843595B7AD5ABE3595D38C18B67AC6B5
:104474009AC6BACEBACE9ACEBBCEBBCEDBCE9BCE3C
:104484009BCE5AC6B8B597AD19BE7BC69BCE7AC62D
:1044940059BE58BE17B6D6AD95A53395D18C6F7C51
:1044A400ED6BAC63AC63AC636B5B6B5B8B5B4A5374
:1044B400E94AE94AC942E942E942E942C842C842F2
:1044C400C842A842E94A4B5BAC63CC6B0D746E7C6A
:1044D400AF8CEF8CEF8CCF8CCF848E7C4D742C748E
:1044E4000C740C746E7CAF84D08CD18C94A537B6CC
:1044F40079C69AC679C69AC69ABE79BE99BE38BE9E
:10450400D6B5D5B594B552ADD09C10AD0C94487BBE
:10451400688B889B88A3A8AB87AB87AB88AB27A3A2
:10452400069BE69AA58A848A6482447A237AA58AB9
:1045340068A368A367A3A8AB688B51BDDDFFBEF772
:10454400FDF755B6AE84CF84EF84CE84EE84CD845B
:10455400ED84ED84CD84CD84AD84AD84AE844D7C76
:104564005074B27CD284717C559519AE7ABE7ABEF1
:104574005695F48C39B69AC69AC6BBC6BBCEBBC692
:10458400BBC6DBCEBBCE9AC69AC69AC65ABE19B66D
:104594007ABE9BC6BBC69BC67ABE79BE99BE9ABE7E
:1045A40099BE37B6F7ADF6A5949D128D707C0E6C4E
:1045B4006B536732E5210622E521C519C519C519D2
:1045C400C519C519C519C519C519C519E621072A7B
:1045D4004732683A883AA9422A53AC5BCD63CD632B
:1045E400AB5BAB5BAB5B8A5B8B5BED6B6F7CF18C2A
:1045F400949DD5AD38B679C69AC69BC69BCE9BC64C
:10460400BBC69AC679BEBACE79C658C679CE58C644
:10461400D5B516BEB3B54D8C687BA793E7A386A327
:1046240045BB66BB66BB46BB46BB05B3A5AAC5A2D4
:104634008492E279238206A347AB67B366B325B3BA
:1046440088ABC68AEFC4DCFF18CF7195AE7CCE84EC
:10465400EE84EE84CD84ED84ED84ED84ED84ED8CE4
:10466400CE84CE84CE846D7C7074F38CD384B28477
:10467400D8A57ABE9BBE7ABE769DF48C18B6BAC60F
:104684009AC69BC6BBCEBBC6BBC6BBCEBBC6BBC64F
:10469400BBC6BBCE7AC639BE7AC6BBC6BCC6BBC611
:1046A4009ABE9ABE9ABE9ABE99BE99BE99BE78BE6B
:1046B40078B637B6949DD1844B53272AA419C519CB
:1046C400C519E619E619A511C619C619C619C619D8
:1046D400C619A619C621E721A619E721072A072A20
:1046E400072A2732A9422B536B53ED6B6F74B084A6
:1046F400F18C5295949DD5AD37B657BE78BE79C628
:104704009AC69BCEBBCEBBCEBBC6BBC69AC6BACEE0
:1047140099C679C679C617BE16B637BE36C631AD48
:10472400CA8B878BC79BA69B66BB66BB66BB46BB17
:1047340066BB26B306B347B3E6A2438AA59247AB4A
:1047440067B346B346B325B367AB0693E682B7EEC9
:10475400719D8D7CAE7CAE7CCE84EE84CD7CED846C
:10476400ED84ED84ED84ED8CEE8CEE8CCE8C6D7C42
:10477400707C549DF38CF38C59B6BBC69BC67ABE31
:10478400B7A5F48CF8AD9AC69AC69AC6BBCEBBCE72
:10479400BBCE9BC69BC6BBCEDBCEDBCE9BC67AC64E
:1047A4009BC6BBC6BCC6BBC69BC69ABE9ABE9ABEB7
:1047B4009ABE9ABEBAC69ABE79BE17AEF28CAD63E3
:1047C400CA42E7218511A519C619E721E721A619CF
:1047D400C719C719E819E821C819A719A719A719EA
:1047E400A721C821E829E829A7218619E829AA428E
:1047F400CD63128DB59D16AE57B657B678BE78BE4A
:1048040099C699C699C69AC69ACEBBCEBBCEBBCE24
:10481400BBC6DBC6BBC69AC69AC699CE79C6B6AD28
:1048240017B658BE98CE15C6EFACEA93A793C79BAC
:1048340086B386B366B366B366B346B346B387B38B
:1048440006A32382069B47AB87B367B346B326B35D
:1048540046ABC59243724DAC8E7C4D74AE7CAE7C3F
:10486400AE7CEE84CD7CED84CC84ED84CC84ED846C
:10487400EE8CEE8CCE8C6D7C507CB5A53495F38C8F
:1048840039BE7AC69AC69AC6F8B51495B7AD7AC633
:104894009AC69ACEBBCEBBCEBBCE9BC69BC6DBCE46
:1048A400FBCEDBCEBBCE9BC69BC6BBC6BCC6BBC6C3
:1048B400BBC6DBC6BBBEBABE9ABEBAC6DBC679BE31
:1048C400969D50740B4B082AE729A721A619C721E6
:1048D400C719C719E821C719C919E921E921E9212B
:1048E400E921C919A8198819C921C921C929E9299E
:1048F400C8218721A8210932106CD7A579BE9ABE98
:10490400BAC679BE99BE58BE99C699C6BAC6BAC6C1
:104914009ACEBBCEBBCEBBCEBBC6DCCEBBCEBAC65C
:10492400BACE9AC638BE96A5F7AD99C698C677CEC4
:1049340055CEAEA4477B878BA7ABA7ABA7B387B3F2
:1049440066AB46AB46AB67B3E49A017A26A347ABA2
:1049540067B367B346B347BB65B3C392C58AA99B24
:104964008D7C8D7CAE7CAD7CAD7CCD84ED84CC7CAB
:10497400EC84EC84CC84ED84CD8CCE8CCE8C6D7C9C
:104984005084D6AD54A5F39418B659BE7AC69AC6C7
:1049940039BE559D76A539BE7AC69BCEBBCEBBCE5D
:1049A400BBCE9BCEBBCEDBCEDBCEBBCEBBC6BBCEA3
:1049B4009BC69CC69CC6BCC6DCC6DCC6DBC6BBBEEE
:1049C4007ABE9BC69ABE969DD0636A3AC829A7212F
:1049D4008719A721E821E821C821C819E921E9217B
:1049E400E919EA21EA21EA21EA21C921A921A92117
:1049F4008919A921A921A921C929C921882188198D
:104A04006F5BB7A59ABE9ABE7ABE59BE9ABE59BE0E
:104A1400BAC6BAC69AC69AC69AC69AC6BBCEDBCEE0
:104A2400DCC6DCCEDCCEDBCEBBCE9AC618B6D7A5B0
:104A340059B6BAC679BE98C6D8D651B5897B487BD3
:104A44008793879B87A3A7A387AB87AB87AB87ABEA
:104A5400E49A017A46A347AB67B367B346B367BB2F
:104A640065B3829242826CB4AD7CAE7C8D748D74DD
:104A7400AD7CAD7CED84CC7CED840D85ED84ED8C3A
:104A8400ED8CEE8CEE8C8D847084D6AD95AD149542
:104A9400F7B539BE7AC67AC65AC6B7AD76A5F8B5A3
:104AA4005AC69BCE9BCE9BCEBBCEBBCEBBCEDBCE63
:104AB400BBCE9ACE9BCEBBCE9BC69BC69CC6BCC669
:104AC400DCC6FCC6DCC6DBBE9BBE39B63695AF631E
:104AD4004A32A821A821A821A821C921E929C9214C
:104AE400C921C921C921E921EA19EA21EA21EA21D6
:104AF400EA21CA21A921A9218919C921CA29C921BF
:104B0400EA29EA29C921A921AC42D58C3AB67BBE4F
:104B14007BBE7ABE9BC69ABEBAC6BBC6DBCEDBCE14
:104B2400BBC69AC6BAC6BBCEDCCEDCCEFCCEDBCED0
:104B3400BBCE7ABE18AE18AE9ABE9ABE99BEB9C69E
:104B440098CEB4B58F940C8C898B27832683479396
:104B5400679B87A387A386A3E492017A26A366AB07
:104B640067B387BB47B367BB65B3428A63824CB400
:104B74008D7C8D748C746C748C74AD7CAC7CCC7CAE
:104B8400CC840D85ED8C0D8DED8CEE8CEE8CAD848E
:104B94004F7C94A5D6AD349D96AD18BE7AC67AC620
:104BA4007AC639BEB7ADF8B55AC6BBCE9BCE9BCE3E
:104BB400BBCEBBCEBBCEBBCEBACEBBCEBBCEBBCEAA
:104BC400BBC69CC69CC69CC6BCC6DCC6DCC6BBBEFB
:104BD4009BBE5695AF634A32C821C929C929A82169
:104BE400C921E921C921C921C921C921C921CA2150
:104BF400E919E919E921E921E921E921C921A921D1
:104C0400A819E921EA29C921C921E921E921E921D0
:104C14002B32D163779D5AB69BBE9BC69BC6BBC63F
:104C2400BBC6DBCEDBCEFBCEDBCEBBC6BBC69BC6D8
:104C3400BBC6BBCEDBCEBBC6BBC67AC639B67AB65C
:104C4400DBC6BBBEBABEBAC698C636BED4B593B52B
:104C54008E9C497BA66A077B478B468B469345937C
:104C6400C3822172059366A367AB87BB67BB67BB2F
:104C740066B3838AE592EBAB8C744B6C8C746C7466
:104C84006C74AC7C6B74CC7CAC7CEC84ED8C0D8D46
:104C9400ED8CCD8CCE8C8D840E7C53A5F6B5349DD5
:104CA400359DD7AD7AC6BBCEBBCEBBCEF8B518B654
:104CB4005AC6BCCE9BCE9CCEDBCEDBCEBBCEBACE10
:104CC400BACEBBCEBBCEBBCEBCC6BCC69CC69CBEFD
:104CD400BCBEBCC6DBBEBBBEF9AD5274AB42C92977
:104CE400A821C921C921A921A921CA21CA21C921CF
:104CF400CA21C919A919CA21E91909220922E921D4
:104D0400E921E921C921A821A821C921E921C92131
:104D1400C921C921C921E921C921ED42947CD9A520
:104D24007BBE9BBE9BC6DCCEDCCEDBCEBBCEBBC685
:104D3400BBC6BBC6BBCEBBCEBAC6BBCEDBCEBBC628
:104D4400BBCEBBC67ABEBBC6DBC6FCC6BBBE9ABE68
:104D5400BAC699C658C6B8CED5BDED7BC76208732E
:104D6400488326830683258BC4824172048B86A3E1
:104D740067ABA8BB67B367BB46B3E59A437AEBA3BB
:104D84004B744B6C4B6C6C746C746C748C74CC7C0A
:104D9400CC84EC84ED84ED8CCC84AC84AD84AD8483
:104DA4004F7CD18CD5ADD6AD75A5F7B57AC67AC68C
:104DB4009BC69AC67AC67ABE7AC69BC6BCCE9BCE22
:104DC400BBCEBBCEBACEBACEBACEBACEBBCEBBCE9B
:104DD4009BC6BCC6BCC69BBE9BBEBCBEBCBEBBBE4B
:104DE400158DCC42E929C921A821E929C921A92184
:104DF400C921A921A921CA21CA21EA21CA21C9217B
:104E0400C819E919E921E921E921E921C821A821E1
:104E1400A819C821E921E929E921C821C821E921E2
:104E2400A8194B32B05B779D7BBE7BBE9BBE9BC6F5
:104E3400BBC6BBC6BBCEBBCEBBC6BBC6DCC6BBC635
:104E4400DBCE9AC6DBCEDBCE9AC6BBC6DCCEBBC6F7
:104E5400BBC6DCC6DBC6DBC6BAC6BAC699C658BE74
:104E6400D6ADB18CEE7B0D84EC8BA983E993099CC0
:104E7400A793A372258BC7A387AB87B3A7BB87BBB5
:104E840087B305A3E68A8A9B2B6C2B6C2B6C4B6C2B
:104E94004B6C4B6C6B748C74CC84CC84EC84CC8461
:104EA400AC848C848C848C840D742E741295D5AD52
:104EB40017B659BE79BE9AC67ABE9ABE9ABE9AC62B
:104EC4009BC6BBC6BBC6BBC6DBCEDBCEDBCEDBCE56
:104ED400DBCEDBCEDBCEDBCEDCC6BCC69BBE9BBE54
:104EE4009BBE9BBE7BB618A68F5BE929A819A82197
:104EF4008821C921A921A921CA21CA21CA21CA21DB
:104F0400C921C919C919C921C819C919E921E9212E
:104F1400C921A821A821A921A921C921E921E9217F
:104F2400E921E921E921E921E921092ACC42737C1B
:104F340019AE9BBEBBC6BBC6BBC69ABE7ABE5ABE22
:104F44005AB67ABEBCC6DCC6BACE9AC6DBCEDBCEB7
:104F5400BAC69BC6BBC6BBC6BBC69BBE9BBEBBC6B6
:104F6400DBC69AC618AE96A55595759D75A553AD25
:104F7400B09C2C8C2C944B9C0994C472C47A879B4F
:104F8400A7ABC8B3A7BB87BB87BB46AB279BEBAB21
:104F94002A6C2B6C4B6C4C744B6C2B6C4B6C4B74A5
:104FA400AC7CAC7CCC84AC848B7C6B7C4B7C4B7CB1
:104FB4002D74CC6B4E7C539D37B699C679BE99C679
:104FC4009AC6BAC6BAC69ABE9ABE9ABE7ABE7ABE05
:104FD4009AC69AC69AC6BAC6BAC6BAC6BAC6BBC62C
:104FE400DCC6BCC67BBE9BBE7BBE9BBE5AAE358DAB
:104FF4004A3287198819A8218819A9218921CA2127
:10500400CA21CA21A921A921A919C919E9210A2A50
:105014000A220A220A220A22C92188198819882107
:105024008821A921C921CA21EA210A220A22EA21C6
:10503400E921E821092AAF5B979D9ABEBBC69AC6AF
:10504400BBC67ABE39B6F8ADF8AD19B65ABE7BBE4A
:105054009AC6BAC6BACEBBCEBAC6BBC6BBC6BBC658
:10506400BBC6DBC6DCC6BBC618AE3595927C3074B5
:10507400D484F8AD79BE38BED5B532A5CF9C8D9C0D
:105084002B94C56A846A468BA8A3A8AB87B3A7BB35
:1050940066BB87B3A8AB4CBC4B6C4B6C4B746C7449
:1050A4006C742B6C2B6C4B6C8C7CAC7CAC7CAB7CB8
:1050B4006B7C4B7C4B742B742C740C740C748F7C35
:1050C400739D36B678BED9C6DAC6BAC699BE99BE3D
:1050D40079BE9ABEBAC6BBC6BAC6BAC6BAC6DACE14
:1050E400DACEDBCEDBCEDBC6BBC6BCC69BBE7BB694
:1050F4003AAE7AB618A6316CE921A821C921C92192
:10510400A921A921A921EA29CA21A921A921A921E1
:10511400EA214B2A8B3ACC3ACD3ACD3ACD3AAD3A44
:105124006C3A0A2AA92189218921A921CA21CA21E3
:10513400EA21EA21EB21EA21E821092208220D4B88
:10514400F48439AE9BBE9ABEBBC69ABE7ABE39B64B
:1051540018AEF8AD19AE19AE59BE9AC69AC69AC61B
:10516400BBC6BBC6BBC6BBC67ABE9ABE5AB6979D63
:1051740052744D53CC420C4BB47C19AE9BC69AC6A8
:1051840099C657C6F5B572ADCF9C6973C66A277BBD
:10519400A89BC8AB87ABC8B366BBA7BBC9B36CBC81
:1051A4002B6C4B6C6B746C746C744C744B744B74D0
:1051B4008C748C7C8B7C8B7C8B7C6B7C4B7C4B7C59
:1051C4002B744C742C740C6C8F7C5295F5A5B8BE62
:1051D400D9C6D9C6B9BEB8BEB9BEB9C6DAC6BAC68A
:1051E400BAC6BAC6BAC6BAC6BAC6BAC6BAC6BBC6BA
:1051F400BBC6BBC65AB6F8A5F8A559AE558DEC4248
:10520400E921C921C921C921A921A921A921CA2189
:10521400CA21CA21C9212A2A8C3A0E4B6F538F5BAB
:10522400B05BB05BB05BB05B6F53CD4A4B3A0A32B4
:10523400C929CA29CA29CA21EA21EA21EA21EA217B
:1052440009222A2A09226A32F063969D9ABEBBC6B5
:10525400BBC6BBC6DBC6DBC67ABE59B639B639B6E1
:10526400F8AD18B6F8ADD7A5F8AD19AEF8AD97A559
:105274005695F48C31746E5BAB426A32AB3A2E4B6A
:10528400D48439AE9BBE7ABEBAC6B9CE98C677C6A8
:10529400F5BD10A5EB83487B688BCAA3C9AB88AB6B
:1052A400A6BBC7BBE9B36CBC2B6C4B746B746C743E
:1052B4006C746C746C748C746B748B7C8B7C8B7C56
:1052C4008B7C8B7C6B7C6B7C2B744B744C740B6C69
:1052D4002C746E7CF084D4A576B677BEB8BEB8BE06
:1052E400D9C6F9C6DAC6DAC6DAC6DAC6DAC6DAC69C
:1052F400DAC6BAC6BAC6BBC69BBE5AB6F8A5979D4F
:10530400F8A518AE7274292AE921C921C921C92135
:10531400A921A921A921A921CA21EA294B32CD42D7
:105324004F53D05BF063F0631164F163F163F16B8D
:10533400D16B8F5B0D4BAC42E929C929A921C92145
:10534400E921EA21EA210A2209222A2A09222A2A0F
:105354002E4BF48C7ABEDBC6BBC6BBC6DCCEFCCE01
:10536400DBC69BBE9BBE9BBE39B6969D937C116CDF
:10537400F163116CF16BB0632D53CC4A6B3A4A3232
:105384004A32AC3A8F5B526C56955AB69BBE7ABE83
:105394009AC69AC6BAC6BACE78C657C673ADCB8378
:1053A400087B899BCAABA9ABC7BBC8B3C9AB6CB4F8
:1053B4002B744B744B746C746C746C748C748C7C24
:1053C4006B746B748B7C8B7C8B7C6B7C6B7C6B7C51
:1053D4004A742A744B742B740B6C0C6C2C6C8E7C7E
:1053E400108D5295B39DF4A516AE57B678BE98BEEF
:1053F400B9BEB9BEBAC6BAC6BAC6BAC69ABE9ABE0B
:1054040039B6D8A5D8A5F8A57AB6D79D6E53082283
:10541400EA29E921C921CA21A921A921AA21891995
:10542400EB296C3AEE4A905BD063F163F063F0636E
:10543400F063F063F063D063D063D0638F634E5B3B
:105444006B3AE929A821C821E921E921E9210A22A5
:10545400E9210A222A2A2A2AAC3A116CF8AD9BBE09
:10546400BBC69BC6BBC6BBC6BBC6BBC6BBC6DBC630
:1054740019AE937C2D4B8B3A4A326B326B324A32E3
:10548400092A0932093229324A32AC3A6F5311647B
:10549400358D39AE9ABE9ABEDBC6DBC6DBC6DAC62C
:1054A40099C6B9CE77CEF1ACAB8B6993899BAAAB85
:1054B400C7B3A8ABC9A36CAC2B744B744B744B74BB
:1054C4004C6C4C746C746C744B744B746B746B7464
:1054D4006B744B744B744B744A742A742A740A6C3C
:1054E4002B744C74EB6BCB63CB5B0C6C4D744E74B4
:1054F4006F74B07CF18C3295959DB59DD6A5D6A5DB
:10550400D6A5D6A5B6A5B6A5B7A5769DF8A57AB6AF
:10551400BBBE558D8A32C719EA21C921C921EA21A6
:10552400A921AA21CA21AA214C32EE4A915BF26B2D
:10553400F163F063F0631064F0631064F063CF63AD
:10554400CF63F06B106CF06B2D536A3AC829E821D5
:10555400092AE821E8210922EA210A220A2A0A2A38
:10556400E9212E4B56955AB6FCCE9BC67ABE9ABEFE
:105574009ABE9ABEBBBEBBBE76958F5B4A2A292AC9
:105584000A2A0A2A2A2A0A2A4A324A322932092AA1
:10559400092A2A328B32CD3A106C559518AE7ABE50
:1055A400BBC6BBC6DBC6DBC6FBCEB9C6B9D636CED8
:1055B400F0B4CB9B499369A387ABA8A3C99B6DACFB
:1055C4004C740B740B6C0B6C4B6C4A6C2A642A6421
:1055D40009642A6C2A6C2A6C2A6C2A6C2A6C2A6448
:1055E400096C2A6C0A6C09642A6C4B6C2A64EA5BA9
:1055F400A953484B89536953E73AA632E8422943F1
:105604008B53CC5BED632F6C50740F6C51743495D9
:1056140096A5B7A5D7A55AB65AB6126CE929A81902
:10562400EA21EA21CA21CA21CA218919A919EA2928
:10563400ED426F5BF163116CF16BF16BF16BF06B2D
:10564400F163F063F063D063F063F06BF06BCF6BE6
:10565400CF634E536B3AE921E921E921E9210A227A
:105664000A22EA21EA21E921E929AC423274779D30
:105674009BC6BCCE9BC639B6F8AD5AB67ABE39B60F
:10568400B3846A3AE829092AC821E9290A2A0A2A94
:105694000A2A0A2A4B326B322A2A092A292A092A77
:1056A4008C3AD06336953AB6BBC6BBC6BAC6DBCE17
:1056B400DBCE9ACE9ACE79CE17C633AD5094CD8335
:1056C400CA83AA83AA836D9C4C7C4C744C742B6C47
:1056D4002A6C2A642A640A64E963E96309642A6C0B
:1056E4002A6C4A6C2A6C0A64E96B096C096C0A64BA
:1056F4002A6C4B6C0A64C95B2743C632C73AE73A43
:10570400652A0422252A462A262A8832A93ACA4228
:10571400EB42EB4A8E63D384769DB384F48CB7A5B5
:10572400158DED4A8819A821CA21EA21CA21CA2166
:10573400CA21A919C9214B32705BB163F16BF16BBA
:10574400F16BF16BF16BD063F163F163F063F063C0
:10575400F06BF06BF06BF06B3174AF63EC4A2A3290
:10576400E929E921E921EA210A22EA21EA210A2296
:10577400C921E929ED4AF16B159519AE39B635956C
:10578400158D19AE7ABEB7A5CF63E829A721C82124
:10579400C9210A2A0A2A0A2A2B320A2A0A2A4A323E
:1057A4008C3ACC420D4B0D4B0D4B8F5B937CD8A5A3
:1057B4009BC6BBC69AC6DBCEBAC69AC69ACE99CE4B
:1057C40079CE17C695BD53B58E9C6E940C8C8EA461
:1057D4004C748D7C8D7C4B6C2A642A642A640A6424
:1057E4000964096409642A6C2A6C0A64E963C95B64
:1057F400A85BA85BC95BC95BC95BE95BC95B484B38
:10580400A53224224422862A662A462A6632873210
:10581400472A4732272A0722E82949324D539384DD
:10582400B3846E5BAF63727C4E53A8216719C921A0
:10583400CA21EA21CA21CA21CA21A921EA29CD42C1
:10584400B063D163F16BF163F16B116C116CF16BAB
:10585400116C116C116C116C116C106C106C116C5E
:105864001174F06B6E5BAC3A0A2A09220A22EA210F
:105874002B220A222A220A2AE921A821E9294A3AC2
:105884008F5B158D769D1174AF63B3843595727CEF
:10589400CC42C8218821C9210A2A4B320B322B2A37
:1058A4000B2AEA290A2AAD42F163D484158D158D99
:1058B400D484D484158DD7A57ABEBAC6BAC6DBC63D
:1058C400BAC6BAC6BACE9ACE99CE99D679D658D691
:1058D40015C6D4BD53B5B4BD2B6C4C746C746B74C9
:1058E4004B6C4A642A6409640964E963E963C95B2B
:1058F4008853474B2643264348534753885BA95B49
:105904008853A953884B063B642A23220422452248
:10591400662A8732A832A732A93A6932E721A71941
:10592400A721E929AC426F5B0D4B4A328B3AAC425A
:10593400A82106098819EA21CA21EA21CA21CA2113
:10594400CA21A9212B322E53B163F163F16BF16BA0
:10595400116C116C116CF06B116C116C316C316C3D
:10596400116C116C116C1174F06BD063AF632E4B1E
:105974004A32E921EA210A222B222B2A2B2A0A2243
:105984000A220A2AC9216719092A0D4B8F5BCC42C6
:105994006A3A0D4B6E53EC4A0A2AA82188198819D1
:1059A400C921EA29CA21EA29EA29EA292B2A4F53DB
:1059B400F68C3AAE7BB67BB67AB67AB659B659B699
:1059C4009ABEDBC6DBC6DAC6DBC6DBC6BAC69AC677
:1059D40099C699CEB9D699D6B9D678CE17C658CE27
:1059E4000A6C0B6C2B6C4B6C2A642A640964096482
:1059F400E963C95BC95B885306438432642AA532D0
:105A0400A63AC63A274B474B074327432743C53299
:105A14004422442245224522462A88328832672A73
:105A2400282AE721A719A719A821C821C9290A2AC0
:105A3400E929A821E929A821E6080609A921EA21DA
:105A4400EA21EA29CA21CA21C921C9216C3A905BF9
:105A5400F163116C116C116C116C116C116CF06BA5
:105A6400116C116C316C316C116C116C116C116C0A
:105A74003174F06BF06B8F5B8B3AC819C9190A2A21
:105A84000B222B220B22EA21EA212A2AC9214711BF
:105A94008719C821092A092A092A4A324A32092AB5
:105AA400C921C921892168198919A921AA21EA29A9
:105AB4000B2AEB292B322F53D5841AAE7BB69BBE0F
:105AC400BAB6DBBEDABE9ABEBABEFBC6FBC6DAC63F
:105AD400DBC6DBC6DBC6BAC69AC6BACEBACE99CE88
:105AE400BAC6BACE79C6DACE0A6C0A640A642A64E3
:105AF4002A640964096409640964E963E963A85BC5
:105B0400E542232A0322642A452A6532A632C63A8C
:105B1400A532C632E632A52A6422A62AC732872ACB
:105B2400A832A8328932482AC821A721A819A82155
:105B3400A821A921A921A921C921C921C9298819D3
:105B440026094711C921EA29EA29EA21CA21CA21D9
:105B5400C921EA29AC42B05BF16B116C116C116C78
:105B6400116C116C116C106C116C116C316C316C0A
:105B7400116C116C106C106C3174F06BF063B05BD1
:105B8400AC42C921A8190A2A2B222B222B220A2231
:105B9400EA21C921A919A819A819A819E9212A2AA9
:105BA400092209220922E921EA210A2ACA2189199A
:105BB400A921A921AA210B2A0B2A0B2A0B2ACD429F
:105BC400126C779D5AB6DCC6FBBEDABEBABEBABE4C
:105BD400DABEBABEBABEDBC6BABEDBBEDBC6BBC665
:105BE400BAC6BACEBACEBACE99BEB9C699BEFACEA4
:105BF4000A6C2A6C2A6C2A6C09640964E963E963F7
:105C0400C85BA85BA85B885B0643442A2322442A1A
:105C14008632A632A632A632C632273B273B273B22
:105C24000733283B083BC832A832682A2722E721D9
:105C3400C821C821C921A921A919A921C921C9217A
:105C4400EA29E929EA29A82147116819CA210B2A56
:105C5400EB29CA21CA21EA21C9210A2AEE4AB063E2
:105C6400F163F16B116C116C116C116C116C106C93
:105C7400116C116C116C116C116C116C116C106C39
:105C8400116CF06BD063D0632E4B2A2AC9190A22F7
:105C94002B222B220B22EA21EA21C919C919C92175
:105CA40067118819E921092AE921E92109222A2A07
:105CB400CA21EA29CA21CA21CA2189198919CA21F2
:105CC400EB29EA290A2A4B320D4B5274B89D9BBE2C
:105CD400DABEDABEBABEB9BEBABEBABEBABEDAC699
:105CE400BABEBABEBABEBABEBAC6BAC699C699C612
:105CF400D9BED9BE98B6B9BEC9630A6C2A6C2A6CDF
:105D040009640964E85BA85B675347536853A95B5C
:105D14006853C63A8532C63AC73AE73AA632A6323B
:105D2400073B684389438943483B493B093BC932A4
:105D340089322822E719E821C921C921E921EA2960
:105D4400CA21CA21EA29A921E921C921E929A819D5
:105D540027116711EA29EA29EB29A921CA21EA2195
:105D6400C9212B322E53D063F16B116C116C316C41
:105D740031743174116CF06B116C116C116C116C09
:105D8400116C116C116C116CF06BF06BF063F163BE
:105D94008F5B8C3AE921E921EA190A220A22C919FE
:105DA400EA212B2A0A22C919E921A819A819E921EB
:105DB4000A222A220A22E921EA29EA29CA21EB290C
:105DC400EB2989198919A921CA21C921C921C82105
:105DD400C821EC4252745595F7A579B6DABEB9BE1E
:105DE400BABEDAC6DAC6DABEBABEBAB6BAB6BABE8F
:105DF400B9BE99BE78BE78BE97AE57AED59DD59D37
:105E04004A74096C0A6C2A6CE963E963E96B875B81
:105E14004753A963C9632B6C8D7C0B640743C63A53
:105E2400E83AC83AC732C732E732483B8943693B4C
:105E3400483B0833E932882A0722C719C719C81909
:105E4400C921C921C921CA21CA21CA21CA21C921FA
:105E5400EA29E929E9218819260968198919EA2111
:105E6400EA21CA21CA21C921A9216C3A8F5BD063D6
:105E7400116C116C316C316C3174316C106C106CB0
:105E8400116C116C116C116C106C116C116C116C27
:105E9400F06B116C116CF16BB05BAC3AC821E92169
:105EA4000B22EA19EA19EA19EA21EA21EA21EA218C
:105EB400EA21A9198811A819E9210A220A220A2229
:105EC4000B2A0B2A0B2A0B2AEB29CA216919271141
:105ED40048118819881946112509661169322C4B15
:105EE400306CF384959D58B699BEB9BEDAC6BABE75
:105EF40099B658AEF69DB69DD69DB59D749D5395A5
:105F040052858F74CC5B2D64CC8C8C848B848B8475
:105F14006B7C6B7C8B844B7C6B7CAD84EE94509D52
:105F2400919D0F8D0B64484BE83AC732C732C73294
:105F3400E732283B693B6943293BA72A6722071AB2
:105F4400C619A711A819A821C921C921C921CA2183
:105F5400CA21EA29EA21CA21E921E929E929A82152
:105F6400261168198919CA21CA21CA21EA21CA211C
:105F7400C921AD42D063116C116C116C316C316C60
:105F84003174116C106C106CF16B116C116C116C20
:105F9400116C116C116C116C116C116C316C116CF5
:105FA400D063ED42E921E9290B220A22EA19EA1910
:105FB400EA21EA21EA21EA21EA21A9198811A8198A
:105FC400C919EA210A220A220A2A0B2A0B2A0B2AB5
:105FD4000A2AEA21A919481126096719A82187194B
:105FE400250904096511C6218932EB424C530F6C13
:105FF400B2845495D6A537AE17AEB59DF2842F6CF6
:10600400CD5B8B534A532A4B4A43E83A6732094BD8
:106014008FAD8FAD6FA56FA54E9D6FA56FA56FA5B5
:106024006FA590ADD1ADF2B5F2ADB2A5CE84A95BAA
:10603400C83AA732A632A732C72AE732293B693BBE
:1060440009334722C611A6118611A719A819A92137
:10605400C921C921C921CA21CA21EA21CA21E921A8
:10606400E921092A092AA82126118819A919CA216E
:10607400AA21CA21EA21A921EA29ED4AF163116C76
:10608400116C116C316C316C116C116CF06BF06B28
:10609400F16B116C316C116C116C116C316C116CF5
:1060A400316C316C3174316CF1630D4B0A2AE92186
:1060B4000A220A22EA19EA210A22EA21EA21EA2129
:1060C400EA21C919A91988118819C919E9210A22CB
:1060D400EA21EA290A2A0B2A0B2AEA29C921A81942
:1060E40067118719C721E821C619641143094309B7
:1060F4008519E621C621272AC9422B53CD63707422
:10610400F28412859074ED5B4B4BC83A6632052AD3
:10611400462A462A052AC842D0B5D1BDD0B5B0B565
:10612400B0B5B0B5B0B5B0B5D1B5D1B5D2B5F2B59D
:10613400F2B5B1A5AD7C8953E73AC732A632862AB7
:10614400A62AC72A08330933A82A06128509A611E4
:10615400C819C821C921A921C921C921C921CA2114
:10616400CA21CA21C921C921E9210A2AE921881998
:1061740027118919A921AA21AA21CA21CA21A91949
:106184000A2A2E4BF16BF063116C116C316C316C7B
:10619400116C116CF16BF06BF16B116C116C116C77
:1061A400116C116C116C116C3174316C5274316C52
:1061B400F1634E532A2AC8210A22EA21EA210A223B
:1061C4000A22EA21EA21EA21EA21EA21C9198811ED
:1061D4006811A919C921E921CA21EA21EA290B2A4E
:1061E4000B2A0A2AEA21E921A8196611861907222D
:1061F400072AC5196411841106228832272A062A1F
:10620400262A262A6732E9424B4BCD5B0E64CD5BCE
:106214006B4B0943A732462A67324632E529C94AFD
:10622400B0BDB0BD90B58FB58FB590B590B590B5F4
:10623400B0B5D1BDD1BDF2BD33BE91A54C74074BF1
:10624400E73AC732A632662A8622C72AE832A82A43
:10625400461AC5118609C719E821C921C921A921EE
:10626400A921C921C921CA21CA21CA21CA21CA21F5
:10627400EA21E921A819471106098919A921AA21A6
:10628400AA21CA21A921A9194B326F5B116CF063B1
:10629400116C116C316C316C116C116CF16BF16B14
:1062A400F16B116C116C116C116C116C116C116C23
:1062B400316C316C3174116CF1636F536B32C821E2
:1062C4000A22EA21EA210A220A22EA21EA21EA210F
:1062D400EA21EA21CA21A9198819A921CA21EA2196
:1062E400EA21EA210A2A0B2A0B2A0A2A0A2A0A2A5A
:1062F400C821661186110722272AC519C519262A1D
:1063040009438B530943A83AA83A873A673267325C
:10631400672AE93A0A43C932A832A832A732A73217
:10632400A842463AC529C94AD1C5B0C590BD6FB582
:106334006FB58FBDB0BDD1C5B0BDD1C5D1BDD2BDC6
:1063440013BE91A52C740753E73AE73AC632852A5F
:10635400862AC72AC82A6722E611A611A611C819D7
:10636400C921C929CA29CA29A921C921CA21EA29B5
:10637400EA21EA290A220A2AEA21C9216819E60837
:10638400C6008919AA218A198919A9198919C92143
:10639400AC3AB05B116CF16B116C116C116C316C1B
:1063A400116C116C116CF16BF16B116C116C116C43
:1063B400116C116C116C116C116C116C116C116CF1
:1063C400116CB05BAC42C9210A22EA210A220A22DA
:1063D4000A22EA21EA21EA21EA21EA21EA21CA2160
:1063E400CA21EA21EA290A2A0B2AEA210B2A0B2AC2
:1063F4000B2A0A2A0A2A0A2AE921A719A619E72137
:10640400E621E62188326B530C642D646A4BE83A2A
:10641400E83AA73A66322522462AC832C932872A80
:10642400672A872AA732C83A873A0532C429295BE2
:10643400B0C590BD90BD6FBD0EAD2EB5B0C5B1C594
:10644400B1C5B1BDB1BDB1B5D2B5B1ADAD84485BD7
:10645400C632C632C732C632A72AC72AA82A461A63
:10646400E611C611E719E921C921CA29CA29AA29AD
:10647400C921CA21EA29EA29EA29EA290B2A0B2A8D
:10648400EA21C9216811C600A5008919AA21AA21F7
:106494008919A919A9210B2AEE4AB163F16BF16B91
:1064A400116C116C116C116C116C116C116CF16B21
:1064B400116C116C116C116C116C316C316C116CB0
:1064C400116C116C116C116C116CF163ED4A092A99
:1064D4000A220A220A220A220A22EA21EA21EA21BB
:1064E400EA21EA21EA21EA29EA29EA29EA290A2A07
:1064F4000B2A0B2A0B2A0B2A0B2A0A2AEA29E92936
:10650400E921A7198619A619C62167324B4B2E6CAF
:106514006D6C0C5C2843A6328632452A2522051A66
:10652400662AC832C932A82A882A872A872AA73223
:10653400E429621982218A6370C570BD90C56FBD5C
:10654400EDAC0EAD70BD90C590C590BDB1BDB2BDF2
:10655400B1B5F2B52F9D8963C632C632E732E73250
:10656400C732C72A8722271AC611C711E821E92191
:10657400C921C921AA298921C921CA21EA29EA29CB
:10658400EA29EA21EA210A22EA21EA216819C60055
:10659400A5008A19CB21AB21A921CA21EA216C3A91
:1065A4004F53D163F16B116C116C116C116C116C44
:1065B400116C116C116C116C116C31743274116C9E
:1065C400116C316C316C116C116C116C116C116C9F
:1065D400116C116C2D4B092A0A220A220A220A2262
:1065E4000A22EA21EA21EA210B2AEA21CA21EA291C
:1065F400EA29EA29EA29EA292B2A0B2A0B2A0B2A57
:106604000B2A0A22EA21E921092AE821C719A61935
:10661400272AE942AC5B0E6CEB5B894BC632652AD8
:1066240044220422452A662A8732C832A82A6722CD
:106634004622462246226722C2294119A2290C7CFD
:106644008FBD6EBD8FBD6FBD0DAD4EB5B0C5B0C5B0
:10665400AFBDAFBDD0BDB0B5D1B5F1B570A5EA6BD6
:10666400A632852AA632C732C83AC83A2722A511CB
:10667400A619C821E921C921A921A921A921A92152
:10668400C921CA21EA29EA29EA21CA21EA21EA29F7
:10669400EA29C921A8190609E6008919CA21CA21CB
:1066A400A921A921EA29AD42905BD063F06B116C5A
:1066B400116C116C116C116C1174116C12743274B4
:1066C4001174116C116C116C116C116C116CF16BF7
:1066D400F16B116C116C116C316C116C2E53292AF5
:1066E4002A220A220A22EA21EA21EA29EA29CA21DB
:1066F400EA21EA21EA21EA21EA210A220A220A2AD3
:106704000A2A0A2A0A2A0A2A0A220A22EA21EA2147
:10671400C921E929E821C721E621C83ACC5BEB5B12
:10672400284BC632852A441A2412A62A083B083B61
:10673400C83A872A662287226622251A051A252244
:1067440084312221264A0D8CB0C56FBD8FBD6FBD2B
:106754002EB54FBDB0C5B0C5B0BDB0BDD0BDB0B590
:10676400D1B5F2B5D1ADAD842843C632C632C732F5
:10677400C73AA83206226409A719C821C821A92149
:10678400A921A921A921A921CA21EA21EA21EA21D1
:10679400EA21EA21EA290B2AEA21E921C921471140
:1067A4002711CA21CA21CA21A921A921EA29CD4A2E
:1067B400B063F16BD063F06B116C106C116C116CE5
:1067C4001174116C127412741174116C116C1174B3
:1067D40011741174116C116C116C116C116C116CBD
:1067E4003274116C2E53292A0A1A0A22EA21EA2148
:1067F400EA21EA29EA29EA29EA29EA29EA21EA2115
:10680400EA21EA21EA21EA210A2AEA290A2A0A2AA9
:106814000A220A22EA21EA21EA21092AE829C721CF
:10682400E621A8326A4B8A4BE73AA6326522241A3B
:10683400441AC62A283BE83A672A46224622872277
:1068440087226622462A662AA5398331875A6E9C96
:10685400B0C56FBD6FBD6FBD2EB54FB58FBD8FBDBC
:10686400AFBDB0BDD0BDB0B5D0B5D1ADF2B52F9DE3
:106874004C648A532843E73AE83AC83A26228511F9
:10688400C719C821A819A921C921C921A921A92148
:10689400C921C921CA21CA21CA21EA21EA29EA292E
:1068A400CA21EA21E92168196819EA21CA21AA2121
:1068B400AA21A921EA29ED42D063F16BF06BF06BB8
:1068C400116C116C116C317411741174116C12749B
:1068D4001174116C116C117411743174317431743C
:1068E400116C116C116C116C326C116C2E53092AE1
:1068F4002A220A220A22EA21EA29EA29CA29CA21E1
:10690400EA29EA29EA21EA21EA21EA21EA21EA211B
:10691400EA29EA29EA290B2A0B2A0A22EA21EA218E
:10692400EA290A2AE929E721E621672A2943294392
:10693400083BE73AA62A6522A5220733083BC83A52
:10694400662A66226622662266226622662A462A0B
:10695400A439E441096B8FA490BD70BD70BD50BDD6
:106964002FB54FB56FBD8FBDD0BDD0BDD0BDD0B597
:10697400F1B5D1ADF2AD709D30852C6C8A53494B85
:1069840049430943672AC619E721C819A819A92147
:10699400CA21C921A921A921C921C921CA21CA21E0
:1069A400CA21CA21CA21CA21CA21EA29C9216811D6
:1069B4006819EA21CB21AA21CA21CA210A2AED4257
:1069C400D063F16BF06BF16B116C116C116C317461
:1069D40031741174117412741174116C116C116C82
:1069E400116C31743174116C31743174116C116C1B
:1069F400116CF1632E4B292A2A220A220A22EA2147
:106A0400EA29EA29CA29CA21CA21CA21CA21EA21B2
:106A1400EA210A2AEA29EA29EA29EA29EA290B2A9F
:106A24000B2A0A22EA21EA21EA21EA29E929E821B2
:106A3400E621472A29434943494349430733C62AA0
:106A44000733493B283BC732A732A7328722661A4D
:106A5400451A4522452A252A623125526A7B8EA48D
:106A640091BD70BD71BD70BD4FBD4FB58FBDB0C57B
:106A7400AFBDAFBDCFB5D0B511B6D1ADD1AD509D81
:106A840010854D6CCB5BAA53AB536A4B672AA51197
:106A9400C719C719A819A921C921C921A921C9211F
:106AA400EA21EA21CA21CA21CA21CA21CA21A9216B
:106AB400C921E921A92127116819CA21CA21CA219A
:106AC400CA21CA210B2AED4AD063F16BF16B116C18
:106AD400317431743174116C116C317432743274D8
:106AE4003174116C116C116C116C116C116C116C92
:106AF400116C31743174116CF16BD0632E534A32C2
:106B04000922E919E921EA21EA29CA21CA21CA216B
:106B1400AA21CA21CA21EA21EA29EA29EA29CA21A1
:106B2400EA29EA21EA290B2A0B22EA21EA21CA21CD
:106B3400CA21EA29E929082AE621472A29436A4B76
:106B440029434943483B28336943AA4B4943E83A1C
:106B5400C832E832C72A862245224522452A252AF8
:106B64004139A662CB8B6DA471BD71BD71BD70BD81
:106B740070BD4FBD8FBDD0C5AFBDAFB5AFB5B0AD66
:106B8400D1B591A591A5309DCF7C2D6CEB5BCB5BF2
:106B9400CB5B8B538832A519A619C819C821C92102
:106BA400C921CA21A921CA21EA29EA29CA21CA215B
:106BB400A921A921A921C921A921C9218819060925
:106BC4004811CA21CA21CA21A921A9210A2AEE4AA7
:106BD400D163116CF16B116C116C116C116C116C33
:106BE400116C32743274327431743174116C116CEE
:106BF400116C116C116C116C116C3174326C116C60
:106C0400F16BF0634E538B3A2A220922E921E921E0
:106C1400CA21A92189196819A921CA21EA21EA29C5
:106C2400EA29EA29CA21CA29EA29EA21EB210B2AFD
:106C34000B22EA21EA21EA21EA21EA29092A082A7F
:106C4400E721272A09434A4B29432943493B693B06
:106C5400AA43AB4B6A43083BC832C832C72A8622D0
:106C64006522452A242AE329A241287B0B946DA49A
:106C740070BD70BD70BD70BD70BD6FBD8FBDD0C522
:106C8400CFBDD0BD8FAD2E9D4F9D0F953095F09407
:106C9400AF7C2D6CEC63CB5BCC5B8B53883285195A
:106CA400A619E821E921C921C921CA21CA21C9217A
:106CB400CA21EA21CA21A921A921A921A921CA21DC
:106CC400A921C9214711C5002709A921AA21AA215F
:106CD400A921A919EA29ED4AD163116CF16B116C50
:106CE400116C116C116C116C116C3274327432743D
:106CF4003174116C116C116C116C3174116C116C58
:106D0400116C116C326C116CF16BF1634E538B3A54
:106D14002A220922E921EA21C921881947112711C8
:106D24008919A921EA210A2AEA29EA29EA29EA2968
:106D3400CA21CA21EA210B2A0B220B22EB21EA29C0
:106D44000A2AEA29E929092AE7212722C93A094313
:106D54002943093B493B8A3B8A3B8A436A43083BB4
:106D6400C832C82AA72A86226522452A042AC329AA
:106D74002462898B0B9C8DAC70BD70BD6FBD70BDE2
:106D840090BD8FBD8FBDCFBD8FB58FB52D9D6C844C
:106D94004C7C0C742D7C2E7C6E740D6C0C6CEC6332
:106DA400CC638B53473243098519C721C8218819FD
:106DB400A919CA21C921A919C921CA21EA29CA21A3
:106DC400CA21A921CA21EA21C921C9212711840084
:106DD400E60068198919AA21A921A819C921CD4257
:106DE400D063116C116C116C116C31743174116CB1
:106DF400116C3174116C116C116C116C116C116C7F
:106E0400116C316C316C316C116C316C316C116CF6
:106E1400F16BF1634E536B320922E921E921E92137
:106E2400C92188194819471127116819A921EA218C
:106E3400EA29EA21CA29EA29CA21CA21EA21EB213D
:106E44000B2A0B220B2A0B2A0B2AEA29E929092AE5
:106E5400E8210722A832C932093BE832293B693BC1
:106E6400493B493B493BE832E832C72AA62266221D
:106E74006522452A2432033AA572CA9BEB9BAEB421
:106E84006FBD90BD6FBD4FB56FBD8FBDAFBD8EB52E
:106E9400AFB5AFB5ED94896B0C7C8B630E749084A5
:106EA4008F7C6E740D6C4E742D6C6B53A419E200C0
:106EB4004409E721A7198719A919A921CA21891900
:106EC400A921C921EA29EA29EA29CA21C921C92112
:106ED400C921C9218719A40084006819A921A921FD
:106EE400C921C921E921AC3AB0633274116C116C27
:106EF40031743174317431743174316C116C116CBE
:106F0400316C116C116C116C116C116C316C52740C
:106F14005274316C116C316C116CF1634E536A32E2
:106F24000922E921E921E921EA29C929A9218819A4
:106F34000609C6006819C921E9210A2AC929EA29CA
:106F4400CA21CA21EA210B2A0B2A0B2A0B2A0B2A53
:106F54000B2AEA29EA29092A0822E72106222622FD
:106F6400C832093B293B08330833293B0833E8324C
:106F7400C832A72AA6226522652A242AC331444A94
:106F8400278BCA9B0BA46CB46EB56EB54EB56FBDA2
:106F94006EB54EB58FBDF0BDD0BDB0B58C8C6963F8
:106FA400CB6BAC6BF18C95A594A5D0846F74D08415
:106FB400118D2D6CE521C1000301C719C821A81941
:106FC400A8198919C921A921A921C921C921CA211D
:106FD400CA21CA21C921C921C921E921C821050918
:106FE400A40026098819A921C919C819E921AC3AAC
:106FF400B05B116C116C317431743174317431744F
:10700400316C316C116C116C316C116C116C116C34
:10701400116C116C316C316C316C116C116C116C24
:10702400116CF1634E534A3209220922E921E929FC
:10703400EA29C929C921A9216819E608471188192B
:10704400A821E929C921C921EA210A220B2A0B2AEC
:107054002B2A2B2A0B2A0B2A0B2AEA29E929092A8B
:10706400E821A611A511C519C83209330833E82A45
:1070740008332833293B293BE832A72AC62A85222C
:10708400652A232AC2318552899B0AAC0AA44CB4CE
:107094004EB52EAD2EAD6FB56FB56FB58FB5B0B51E
:1070A400D0B56FAD2B7CAA6B0D740E7474A517B696
:1070B40036B694A55295118D739593952A4B430931
:1070C4000309A619E821C821A821A919CA21CA219E
:1070D400C921C921CA21CA21CA21C921C921C92159
:1070E400C921E921C8214611C400E5088819A9214C
:1070F400C819A819C9218C3A8F5BF16BF16B3174F3
:10710400117431743174116C316C316C316C116CDB
:10711400116C116C116C116C316C116C116C116C63
:10712400316C116C116C116C116CF16B2E534A3271
:1071340009220922E929E929C929C929E929E929C9
:10714400A81906096711A719A719C821C821E82198
:10715400EA210A2A2B2A2A2A0A2A0A2A0A2A0B2A72
:107164000A2AEA29E929E929C72144094409A51178
:10717400C832093B093308330833293B493B6A4386
:10718400493B083307338522432A0232A131A55AE9
:10719400C9AB0AACEAAB4CB44EAD4EAD6FB56FB5EE
:1071A4006FB56FB56FAD90AD70ADEE94CA736E846C
:1071B4001195129517B659BE37B637B616AEF18C7F
:1071C400118D939DCD63C519A519C621C721C82169
:1071D400C921C921CA21CA21CA21CA21CA21CA2155
:1071E400CA21C921C921C921E921E921C821A71935
:1071F40026112509A821A821C819A819C8196B3274
:107204006F5BF16BF16B116C116C1174116C116C7F
:10721400316C316C316C316C316C116C116C316CC2
:10722400316C116C116C116C116C116C316C116C32
:10723400116CF16B2D534A320A22EA29EA29EA2910
:10724400C929C929E9290A2AA8194609E8190922D4
:10725400A719A719C721082AE9210A2A0A2A0922F3
:1072640009220A220A2AEA290A2A0A2AE929E921F8
:10727400C72145094409061AC832093B293B293369
:10728400293B493B6A438A4B8A43693B693B6422F5
:10729400232A233AE241C66AC9ABEAABEAAB6CB42F
:1072A4004FAD4FAD90B54FADEE9CAD9CCE9C50A56F
:1072B4000F9D6D8CAB6B319DF5B5D5AD78C679C698
:1072C40058BE37B657B65395D084D084CC5B47327A
:1072D400E621C619C721A821C821C921CA21CA216A
:1072E400C921C921CA21CA21CA21C921A921A82188
:1072F400C821C821A721C82166194611A821C8217F
:10730400E921C819A8194A324F53F16BF16B116C7A
:10731400F16B116C116C116C116C316C316C316C42
:10732400316C316C116C316C316C316C116C116CD1
:10733400116C116C116C116C116CF16BED4A2A32E9
:10734400EA29EA29EA29EA29EA29E929E929E921AC
:10735400A81966114A2AAB322822E719C71907224D
:10736400C921E9210922E921E921E9210A2AEA2995
:10737400EA290A2AE929E929C82165098511682A1F
:10738400E832093B293B493B493B493B6A438A4331
:10739400AA4BAA438943C532A53AA44A4352477B20
:1073A400C9ABE9ABE9AB8CBC50ADEE9CCE9C8D94E3
:1073B4002C840B840C84AE94AE8CEC7B8B6B529D32
:1073C40077BE17B658BE59BE79BE58BE98BEF5AD45
:1073D400118D6F7CAC5B6732A5198511A719C82183
:1073E400A821A921A921C921C921C921CA21CA21A8
:1073F400C921A921A821A821A721A7218619861975
:10740400451105098619E829E921E921C8192A2A1B
:107414002E53F16B116C116CF16B116C116C116CBE
:10742400116C316C516C316C316C316C116C316C90
:10743400316C316C316C316CF06BF063116CF16B4D
:10744400116CD063AB42092AEA29EA29EA21C92945
:10745400EA29E929E921E821C81966116A2A0C43B5
:10746400AA32482AE721C619C821E821E921E921DD
:10747400E921E921E929EA29E929E929E929E92987
:10748400C7216511C611892A2A434A436A436A43BC
:107494006A436A436A438A4BCA4BAA438943884373
:1074A4006853C552645A888BE9B3E9B309AC8CBC00
:1074B400CF9C4D8C0C84AB7B0C848F94AF94F09C4C
:1074C4008F8CAB6B4A63B08C36BE57BE99C679C6F7
:1074D40079BE99C6D9C636AE128D4E74AC5B262AD7
:1074E400A51944118619C821A821A9218821A921F7
:1074F400C921C921A921A921A921A921A821A821FA
:10750400A721A71986198619861986196619E829E3
:10751400E9210922C819092AED42D063116C116CC2
:10752400F16B116C116C116C116C316C316C516C10
:10753400316C316C316C316C316C316C316C316C5F
:10754400116CF063116CF16B116C8F5B4A32E92999
:10755400EA29EA29EA29EA29EA29E929E921E821A3
:10756400C819450148222C430B3BCA324722C5198E
:10757400C821C819C82109220922E921E921E929D8
:10758400E929E929E929E929C71986110722C93214
:107594008B4B8B4B6A436A436A43493B49438A4357
:1075A400AA4BAA438943EA53E963C5528462A99367
:1075B400E8B3C8B3E9ABACBC0C840C840C84AB73E7
:1075C4006E8CD4BD35C635C6D4B56E844A630E748C
:1075D400B5AD37BE79C679C679BE99BEB9C657B6B8
:1075E40053956F7C4E6CC942C52124096511A719B6
:1075F400C821C929A921A921C921A921A9218921F0
:1076040089218821882187198719A721E829082A2F
:107614008A3A4932A719E821C8190922C821E9215F
:10762400AC428F5BF16B116C116C11743174116C81
:10763400116C316C316C316C316C316C316C316C7E
:10764400316C316C316C316C316CF063116CF16BF9
:10765400116C8F5B2A32E829EA29EA29EA29EA2906
:10766400EA29E929E921E92187110401081A2B3BB8
:107674002B3B0A3B882A0622C819A719C8190922D4
:10768400092AE821C821E921E929C929E929E9299F
:10769400A719A619482A0B3B8B4B6A434A3B293B43
:1076A400293B0833083B493B8A43CA4BA9430A5C3C
:1076B4002A6C055BE56AEA9BE8B3C8ABE9AB8CBC12
:1076C400ED7BEC7BB08C6F84B08C37BEB9CE98C6A2
:1076D40037BED5AD0E7C6C63908CD5B578CE58BED4
:1076E40079BEB9C6D9C677B653956E74528D707487
:1076F400EA42C6216511A619C719C719C619E72197
:10770400E719C619A619C719E719A619E721693295
:10771400893A893ACA3A0B432C4B0C4B082AC719AD
:10772400E821C819E821C9212B324F53126CF16B9F
:10773400116C116C31745174316C316C326C116C8C
:10774400316C316C316C316C316C316C316C316C4D
:107754003274116CF163116C326C6F536B32E9212A
:107764000A220A220A2209220922E921E921E81926
:10777400A611030168222A3B2A3B093BE832A72AC7
:10778400E619A611A611E71908220722E719E8212C
:107794000822E8218611C719E819C7190822AB3A4B
:1077A4002A43A832C9322B430A43672A2522E83ADE
:1077B4008A53EB530C5C0B64CA6B276B4683C89BE0
:1077C400C8BBA8B3C8A36CB40D7CED7BB08CB18CE2
:1077D400129537B658BE98C6DACEB9CE74A5708461
:1077E400EE73B18C17BE78C699C699C698BE37B6E3
:1077F40052956F74B49D1285CD5BCA3A0822A619BE
:10780400861186118611C619C619C619C619E7212B
:10781400282A69322B4B0F640E64CD638C532B4B97
:10782400CA420B438A32E721E821C719A819A819CB
:107834000A2A0E4BF26BF16B116C116C317451749A
:10784400316C516C5274316C316C316C316C316C03
:10785400316C316C316C316C3174116C116C116C94
:10786400116C2E4B4A32C821E921E921EA2109226F
:107874000922E921E819E819A6112401682A2A3BFA
:10788400293B293B0833E73228228509240185094D
:10789400C619C619C719E719E719A7194509A71180
:1078A400A7198611A711492AC93A0A430E64137D00
:1078B400F27CAC53E83A08438A53CB53EB5BCB637B
:1078C400CA6B276B6783E8A3C8BBA8B3C8A38CB4EF
:1078D400ED7B0E7C129DB5AD17B679C658BE79C640
:1078E400B9C6B9CE58C675AD5084918C37BE99C609
:1078F400BAC6BAC699C657B6328D0D6C128D4F747E
:10790400AD5B4C4BEB428932492A282AE7210722F6
:10791400682A682A682A6832A93A0A43EE63F1841D
:10792400F184D17C0E64EA42062268328932E7216E
:10793400E821C719C819A819EA21CE42B163F16B2D
:10794400116C106C316C3174316C51745274326C32
:10795400316C316C316C316C316C316C316C316C3B
:10796400116C116C116C316CF1630D4B2A2AE921F5
:10797400E921E921EA21092209220922E819C81981
:10798400A6116509892A2A3B2A3B093B293B08336E
:10799400892AE6194401440165098511A611E719EC
:1079A400C719851124018611A611C719E8198A324D
:1079B4002B4B706CB59599B637A6D17CED636A4BA9
:1079C4008A4BCB53EC5BEB63CA6B076B678B09A4E5
:1079D400C8BBC8B3C8AB8CB40E7C5084B5AD79C6F3
:1079E40099C6BAC679BE79BE79C699C6BACE58BE0A
:1079F40034A5349D18BE38BE79C679C679BE98BE02
:107A040053950E6CD1840E648C538D536C4B0B4385
:107A14000B432B432B43AD530E64ED5BCD5B8C5377
:107A24006C538B53ED638F741185328D4E6C2A4BDE
:107A340006220722482A0722E719E819E921E92141
:107A4400EA298C3A705BF16B116CF06B106C306C42
:107A5400316C31745274316C306C306C316C316C0B
:107A6400316C316C316C316C116C316C326C327440
:107A7400F163ED42092A092A0A220A220A2209226A
:107A840009220922E819C719A611A611A9322A3B0D
:107A94002A3B09330833E832A92A882A061A6409DA
:107AA40043018409C611C619071AC611A511072274
:107AB400482AAA32AA322C43EE63959558AE99B659
:107AC40037A6B595738D4E6C6A4B0C5C2D640C64B3
:107AD400AA6B076B888BE9A3C8BBC8B3C8AB6BB4EC
:107AE400339DB18C95A599C699C679BE79BE7ABEE7
:107AF40079BE9AC6BACE79C6F7B5B6AD18BE79C600
:107B04007AC679C679BEB9C6B5A5B07C128D907413
:107B1400AD5B8D5B8D536C4B6C53AD53EE5B9074CE
:107B240011851185F07C8F742D6CCB5BCB5B0C6461
:107B3400CF7C10852D6C8B53E93A272AC619A619D8
:107B4400A719C7190922E921E9214B322E4BD16B20
:107B5400F16BF06B106C306C306C51745174316C8F
:107B6400306C306C316C316C316C316C316C317423
:107B7400316C316C316C326CD063CC42092AE92906
:107B84000A220A220922E92109220922E821C81924
:107B9400A611071AEA320A3B0A3BE932E932E83213
:107BA400E9320A3BC932471AE5110612471A47223D
:107BB400682A892AC9320A3B2B436C4B0B3B4C4B3A
:107BC400D27C38AE79B679AE17A617A637AEF18453
:107BD4008B53EC5BEC5BCB636963E66A8893C8A365
:107BE400A7B3C7B3C8A36BAC37BEF394349D59BED7
:107BF4009AC67ABE7ABE9AC69AC69AC69AC679C6F2
:107C040079C659C679C6BACEBACE9ACE9AC6BACE73
:107C140017B63395128DB17CAD5B8C538C53AD5339
:107C2400AD538C53AC532E648E74CF7CCF7C8E7446
:107C34002C64CB5BCA5B0B648D74AE7C0C64EB5B15
:107C4400AB5BA83A64114309A611C719E821E921DD
:107C5400C9210A2AEE4AF16BF16B106C316C317454
:107C6400316C51745174316C306C306C506C316CBB
:107C7400316C316C316C31745274316C116C126C26
:107C8400D063AC3AC921E921E921E921E921E921BB
:107C9400E92109220922C819A6112822EA32EA3266
:107CA4000A33E932093309332A3B293B293B093397
:107CB400C82AA82AC82AE9320A3B4B436B438C4B97
:107CC4008C4B8C4B0A3BAD53D6A579B679B69AB694
:107CD40079B658B677B6328DAC5BAC538B53AB6385
:107CE4004963E66AA893A79BA7B3A7ABC8A34BAC09
:107CF40079C695A5549DF7AD9AC6BBC67ABEBBC6D8
:107D0400BBC69AC67AC69AC6BACEBACE7AC659C67F
:107D14007AC679C69AC69AC658BEB5A5128DD184BC
:107D24002F6CAD5B8C538C536C4B8C53AC53ED5B11
:107D3400EB5B0C640C640C640B64EB63EB632B640F
:107D4400AD74AD744C6C4C6C2D6C8B53E62163118B
:107D5400A611C711E819E921C921CA21AD3AB063B6
:107D6400F16BF16B31743174316C316C5174116C91
:107D7400306C306C506C306C316C306C316C3174F4
:107D84005274316C116C116CB05B8B3AC821E921CF
:107D9400E921E921E921E92109220922081AC7195F
:107DA4008609692AEA32EA320A33E93209330933A5
:107DB4000833E83208332933293309330933293B9B
:107DC4006A438B438B438B438C4B4B432A43906CCA
:107DD40038B679B679B69ABEBABEBABE78B6328D1E
:107DE400AC5B8B53CC5B6E7CEB7B0773C99BA8A30A
:107DF400A7B3C8B3C8A36AAC99C658BE96A5759D67
:107E040059B69ABE59B67ABE7AC659BE9AC69ACEA1
:107E14007AC69ACE9ACE9AC69BCE7AC69AC679C6A6
:107E240058BEF6ADF28CF284907CEE63CD5BCC53FD
:107E3400AC53CC53CC53CC530C64EB63CA5BEB5BB9
:107E44002C6C4C6C2B6C2B64AD74AD74AD748D7454
:107E54004D6C0D64A832C519A611A611C719E921E4
:107E6400C921A9214B322F53D16BF06B316C317482
:107E7400306C316C316C316C306C306C306C306C1B
:107E8400306C306C317431745274316C116C116C0F
:107E9400B05B6B3AC821E9210A220A22EA21E921CE
:107EA40009222922E819C7118509692A0A3BEA32FD
:107EB4000A3BE9320933E932E82A08332933293302
:107EC4002933693B693B493B6A3B8A438B43AB4B50
:107ED400AC534B434A43328599BEBABE9ABEBBBE2D
:107EE400BABEBAC617AE907C8B538B536E74729D18
:107EF4008E94277BE9A3E8ABC7B3E8B3E8AB6BACDC
:107F040078C699C638BE96A5B6A559B659BE79BEE7
:107F140059BE7AC69AC69ACE9ACEBACE9ACE7AC6A6
:107F24007AC67AC67AC659C679BE58BEB5A5128D28
:107F3400F1846F740E64CD5BCC5BCC5BCC530D5C75
:107F44000B640C646D6CAE74CE7CEE7C8D748953C2
:107F5400EA63CE7CEE7CCE7C4D6CEC634A4B672AA4
:107F6400E619C6110822E819C919E921EA29EE4AD5
:107F7400B063116C3174106C106C306C316C316CFA
:107F84005074306C306C306C306C316C31745174B2
:107F9400316C52743274116CB05BAC3AE921E92152
:107FA4002B2AEA21E921E921E9210922E819860994
:107FB4006509CA320A3BEA320A3BE932E932E9325C
:107FC40008330833083329334933493B693B693B58
:107FD4008A438A43CC4B8B4B8B4B4A436B4B738DFD
:107FE400DAC69ABEBBC6BABE9ABEBAC6949DCD6363
:107FF4004A4BEC635295F4AD4C8C8883E9A3E8B307
:10800400E8BB08B4E8A34AA4B9CEB9CE78C6F7ADA4
:10801400D6A5F7ADD7A5D7AD59BE59BE79C69AC670
:108024009ACEBACEBACEBACE9ACE9ACE7AC67AC6FC
:108034009AC679BE17AE949DF2844F6C2E64ED5BA4
:10804400CC53CC5BED5BCD5B4D6CCF7C1085308D20
:10805400518D9195AE7C69530B64EE7CCE7CAE7CE5
:108064004D6CEC63AB53E9422722E619081AE82168
:10807400C819C921C9218C3A6F5BF06B3174106C3B
:10808400106C106C316C316C5174306C306C316C20
:10809400306C316C3174317452745274116C116CD3
:1080A400B05BCC420A2A2A2A0A22EA21EA210922BE
:1080B40009220922E7196509C611EA320A3BEA32A4
:1080C4000A3BE932E932E9320833083328334933C9
:1080D400493349336933693B8A3B8A43AB4BAB4BE6
:1080E400CC536B4BAC53D495DAC699C6DAC6BABE38
:1080F400BABE79BEF2842A4B2A4B6F7415AE76BE93
:108104006D94888BE8A3E8B3E8BB08B4E8A34AA459
:1081140098CE78C699C658BE18B6F7ADB6A5D7ADF1
:1081240038B658BE79C699C6BACEBACEBACEBACE89
:108134009ACE9ACE9ACE9AC69AC69AC658BE37B6E0
:1081440073952E6CED630D64CC5BED5B0D64ED5BA0
:108154004D6CAF741085318D318D10858E740C6427
:108164008D74EF84AE7C8E744D6CEC5BAC5B4A4BCF
:108174008822C611E719E819E819C921C9212B3247
:108184000E4BB063116C316C106C106C106C316C54
:10819400316C306C306C306C316C116C3174317406
:1081A400316C116CD063F163B05BCC420A2A2A2A89
:1081B4000A22EA210A22E921E921081AC7196509D4
:1081C4004822EA320A3B0A330A33E9320933E932F4
:1081D400E832082B083328332833283348336933EB
:1081E4008A3B8A43493B6A438B4B4A430E6436A617
:1081F400DACEBAC6BAC6BABEBAC638B6707CEA4ACD
:10820400ED63739597BEB7C68D94888B09AC08BC93
:10821400E8BB08B4E8A32AA457C657C698CE99C6A3
:1082240078BE58BE38B658BE58BE79C699C699CEDF
:10823400BACEBACEBACEBACEBACE9ACE9ACE9AC662
:108244009AC69AC699BE99BED5A52E6C6B53AC53EB
:10825400AC5BCD5BED5B0E64EC63CC5B2E6CB07CF5
:108264004E744B532A4BCC63AF7CD0846E6C8E74AB
:108274004D6CEC5B8B534A4BC832E511C611C719E0
:10828400E819E921E9210A2A8C426F5B106C3174E8
:10829400316C106C106C116C306C316C316C316C55
:1082A400116C116C116C3174116CF16BF163116C04
:1082B400D05BED422A2A0A220A220A220A22E92152
:1082C400E819E819C7198509892AC932EA320A3333
