:020000040800F2
:100000000050002051020008E9020008E90200083F
:10001000E9020008E9020008E90200080000000007
:10002000000000000000000000000000E9020008DD
:10003000E902000800000000E90200089906000833
:10004000E9020008E9020008E9020008E9020008E4
:10005000E9020008E9020008E9020008E9020008D4
:10006000E9020008E9020008E9020008E9020008C4
:10007000E9020008E9020008E9020008E9020008B4
:10008000E9020008E9020008E9020008E9020008A4
:10009000E9020008E9020008E9020008E902000894
:1000A000E9020008E9020008E9020008E902000884
:1000B000E9020008E9020008E9020008E902000874
:1000C000E9020008E9020008E9020008E902000864
:1000D000E9020008E9020008E9020008950E00089C
:1000E000E9020008E902000800000000E902000837
:1000F000E9020008E9020008E9020008E902000834
:10010000E9020008E9020008E9020008E902000823
:10011000E9020008E9020008E9020008E902000813
:10012000E9020008E9020008E9020008E902000803
:1001300080B500AF00F0DEF80321022000F002F9E4
:100140000221022000F0FEF81121012000F0FAF84F
:100150000B220921002000F0C9FA04220A21002004
:1001600000F0C4FA0B220221002000F0BFFA0422A2
:100170000321002000F0BAFA0B220A21012000F02E
:10018000B5FA04220B21012000F0B0FA00F0A2FC25
:100190002049012000F004FE1F4B1B681F4A13601A
:1001A0001E4B1B689B0E03F001031D4A13601B4B83
:1001B0001B68DB0E03F001031A4A1360174B1B6820
:1001C0001B0F03F00103184A1360134B1B68124AFC
:1001D00043F080731360134B1B68002B0AD0134B42
:1001E000134A1A60134B1B68134A1360124B1B68A7
:1001F00098470DE00C4B1B68002B09D00B4B0F4AA6
:100200001A600F4B1B680C4A13600B4B1B68984716
:10021000FEE700BFA80E00082410024014000020D2
:1002200004000020080000200C00002008ED00E081
:100230000014000804140008000000200028000832
:100240000428000880B400AF00BFBD4680BC7047E2
:1002500080B586B000AF00237B6000237B61002364
:100260003B611C4A1C4BD31A9B107B601B4B7B6170
:10027000194B3B610023FB600AE07A69131D7B6127
:100280003B69191D396112681A60FB680133FB6014
:10029000FA687B689A42F0D3114A124BD31A9B102A
:1002A0007B60104B3B610023BB6007E03B691A1D7C
:1002B0003A6100221A60BB680133BB60BA687B6890
:1002C0009A42F3D3FFF7BEFFFFF732FF00BF1837A4
:1002D000BD4680BD0000002000000020B00E0008D8
:1002E0002C0000200000002080B400AF00BFBD46FD
:1002F00080BC704780B483B000AF0023FB800F4AFE
:10030000136843F00103136002E0FB880133FB80B4
:100310000A4B1B68C3F34003DBB2012B04D0FB88FC
:1003200041F287329342F0D9054A13686FF3010313
:10033000136000BF0C37BD4680BC70470010024000
:100340000410024080B485B000AF03460A46FB713A
:100350001346BB710023FB73FB79022B02D90123E7
:10036000FB7330E0BB791E2B02D90223FB732AE01A
:10037000FB79022B1CD0022B25DC002B02D0012B99
:100380000BD020E0134B1B68BA79012101FA02F26D
:100390001146104A0B43136015E00F4B1B68BA79E6
:1003A000012101FA02F211460B4A0B4313600AE0E5
:1003B0000A4B1B68BA79012101FA02F21146074A79
:1003C0000B43136000BFFB7B18461437BD4680BC4F
:1003D000704700BF141002401C1002401810024069
:1003E00080B485B000AF03460A46FB711346BB716B
:1003F0000023FB73FB79022B02D90123FB7333E04B
:10040000BB791E2B02D90223FB732DE0FB79022B53
:100410001ED0022B28DC002B02D0012B0CD023E0B5
:10042000144B1B68BA79012101FA02F2D24311463A
:10043000104A0B40136017E00F4B1B68BA7901217B
:1004400001FA02F2D24311460B4A0B4013600BE053
:100450000A4B1B68BA79012101FA02F2D243114614
:10046000064A0B40136000BFFB7B18461437BD469D
:1004700080BC7047141002401C100240181002404B
:1004800080B485B000AF03460A46FB711346BB71CA
:100490000023FB73FB79022B02D90123FB7323E0BA
:1004A000BB791E2B02D90223FB731DE0FB79012BC4
:1004B00002D0022B0BD015E00E4B1B68BA7901213C
:1004C00001FA02F211460B4A0B4313600CE00A4B8F
:1004D0001B68BA79012101FA02F21146064A0B4360
:1004E000136001E00123FB73FB7B18461437BD4604
:1004F00080BC7047101002400C10024080B400AF66
:10050000044A13686FF38203136000BFBD4680BCCA
:10051000704700BF10E000E080B584B000AF7860A5
:100520007B6842F2283202FB03F3FB600C4B002293
:100530001A600C4AFB6813600B4A136843F001030E
:10054000136000BF084B1B68C3F30043DBB2002BF2
:10055000F8D000F079F800BF1037BD4680BD00BF6D
:1005600018E000E014E000E010E000E080B485B0A6
:1005700000AF786039600123FB733B68002B03D127
:100580000223FB73FB7B20E0124A13686FF3000326
:100590001360114B00221A60104B00221A600023D6
:1005A000FB730D4A7B6813600A4A136843F001032A
:1005B00013600B4A3B6813600A4B00221A70054A0D
:1005C000136843F002031360FB7B18461437BD46E3
:1005D00080BC704710E000E014E000E018E000E0AC
:1005E000180000201C00002080B485B000AF7860A7
:1005F00039600123FB733B68002B02D10223FB739C
:1006000014E00023FB730C4A3B6813600B4A7B68C1
:1006100013600B4B01221A700A4A136843F002035D
:100620001360084A136843F001031360FB7B18460C
:100630001437BD4680BC70471800002014E000E06D
:100640001C00002010E000E080B400AF044A1368F2
:100650006FF30003136000BFBD4680BC704700BF4E
:1006600010E000E080B400AF044B1A68044B1B6834
:10067000D31A1846BD4680BC704700BF14E000E0A6
:1006800018E000E080B400AF024B1B681846BD467E
:1006900080BC704718E000E080B500AF0E4B1B78BF
:1006A000002B0FD10D4A13686FF3410313600B4AFF
:1006B00013686FF300031360094B00221A60094BA3
:1006C00000221A60084B1B689847044A13686FF3AE
:1006D0001043136000BF80BD1C00002010E000E04C
:1006E00014E000E018E000E01800002080B485B0BD
:1006F00000AF0346FB710B46BB7113467B710023B1
:10070000FB73FB79022B02D90123FB73B4E0BB79A5
:100710000F2B02D90223FB73AEE0BB79072B52D813
:10072000FB79022B37D0022B00F3A680002B02D0DE
:10073000012B18D0A0E0534B1B68BA7992000F210F
:1007400001FA02F2D24311464E4A0B4013604D4B60
:100750001B687979BA79920001FA02F21146494A86
:100760000B43136088E0484B1B68BA7992000F2155
:1007700001FA02F2D2431146434A0B401360424B46
:100780001B687979BA79920001FA02F211463E4A61
:100790000B43136070E03D4B1B68BA7992000F2148
:1007A00001FA02F2D2431146384A0B401360374B2C
:1007B0001B687979BA79920001FA02F21146334A3C
:1007C0000B43136058E0BB79072B54D9BB79083B26
:1007D000BB71FB79022B36D0022B4DDC002B02D0F3
:1007E000012B18D048E02A4B1B68BA7992000F21E0
:1007F00001FA02F2D2431146254A0B401360244B02
:100800001B687979BA79920001FA02F21146204AFE
:100810000B43136030E01F4B1B68BA7992000F2125
:1008200001FA02F2D24311461A4A0B401360194BE7
:100830001B687979BA79920001FA02F21146154AD9
:100840000B43136018E0144B1B68BA7992000F2118
:1008500001FA02F2D24311460F4A0B4013600E4BCD
:100860001B687979BA79920001FA02F211460A4AB4
:100870000B43136000E000BFFB7B18461437BD46F6
:1008800080BC704700080140000C0140001001408E
:1008900004080140040C01400410014080B485B0FC
:1008A00000AF03463A60FB710B46BB710023FB733C
:1008B000FB79022B02D90123FB7333E0BB790F2BA9
:1008C00002D90223FB732DE0FB79022B1ED0022BF1
:1008D00028DC002B02D0012B0CD023E0144B1A682B
:1008E000BB7922FA03F3DBB203F00103DAB23B680F
:1008F0001A7017E00F4B1A68BB7922FA03F3DBB2C8
:1009000003F00103DAB23B681A700BE00A4B1A6875
:10091000BB7922FA03F3DBB203F00103DAB23B68DE
:100920001A7000BFFB7B18461437BD4680BC704769
:1009300008080140080C01400810014080B485B04F
:1009400000AF03463960FB710023FB73FB79022B78
:1009500002D90123FB731BE0FB79022B12D0022B7F
:1009600016DC002B02D0012B06D011E00B4B1B68CC
:100970009AB23B681A800BE0094B1B689AB23B683D
:100980001A8005E0074B1B689AB23B681A8000BFCB
:10099000FB7B18461437BD4680BC704708080140F1
:1009A000080C01400810014080B485B000AF034638
:1009B000FB710B46BB7113467B710023FB73FB7904
:1009C000012B02D90123FB7344E0BB790F2B02D921
:1009D0000223FB733EE07B79012B1BD1FB79022BB9
:1009E00012D0022B36DC002B02D0012B06D031E0D6
:1009F000BB7901229A401A4B1A602BE0BB79012285
:100A00009A40184B1A6025E0BB7901229A40164B98
:100A10001A601FE07B79002B1BD1FB79022B12D0CF
:100A2000022B17DC002B02D0012B06D012E0BB7981
:100A300001229A400D4B1A600CE0BB7901229A40CA
:100A40000B4B1A6006E0BB7901229A40094B1A60F1
:100A500000E000BFFB7B18461437BD4680BC7047E2
:100A600010080140100C0140101001401408014012
:100A7000140C01401410014080B485B000AF03464F
:100A80000A46FB711346BB800023FB73FB79012BE5
:100A900002D90123FB7312E0FB79022B0ED0022B4B
:100AA0000DDC002B02D0012B04D008E0074ABB88E4
:100AB000136004E0064ABB88136000E000BFFB7BC4
:100AC00018461437BD4680BC704700BF0C08014073
:100AD0000C0C014080B483B000AF04237B607A68C3
:100AE0002B4BA3FB02135B09642101FB03F3D31A15
:100AF0001B0107331B093B603B680F2B04D97B6844
:100B000001337B6000233B60224A7B68C3F30B0305
:100B100099B2136861F30F1313601E4A3B6803F028
:100B20000F03D9B2136861F3030313601A4A136801
:100B30006FF30C331360184A13686FF38A23136042
:100B4000154A13686FF3C7131360134A13686FF3E2
:100B500086131360104A13686FF3451313600F4A2E
:100B600013686FF3CC2313600B4A136843F0080338
:100B70001360094A136843F004031360064A1368BC
:100B800043F40053136000BF0C37BD4680BC704770
:100B90001F85EB51084400400C44004010440040C5
:100BA00080B483B000AF03460A46FB711346BB71A5
:100BB000FB79022B2ED0022B40DC002B02D0012B24
:100BC00014D03BE000BF204B1B68C3F3C013DBB263
:100BD000012BF8D11D4ABB79136000BF1A4B1B686B
:100BE000C3F38013DBB2012BF8D127E000BF184B11
:100BF0001B68C3F3C013DBB2012BF8D1154ABB79D4
:100C0000136000BF124B1B68C3F38013DBB2012BD0
:100C1000F8D113E000BF104B1B68C3F3C013DBB265
:100C2000012BF8D10D4ABB79136000BF0A4B1B683A
:100C3000C3F38013DBB2012BF8D100BF00BF0C3728
:100C4000BD4680BC704700BF0038014004380140F9
:100C50000044004004440040004800400448004074
:100C600080B584B000AF03463960FB710323FB609D
:100C70000DE0FB68DB003A6822FA03F3DAB2FB7995
:100C800011461846FFF78CFFFB68013BFB60FB68D1
:100C9000002BEEDA00BF00BF1037BD4680BD80B428
:100CA00085B000AF03463960FB710023FB60002371
:100CB000FB723B68002B01D10223FB72FB79002BF6
:100CC0001BD102E0FB680133FB602D4B1B68C3F3B3
:100CD0004013DBB2002B03D1FB682A4A9342F1D9BF
:100CE000FB68294A934202D10323FB7242E0274B5F
:100CF0001B68DAB23B681A703CE0FB79012B1BD110
:100D000002E0FB680133FB60214B1B68C3F3401317
:100D1000DBB2002B03D1FB681A4A9342F1D9FB687E
:100D2000194A934202D10323FB7223E0194B1B683B
:100D3000DAB23B681A701DE0FB79022B1AD102E08F
:100D4000FB680133FB60144B1B68C3F34013DBB239
:100D5000002B03D1FB680B4A9342F1D9FB680A4A86
:100D6000934202D10323FB7204E00C4B1B68DAB2FE
:100D70003B681A70FB7A18461437BD4680BC704732
:100D8000003801403F0D0300400D030004380140CE
:100D90000044004004440040004800400448004033
:100DA00080B584B000AF03463960FB710023FB734C
:100DB0000023BB733B68002B0ED10223FB7311E0B1
:100DC000BB7B3A6813441A78FB7911461846FFF743
:100DD000E7FEBB7B0133BB73BB7B3A6813441B78D4
:100DE000002BEDD1FB7B18461037BD4680BD80B58A
:100DF00084B000AF03463960FB711346BB7100231A
:100E0000FB731AE007F10E02FB7911461846FFF753
:100E100046FFBB7B0A2B02D0BB7B0D2B05D1FB7B96
:100E20003A68134400221A700DE0FB7B5A1CFA73D7
:100E30001A463B681344BA7B1A70FA7BBB79013BB4
:100E40009A42DFDB00BF00BF1037BD4680BD80B4D3
:100E500087B000AFF860B9601346FB710023FB75E3
:100E60000EE0FB7DFA6813441A78FB7DB9680B44E9
:100E70001B789A4201D0002307E0FB7D0133FB750C
:100E8000FA7DFB799A42ECD3012318461C37BD4604
:100E900080BC704780B500AF024B1B68984700BF0D
:080EA00080BD00BF2800002006
:080EA800424D0A000050002039
:0400000508000130BE
:00000001FF
