:020000040800F2
:1028000000500020F9540008915500089155000827
:1028100091550008915500089155000800000000EE
:1028200000000000000000000000000091550008BA
:10283000915500080000000091550008252F000860
:1028400091550008915500089155000891550008D0
:102850009155000891550008F53500080D3600081F
:10286000253600083D360008553600089155000809
:1028700091550008915500089155000891550008A0
:102880009155000891550008915500089155000890
:102890009155000891550008915500089155000880
:1028A00091550008F545000891550008915500081C
:1028B000314600086D460008A946000891550008F9
:1028C0009155000891550008915500084D390008B0
:1028D00075390008693F00087D3F0008913F0008F6
:1028E000915500089155000800000000915500081E
:1028F0009155000891550008915500089155000820
:10290000915500089155000891550008915500080F
:1029100091550008915500089155000891550008FF
:1029200091550008915500089155000891550008EF
:1029300080B483B000AF0023FB80274A136843F0C4
:102940000103136002E0FB880133FB80224B1B680C
:10295000C3F34003DBB2012B04D0FB8841F2873282
:102960009342F0D91D4A13686FF3104313601B4A5A
:102970001368072161F395431360174A136843F006
:102980008073136002E0FB880133FB80124B1B68ED
:10299000C3F34063DBB2012B04D0FB8841F28732E2
:1029A0009342F0D90D4A13686FF3CD2313600B4A9D
:1029B00013686FF30A231360084A13686FF3071351
:1029C0001360064A1368022161F30103136000BF1C
:1029D0000C37BD4680BC7047001002400410024016
:1029E00080B485B000AF03460A46FB711346BB7145
:1029F0000023FB73FB79022B02D90123FB7330E028
:102A0000BB791E2B02D90223FB732AE0FB79022B30
:102A10001CD0022B25DC002B02D0012B0BD020E098
:102A2000134B1B68BA79012101FA02F21146104AD0
:102A30000B43136015E00F4B1B68BA79012101FAB3
:102A400002F211460B4A0B4313600AE00A4B1B6863
:102A5000BA79012101FA02F21146074A0B431360C9
:102A600000BFFB7B18461437BD4680BC704700BFD3
:102A7000141002401C1002401810024080B485B0AF
:102A800000AF03460A46FB711346BB710023FB737C
:102A9000FB79022B02D90123FB7333E0BB791E2B98
:102AA00002D90223FB732DE0FB79022B1ED0022BEF
:102AB00028DC002B02D0012B0CD023E0144B1B6828
:102AC000BA79012101FA02F2D2431146104A0B40B1
:102AD000136017E00F4B1B68BA79012101FA02F26B
:102AE000D24311460B4A0B4013600BE00A4B1B68A4
:102AF000BA79012101FA02F2D2431146064A0B408B
:102B0000136000BFFB7B18461437BD4680BC70477E
:102B1000141002401C1002401810024080B485B00E
:102B200000AF03460A46FB711346BB710023FB73DB
:102B3000FB79022B02D90123FB7323E0BB791E2B07
:102B400002D90223FB731DE0FB79012B02D0022B7B
:102B50000BD015E00E4B1B68BA79012101FA02F285
:102B600011460B4A0B4313600CE00A4B1B68BA7901
:102B7000012101FA02F21146064A0B43136001E0FB
:102B80000123FB73FB7B18461437BD4680BC70479E
:102B9000101002400C10024080B485B000AF034614
:102BA000FB710023FB73FB791F2B05D8FB790122F6
:102BB0009A400B4B1A600DE0FB793B2B08D8FB7950
:102BC000203BFB71FB7901229A40064B1A6001E021
:102BD0000123FB73FB7B18461437BD4680BC70474E
:102BE00000E100E004E100E080B485B000AF0346FE
:102BF000FB710023FB73FB791F2B05D8FB790122A6
:102C00009A400B4B1A600DE0FB793B2B08D8FB79FF
:102C1000203BFB71FB7901229A40064B1A6001E0D0
:102C20000123FB73FB7B18461437BD4680BC7047FD
:102C300080E100E084E100E080B485B000AF0346AD
:102C4000FB710023FB73FB791F2B05D8FB79012255
:102C50009A400B4B1A600DE0FB793B2B08D8FB79AF
:102C6000203BFB71FB7901229A40064B1A6001E080
:102C70000123FB73FB7B18461437BD4680BC7047AD
:102C800000E200E004E200E080B485B000AF03465B
:102C9000FB710023FB73FB791F2B05D8FB79012205
:102CA0009A400B4B1A600DE0FB793B2B08D8FB795F
:102CB000203BFB71FB7901229A40064B1A6001E030
:102CC0000123FB73FB7B18461437BD4680BC70475D
:102CD00080E200E084E200E080B485B000AF03460B
:102CE0003960FB710023FB73FB791F2B0BD8134B4F
:102CF0001A68FB7922FA03F3DBB203F00103DAB2BC
:102D00003B681A7013E0FB793B2B0ED8FB79203B14
:102D1000FB710B4B1A68FB7922FA03F3DBB203F069
:102D20000103DAB23B681A7001E00123FB73FB7BFD
:102D300018461437BD4680BC704700BF00E300E072
:102D400004E300E080B485B000AF0346FB710B469E
:102D5000BB7113467B71124B124A1A600223FB733C
:102D600097F90730002B16DB97F90730002B12DBA1
:102D7000BA79FB7B02FA03F35AB297F90530134391
:102D80005BB2DAB297F9073003F1604303F56443AD
:102D90001201D2B21A7000BF1437BD4680BC704712
:102DA0000CED00E00005FA0580B400AF044A13689A
:102DB0006FF38203136000BFBD4680BC704700BF45
:102DC00010E000E080B584B000AF78607B6841F22D
:102DD000941202FB03F3FB600C4B00221A600C4AB6
:102DE000FB6813600B4A136843F00103136000BFD4
:102DF000084B1B68C3F30043DBB2002BF8D000F094
:102E000069F800BF1037BD4680BD00BF18E000E084
:102E100014E000E010E000E080B485B000AF78601E
:102E200039600123FB733B68002B02D10223FB7343
:102E300011E00023FB730B4A3B6813600A4A7B686E
:102E400013600A4A136843F002031360074A1368C9
:102E500043F001031360FB7B18461437BD4680BC6A
:102E6000704700BF1C00002014E000E010E000E00C
:102E700080B485B000AF786039600123FB733B6894
:102E8000002B02D10223FB7315E00023FB730D4AD4
:102E90003B6813600C4A7B68013B13600B4B0022BC
:102EA0001A600B4A136843F002031360084A136860
:102EB00043F001031360FB7B18461437BD4680BC0A
:102EC000704700BF1C00002014E000E018E000E0A4
:102ED00010E000E080B400AF044A13686FF3000311
:102EE000136000BFBD4680BC704700BF10E000E02B
:102EF00080B400AF044B1A68044B1B68D31A184601
:102F0000BD4680BC704700BF14E000E018E000E060
:102F100080B400AF024B1B681846BD4680BC7047AA
:102F200018E000E080B500AF024B1B68984700BF77
:102F300080BD00BF1C00002080B485B000AF0346F8
:102F4000FB710B46BB7113467B710023FB73FB794E
:102F5000022B02D90123FB73B4E0BB790F2B02D9FA
:102F60000223FB73AEE0BB79072B52D8FB79022B0F
:102F700037D0022B00F3A680002B02D0012B18D0F3
:102F8000A0E0534B1B68BA7992000F2101FA02F2BC
:102F9000D24311464E4A0B4013604D4B1B68797962
:102FA000BA79920001FA02F21146494A0B431360C2
:102FB00088E0484B1B68BA7992000F2101FA02F2AF
:102FC000D2431146434A0B401360424B1B68797948
:102FD000BA79920001FA02F211463E4A0B4313609D
:102FE00070E03D4B1B68BA7992000F2101FA02F2A2
:102FF000D2431146384A0B401360374B1B6879792E
:10300000BA79920001FA02F21146334A0B43136077
:1030100058E0BB79072B54D9BB79083BBB71FB79CE
:10302000022B36D0022B4DDC002B02D0012B18D006
:1030300048E02A4B1B68BA7992000F2101FA02F28C
:10304000D2431146254A0B401360244B1B68797903
:10305000BA79920001FA02F21146204A0B4313603A
:1030600030E01F4B1B68BA7992000F2101FA02F27F
:10307000D24311461A4A0B401360194B1B687979E9
:10308000BA79920001FA02F21146154A0B43136015
:1030900018E0144B1B68BA7992000F2101FA02F272
:1030A000D24311460F4A0B4013600E4B1B687979CF
:1030B000BA79920001FA02F211460A4A0B431360F0
:1030C00000E000BFFB7B18461437BD4680BC70474C
:1030D00000080140000C01400010014004080140BC
:1030E000040C01400410014080B485B000AF0346D9
:1030F0003A60FB710B46BB710023FB73FB79022B1B
:1031000002D90123FB7333E0BB790F2B02D90223D1
:10311000FB732DE0FB79022B1ED0022B28DC002B49
:1031200002D0012B0CD023E0144B1A68BB7922FA91
:1031300003F3DBB203F00103DAB23B681A7017E065
:103140000F4B1A68BB7922FA03F3DBB203F00103D9
:10315000DAB23B681A700BE00A4B1A68BB7922FAA4
:1031600003F3DBB203F00103DAB23B681A7000BF6D
:10317000FB7B18461437BD4680BC704708080140E9
:10318000080C01400810014080B485B000AF034630
:103190003960FB710023FB73FB79022B02D90123F9
:1031A000FB731BE0FB79022B12D0022B16DC002BE9
:1031B00002D0012B06D011E00B4B1B689AB23B6882
:1031C0001A800BE0094B1B689AB23B681A8005E035
:1031D000074B1B689AB23B681A8000BFFB7B1846FE
:1031E0001437BD4680BC704708080140080C0140F8
:1031F0000810014080B485B000AF0346FB710B4658
:10320000BB7113467B710023FB73FB79022B02D940
:103210000123FB7344E0BB790F2B02D90223FB731C
:103220003EE07B79012B1BD1FB79022B12D0022BC4
:1032300036DC002B02D0012B06D031E0BB79012215
:103240009A401A4B1A602BE0BB7901229A40184B26
:103250001A6025E0BB7901229A40164B1A601FE0E4
:103260007B79002B1BD1FB79022B12D0022B17DCB0
:10327000002B02D0012B06D012E0BB7901229A402C
:103280000D4B1A600CE0BB7901229A400B4B1A607F
:1032900006E0BB7901229A40094B1A6000E000BFAA
:1032A000FB7B18461437BD4680BC704710080140B0
:1032B000100C01401010014014080140140C014092
:1032C0001410014080B485B000AF03460A46FB717C
:1032D0001346BB800023FB73FB79012B02D901232A
:1032E000FB7312E0FB79022B0ED0022B0DDC002BBE
:1032F00002D0012B04D008E0074ABB88136004E029
:10330000064ABB88136000E000BFFB7B18461437F9
:10331000BD4680BC704700BF0C0801400C0C01404A
:1033200080B483B000AF0346FB71074B1B68FA798A
:10333000012101FA02F21146034A0B43136000BF58
:103340000C37BD4680BC70470004014080B483B098
:1033500000AF0346FB71084B1B68FA79012101FAA3
:1033600002F2D2431146044A0B40136000BF0C37EF
:10337000BD4680BC704700BF0004014080B485B0EA
:1033800000AF0346FB710B46BB7113467B710023F4
:10339000FB737B79012B37D1BB79022B1CD0022B1D
:1033A0002FDC002B02D0012B0BD02AE0394B9B687D
:1033B000FA79012101FA02F21146364A0B43936071
:1033C00062E0344BDB68FA79012101FA02F211461E
:1033D000304A0B43D36057E02E4B9B68FA790121AA
:1033E00001FA02F211462B4A0B439360294BDB682A
:1033F000FA79012101FA02F21146264A0B43D36001
:1034000042E00123FB733FE07B79002B3BD1BB798A
:10341000022B1ED0022B33DC002B02D0012B0CD050
:103420002EE01C4B9B68FA79012101FA02F2D2438B
:103430001146184A0B40936026E0164BDB68FA7978
:10344000012101FA02F2D2431146124A0B40D36025
:103450001AE0104B9B68FA79012101FA02F2D2437B
:1034600011460C4A0B4093600A4BDB68FA79012144
:1034700001FA02F2D2431146064A0B40D36003E040
:103480000123FB7300E000BFFB7B18461437BD46E9
:1034900080BC70470004014080B483B000AF034695
:1034A000FB71074B1B69FA79012101FA02F21146FF
:1034B000034A0B43136100BF0C37BD4680BC704705
:1034C0000004014080B483B000AF0346FB71074B9A
:1034D0005B69FA79012101FA02F21146034A0B43B2
:1034E000536100BF0C37BD4680BC704700040140EB
:1034F00080B485B000AF78600123FB737B68002B3C
:1035000002D10223FB7304E00023FB73044A7B68AF
:103510001360FB7B18461437BD4680BC704700BF64
:103520002000002080B485B000AF78600123FB73D9
:103530007B68002B02D10223FB7304E00023FB73A2
:10354000044A7B681360FB7B18461437BD4680BC79
:10355000704700BF2400002080B485B000AF7860C1
:103560000123FB737B68002B02D10223FB7304E071
:103570000023FB73044A7B681360FB7B18461437F7
:10358000BD4680BC704700BF2800002080B485B0D5
:1035900000AF78600123FB737B68002B02D102230C
:1035A000FB7304E00023FB73044A7B681360FB7B1E
:1035B00018461437BD4680BC704700BF2C00002061
:1035C00080B485B000AF78600123FB737B68002B6B
:1035D00002D10223FB7304E00023FB73044A7B68DF
:1035E0001360FB7B18461437BD4680BC704700BF94
:1035F0003000002080B500AF034B1B6898470020C7
:10360000FFF760FF00BF80BD2000002080B500AF45
:10361000034B1B6898470120FFF754FF00BF80BD94
:103620002400002080B500AF034B1B6898470220A0
:10363000FFF748FF00BF80BD2800002080B500AF25
:10364000034B1B6898470320FFF73CFF00BF80BD7A
:103650002C00002080B500AF034B1B689847042066
:10366000FFF730FF00BF80BD3000002080B483B082
:1036700000AF03460A46FB711346BB71FB79032B6F
:1036800017D83B4B9B68FA7992000F2101FA02F29E
:10369000D2431146364A0B409360354B9B68B9794B
:1036A000FA79920001FA02F21146314A0B43936013
:1036B00058E0FB79072B1AD8FB79043BFB712C4BA4
:1036C000DB68FA7992000F2101FA02F2D243114627
:1036D000274A0B40D360264BDB68B979FA79920010
:1036E00001FA02F21146224A0B43D3603AE0FB7919
:1036F0000B2B1AD8FB79083BFB711D4B1B69FA7920
:1037000092000F2101FA02F2D2431146184A0B40EF
:103710001361174B1B69B979FA79920001FA02F229
:103720001146134A0B4313611CE0FB790F2B19D888
:10373000FB790C3BFB710E4B5B69FA7992000F2110
:1037400001FA02F2D2431146094A0B405361084B79
:103750005B69B979FA79920001FA02F21146044ADA
:103760000B43536100BF0C37BD4680BC704700BFA0
:103770000000014080B483B000AF78600B467B80CE
:103780000E4B1B680D4A23F0010313600C4A7B8823
:1037900013600C4A7B6813600B4B0C4A1A60074B92
:1037A00042F292021A60054B1B68044A43F001037F
:1037B000136000BF0C37BD4680BC70475800024004
:1037C0005C00024064000240600002400C3800408F
:1037D00080B400AF224A13686FF3CB231360204AF2
:1037E00013686FF38A2313601D4A136843F4007350
:1037F00013601B4A136843F480731360184A1368FC
:103800006FF3C7131360164A1368022161F3C503EF
:103810001360134A136843F004031360104A1368DB
:103820006FF3410313600E4A136843F00103136002
:103830000B4A136843F0400313600A4A136843F0CD
:1038400080031360074A136843F040031360054A7E
:10385000136843F00203136000BFBD4680BC70478D
:10386000003800400438004080B485B000AF034603
:103870003A60FB710B46BB800123FB733B68002B56
:1038800002D10223FB7329E00023FB73FB79002B99
:1038900002D0012B11D021E0134ABB88136000BF76
:1038A000124B1B68C3F3C013DBB2012BF8D00E4BD5
:1038B0001B689AB23B681A8010E00D4ABB881360FF
:1038C00000BF0C4B1B68C3F3C013DBB2012BF8D055
:1038D000074B1B689AB23B681A8000BFFB7B1846F7
:1038E0001437BD4680BC70470C30014008300140A1
:1038F0000C3800400838004080B483B000AF034665
:103900003A60FB710B46BB80FB79002B02D0012B88
:1039100007D00DE0094A3B681360094ABB88136071
:1039200006E0084A3B681360074ABB88136000BF83
:1039300000BF18460C37BD4680BC704734000020DD
:103940000C300140380000200C38004080B500AF3A
:10395000064B1B68002B06D0044B1B68044A1268F8
:1039600092B21046984700BF80BD00BF34000020CF
:103970000C30014080B500AF064B1B68002B06D011
:10398000044B1B68044A126892B21046984700BF65
:1039900080BD00BF380000200C38004080B586B0E4
:1039A00000AF03463960FB713B68002B07DAFB79F7
:1039B0002D21184600F07CF93B685B423B603B6878
:1039C000002B05D1FB793021184600F071F937E062
:1039D0000023FB751DE03A681B4B83FB0213991013
:1039E000D317C91A0B469B000B445B00D11ACAB20D
:1039F000FB7D591CF9753032D2B218333B4403F8C1
:103A00000C2C3B68104A82FB03129210DB17D31A6E
:103A10003B603B68002BDEDCFB7DBB750DE0BB7DB6
:103A2000013B18333B4413F80C2CFB791146184624
:103A300000F03EF9BB7D013BBB75BB7D002BEED199
:103A40001837BD4680BD00BF6766666680B48DB01E
:103A500000AFF4237B617B698B4AA2FB03235B09E4
:103A6000FB62FB6A642202FB03F37A69D31A3B61AF
:103A70003B691B013233844AA2FB03235B09BB620F
:103A8000BB6A0F2B04D9FB6A0133FB620023BB62C4
:103A90007E4AFB6AC3F30B0399B2136861F30F13F9
:103AA00013607A4ABB6A03F00F03D9B2136861F35B
:103AB00003031360764A13686FF30C331360744A80
:103AC00013686FF38A231360714A13686FF3C71387
:103AD00013606F4A13686FF3861313606C4A1368A0
:103AE0006FF3451313606B4A13686FF3CC231360B5
:103AF000674A136843F008031360654A136843F08C
:103B000004031360624A136843F400531360F42300
:103B1000FB60FB685C4AA2FB03235B097B627B6A58
:103B2000642202FB03F3FA68D31ABB60BB681B0173
:103B30003233554AA2FB03235B093B623B6A0F2BDE
:103B400004D97B6A01337B6200233B62524A7B6A61
:103B5000C3F30B0399B2136861F30F1313604E4A5A
:103B60003B6A03F00F03D9B2136861F303031360D8
:103B70004A4A13686FF30C331360484A13686FF3B3
:103B80008A231360454A13686FF3C7131360434ACF
:103B900013686FF386131360404A13686FF345137D
:103BA00013603F4A13686FF3CC2313603B4A1368DA
:103BB00043F008031360394A136843F004031360A9
:103BC000364A136843F400531360F4237B607B6828
:103BD0002D4AA2FB03235B09FB61FB69642202FB04
:103BE00003F37A68D31A3B603B681B013233264AE1
:103BF000A2FB03235B09BB61BB690F2B04D9FB69E3
:103C00000133FB610023BB61264AFB69C3F30B034D
:103C100099B2136861F30F131360224ABB6903F072
:103C20000F03D9B2136861F3030313601E4A1368CC
:103C30006FF30C3313601C4A13686FF38A2313600D
:103C4000194A13686FF3C7131360174A13686FF3A9
:103C500086131360154A13686FF3CC231360124A5E
:103C6000136843F0080313600F4A136843F004031A
:103C700013600D4A136843F40053136000BF3437D8
:103C8000BD4680BC704700BF1F85EB51083801401E
:103C90000C38014010380140084400400C440040FA
:103CA00010440040084800400C48004010480040C4
:103CB00080B483B000AF03460A46FB711346BB7164
:103CC000FB79022B2ED0022B40DC002B02D0012BE3
:103CD00014D03BE000BF204B1B68C3F3C013DBB222
:103CE000012BF8D11D4ABB79136000BF1A4B1B682A
:103CF000C3F38013DBB2012BF8D127E000BF184BD0
:103D00001B68C3F3C013DBB2012BF8D1154ABB7992
:103D1000136000BF124B1B68C3F38013DBB2012B8F
:103D2000F8D113E000BF104B1B68C3F3C013DBB224
:103D3000012BF8D10D4ABB79136000BF0A4B1B68F9
:103D4000C3F38013DBB2012BF8D100BF00BF0C37E7
:103D5000BD4680BC704700BF0038014004380140B8
:103D60000044004004440040004800400448004033
:103D700080B485B000AF03463960FB710023FB605F
:103D80000023FB723B68002B01D10223FB72FB79FD
:103D9000002B1BD102E0FB680133FB602D4B1B683D
:103DA000C3F34013DBB2002B03D1FB682A4A9342D2
:103DB000F1D9FB68294A934202D10323FB7242E006
:103DC000274B1B68DAB23B681A703CE0FB79012B89
:103DD0001BD102E0FB680133FB60224B1B68C3F37D
:103DE0004013DBB2002B03D1FB681B4A9342F1D98D
:103DF000FB681A4A934202D10323FB7223E01A4B59
:103E00001B68DAB23B681A701DE0FB79022B1AD1ED
:103E100002E0FB680133FB60144B1B68C3F34013E3
:103E2000DBB2002B03D1FB680B4A9342F1D9FB684C
:103E30000A4A934202D10323FB7204E00C4B1B6835
:103E4000DAB23B681A70FB7A18461437BD4680BC5C
:103E5000704700BF003801409F860100A086010026
:103E60000438014000440040044400400048004041
:103E70000448004080B584B000AF03463960FB7150
:103E80000023FB730023BB733B68002B0ED102237E
:103E9000FB7311E0BB7B3A6813441A78FB79114637
:103EA0001846FFF705FFBB7B0133BB73BB7B3A684A
:103EB00013441B78002BEDD1FB7B18461037BD4611
:103EC00080BD80B584B000AF03463960FB711346F6
:103ED000BB710023FB731AE007F10E02FB79114658
:103EE0001846FFF745FFBB7B0A2B02D0BB7B0D2B8F
:103EF00005D1FB7B3A68134400221A700DE0FB7B6E
:103F00005A1CFA731A463B681344BA7B1A70FA7B40
:103F1000BB79013B9A42DFDB00BF00BF1037BD46D3
:103F200080BD80B487B000AFF860B9601346FB7104
:103F30000023FB750EE0FB7DFA6813441A78FB7DC5
:103F4000B9680B441B789A4201D0002307E0FB7D3F
:103F50000133FB75FA7DFB799A42ECD301231846B5
:103F60001C37BD4680BC704780B500AF024B1B6854
:103F7000984700BF80BD00BF3C00002080B500AF67
:103F8000024B1B68984700BF80BD00BF4000002067
:103F900080B500AF024B1B68984700BF80BD00BFD3
:103FA0004400002080B582B000AF0523FB7106E01D
:103FB000FB79184600F00BF8FB790133FB71FB79B4
:103FC0003F2BF5D900BF00BF0837BD4680BD80B488
:103FD00083B000AF0346FB7100BF1E4BDB6803F0EC
:103FE0000103012BF9D01B4B1B69DB0903F0010313
:103FF000012B05D1174B184A5A60164B174A5A60C5
:10400000144B1B69134A43F002031361FB799B02B3
:10401000104A03F1006353610E4B1B690D4A43F0D4
:104020004003136100BF0B4BDB6803F00103012B5E
:10403000F9D0084BDB68074A43F02003D360054BF7
:104040001B69044A23F00203136100BF0C37BD460D
:1040500080BC70470020024023016745AB89EFCD4B
:1040600080B487B000AFF860B9601346FB7100BF41
:10407000254BDB6803F00103012BF9D0224B1B69B0
:10408000DB0903F00103012B05D11F4B1F4A5A60C6
:104090001D4B1F4A5A600023FB752BE01A4B1B690E
:1040A000194A43F001031361FB7D5B00BA681344B6
:1040B0001B88BB82FB7D5B00BA681A44FB681288D0
:1040C0001A80FB680233FB6000BF0F4BDB6803F014
:1040D0000103012BF9D00C4BDB680B4A43F02003A2
:1040E000D360094B1B69084A23F001031361FB7D70
:1040F0000133FB75FA7DFB799A42CFD300BF00BF35
:104100001C37BD4680BC7047002002402301674534
:10411000AB89EFCD80B400AF054B1B68044A23F098
:104120000403136030BF00BFBD4680BC704700BFB2
:1041300010ED00E080B400AF0B4B1B680A4A43F05F
:1041400080531360094B1B68084A43F00103136056
:10415000074B1B68064A43F00403136030BF00BFDF
:10416000BD4680BC704700BF1C100240007000407C
:1041700010ED00E080B400AF0E4B1B680D4A43F019
:10418000805313600C4B1B680B4A43F0040313600D
:10419000094B1B68084A43F002031360074B1B6876
:1041A000064A43F00403136030BF00BFBD4680BC25
:1041B000704700BF1C1002400070004010ED00E08E
:1041C00080B400AF064B1B6803F00103002B14BF43
:1041D00001230023DBB21846BD4680BC704700BFF8
:1041E0000470004080B485B000AFF8607A603B6036
:1041F0000B46FB72FB7A5A1E13469B0013449B002E
:104200001A46FB68134408331968FB7A5A1E134692
:104210009B0013449B001A46FB68134408331A465C
:1042200021F001031360FB7A5A1E13469B001344CE
:104230009B001A46FB68134410331A467B681360D0
:10424000FB7A5A1E13469B0013449B001A46FB68D8
:10425000134414331A463B681360FB7A5A1E134604
:104260009B0013449B001A46FB6813440C331A4608
:10427000BB691360FB7A5A1E13469B0013449B00D4
:104280001A46FB68134408331A4642F2C20313600D
:10429000FB7A5A1E13469B0013449B001A46FB6888
:1042A000134408331968FB7A5A1E13469B001344C3
:1042B0009B001A46FB68134408331A4641F0010379
:1042C000136000BF1437BD4680BC704780B400AF98
:1042D0000E4B1B680D4A43F4AA4343F05503136089
:1042E0000B4B00221A6000BF0A4B1B6803F001034E
:1042F000002BF9D0054B1B68044A43F44C4343F0B0
:10430000CC03136000BFBD4680BC70470030004046
:10431000043000400C30004080B400AF054B1B68F7
:10432000044A43F42A4343F0AA03136000BFBD4686
:1043300080BC70470030004080B582B000AF0346BB
:10434000FB71FB79013B032B76D801A252F823F0D5
:104350006143000897430008CD4300080344000868
:104360000B210220FEF73CFB354B47221A80354BD0
:1043700040F2E7321A80344B1B889BB2324A43F03A
:1043800001039BB213801920FEF706FC03461A4670
:104390002E4B1A7050E000210120FEF721FB2C4B20
:1043A00047221A802B4B40F2E7321A802A4B1B8897
:1043B0009BB2294A43F001039BB213801C20FEF7F5
:1043C000EBFB03461A46214B1A7035E00121012010
:1043D000FEF706FB214B47221A80214B40F2E732C1
:1043E0001A80204B1B889BB21E4A43F001039BB2EC
:1043F00013801D20FEF7D0FB03461A46134B1A709C
:104400001AE002210120FEF7EBFA174B23221A8053
:10441000164B40F2E7321A80154B1B889BB2144AA8
:1044200043F001039BB213801E20FEF7B5FB034649
:104430001A46064B1A7000BF00BF0837BD4680BD44
:10444000282C01402C2C01400C2C014000000020A5
:10445000280000402C0000400C00004028040040D0
:104460002C0400400C040040280800402C080040A8
:104470000C08004080B483B000AF0346FB71FB79A9
:10448000013B032B30D801A252F823F09D440008D1
:10449000AF440008C5440008D7440008154B1B88EA
:1044A0009BB2144A43F001039BB213801CE04FF00F
:1044B00080431B889BB24FF0804243F001039BB2C4
:1044C000138011E00C4B1B889BB20B4A43F0010395
:1044D0009BB2138008E0094B1B889BB2074A43F04C
:1044E00001039BB2138000BF00BF0C37BD4680BCE8
:1044F000704700BF002C014000040040000800404D
:1045000080B483B000AF0346FB71FB79013B032B02
:1045100030D801A252F823F0294500083B45000895
:104520005145000863450008154B1B889BB2144A8F
:1045300023F001039BB213801CE04FF080431B88E3
:104540009BB24FF0804223F001039BB2138011E035
:104550000C4B1B889BB20B4A23F001039BB21380C8
:1045600008E0094B1B889BB2074A23F001039BB26A
:10457000138000BF00BF0C37BD4680BC704700BF32
:10458000002C0140000400400008004080B483B0CB
:1045900000AF03463960FB71FB79013B032B1BD84D
:1045A00001A252F823F000BFB9450008C145000838
:1045B000C9450008D14500080A4A3B6813600BE072
:1045C000094A3B68136007E0084A3B68136003E050
:1045D000074A3B68136000BF00BF0C37BD4680BC74
:1045E000704700BF480000204C0000205000002011
:1045F0005400002080B500AF0B4B1B889BB203F02A
:104600000103002B0ED0084B1B889BB2064A23F0F7
:1046100001039BB21380054B1B68002B02D0034B98
:104620001B68984700BF80BD102C01404800002047
:1046300080B500AF0B4B1B889BB203F00103002B2E
:104640000ED0084B1B889BB2064A23F001039BB295
:104650001380054B1B68002B02D0034B1B68984747
:1046600000BF80BD100000404C00002080B500AFAE
:104670000B4B1B889BB203F00103002B0ED0084BA1
:104680001B889BB2064A23F001039BB21380054BA3
:104690001B68002B02D0034B1B68984700BF80BDEE
:1046A000100400405000002080B500AF0E4B1B8866
:1046B0009BB203F00103002B13D00B4B1B889BB262
:1046C000094A23F001039BB21380084B1B68013396
:1046D000064A1360064B1B68002B02D0044B1B6874
:1046E000984700BF80BD00BF100800405800002060
:1046F0005400002080B483B000AF0346FB71FB7907
:10470000002B01D1034B00E0034B18460C37BD468C
:1047100080BC7047005400400058004080B586B00F
:1047200000AF03463960FB71FB791846FFF7E2FFE3
:1047300038613B691A683B6922F001021A60534BE9
:10474000FB60FB68524AA2FB03239B0CBB603B69E6
:1047500004331B6823F03F02BB6803F03F03396951
:10476000043113430B600023FB823B681B68494AFA
:1047700093421FD83B691C331B683A691C3223F4EF
:10478000004313603B681B685B00FA68B2FBF3F3FD
:10479000FB82FB8A032B01D80423FB823B691C3379
:1047A0001A46FB8A13603B6920331A46BB68013303
:1047B00013603FE03B681B68374A93423AD83B6935
:1047C0001C331B683A691C3243F4004313603B6995
:1047D0001C331B683A691C3223F4804313603B6826
:1047E0001A6813465B001344FA68B2FBF3F3FB82CA
:1047F000FB8A002B01D10123FB823B691C331B6820
:1048000023F47F6323F00F03FA8AC2F30B023969A2
:104810001C3113430B60BB684FF4967202FB03F329
:104820001E4AA2FB03239B099BB201339AB23B6948
:1048300020331A603B681B795B0019463B690833DB
:104840001A46CBB213603B6908331B683A690832D9
:1048500043F4804313603B685B79002B06D03B69CF
:104860001A683B6942F480621A6005E03B691A6885
:104870003B6922F480621A603B691A683B6942F026
:1048800001021A6000BF1837BD4680BD00512502E5
:1048900083DE1B43A0860100801A0600D34D621000
:1048A00080B584B000AF0346FB71FB791846FFF773
:1048B00021FFF860FB681A68FB6822F001021A60A9
:1048C00000BF1037BD4680BD80B584B000AF034641
:1048D000FB71FB791846FFF70DFFB8600E4BFB60CC
:1048E000BB681A68BB6842F480721A6007E0FB6814
:1048F000013BFB60FB68002B01D1032307E0BB6891
:1049000014331B6803F00103002BF0D0002318467A
:104910001037BD4680BD00BF7011010080B584B066
:1049200000AF0346FB710B46BB7113467B71FB79ED
:104930001846FFF7DFFEB860124BFB60BB795A00E8
:104940007B7903F001031A43BB6810331A6007E058
:10495000FB68013BFB60FB68002B01D103230DE0EA
:10496000BB6814331B6803F00203002BF0D0BB6854
:1049700014331B68BB6818331B68002318461037B4
:10498000BD4680BD7011010080B584B000AF034604
:104990000A46FB711346BB71FB791846FFF7AAFE66
:1049A000B8600E4BFB60BB6810331A46BB791360CE
:1049B00007E0FB68013BFB60FB68002B01D1032390
:1049C00007E0BB6814331B6803F08003002BF0D0B2
:1049D000002318461037BD4680BD00BF701101008E
:1049E00080B584B000AF03463960FB711346BB71DC
:1049F000FB791846FFF77EFEB860164BFB60BB796B
:104A0000002B06D0BB681A68BB6842F480621A604B
:104A10000EE0BB681A68BB6822F480621A6007E087
:104A2000FB68013BFB60FB68002B01D103230DE019
:104A3000BB6814331B6803F04003002BF0D0BB6845
:104A400010331B68DAB23B681A700023184610371F
:104A5000BD4680BD7011010080B584B000AF034633
:104A6000FB71FB791846FFF745FEF860FB681A6892
:104A7000FB6842F400721A60002318461037BD46E6
:104A800080BD80B586B000AF3A601A460346FB7120
:104A90000B46BB711346BB80FB791846FFF72AFE15
:104AA000F860FB791846FFF70FFF0346FB72FB7AAD
:104AB000002B01D0FB7A41E0B979FB79002218463E
:104AC000FFF72CFF0346FB72FB7A002B01D0FB7A29
:104AD00034E00023FB8212E0FB8A3A6813441A7820
:104AE000FB7911461846FFF74FFF0346FB72FB7A2E
:104AF000002B01D0FB7A21E0FB8A0133FB82FA8A8A
:104B0000BB889A42E8D30F4B3B6107E03B69013B0E
:104B10003B613B69002B01D103230FE0FB68143399
:104B20001B6803F00403002BF0D097F82030002B13
:104B300003D1FB791846FFF78FFF0023184618377B
:104B4000BD4680BD7011010080B483B000AF7860B5
:104B50007B6814331B68DBB218460C37BD4680BC3B
:104B6000704780B586B000AF3A601A460346FB71C5
:104B70000B46BB711346BB80FB791846FFF7BAFDA5
:104B80003861FB791846FFF79FFE0346FB73FB7BFA
:104B9000002B01D0FB7B37E0B979FB790122184665
:104BA000FFF7BCFE0346FB73FB7B002B01D0FB7BB6
:104BB0002AE00023FB821AE0FA8ABB88013B9A4272
:104BC000B4BF01230023DBB2BB73FB8A3A68D11860
:104BD000BA7BFB791846FFF703FF0346FB73FB7BA9
:104BE000002B01D0FB7B0FE0FB8A0133FB82FA8AAA
:104BF000BB889A42E0D397F82030002B03D1FB7991
:104C00001846FFF729FF002318461837BD4680BD18
:104C100080B487B000AF78604FF47A63FB60002304
:104C20007B610BE000233B6102E03B6901333B61A8
:104C30003B69312BF9D97B6901337B617A697B68E8
:104C40009A42EFD300BF00BF1C37BD4680BC7047FF
:104C500080B582B000AF0346FB7100220021012025
:104C6000FEF7C8FA002201210120FEF7C3FAFB7902
:104C70009BB219460020FEF725FB01220C210120E2
:104C8000FEF7B8FA0220FFF7C3FF00220C21012033
:104C9000FEF7B0FA00BF0837BD4680BD80B500AF53
:104CA0002320FFF7B5FF3820FFF7D2FF0C20FFF7D6
:104CB000CFFF0120FFF7CCFF00BF80BD80B582B0E1
:104CC00000AF0346FB71012200210120FEF792FA9A
:104CD000002201210120FEF78DFAFB799BB21946D3
:104CE0000020FEF7EFFA01220C210120FEF782FAE4
:104CF0000220FFF78DFF00220C210120FEF77AFA37
:104D000000BF0837BD4680BD80B584B000AF786075
:104D10000023FB7309E0FB7B7A6813441B78184679
:104D2000FFF7CCFFFB7B0133FB73FB7B7A681344FB
:104D30001B78002BEFD100BF00BF1037BD4680BDF0
:104D400080B584B000AF03460A46FB711346BB71C1
:104D5000FB79002B02D1BB79FB7305E0FB79012BBA
:104D600002D1BB794033FB73FB7B63F07F03DBB283
:104D70001846FFF76DFF00BF1037BD4680BD80B5F8
:104D800086B000AF78607B68002B05DA2D20FFF736
:104D900095FF7B685B427B607B68002B03D13020F2
:104DA000FFF78CFF35E00023FB751DE07A681A4B96
:104DB00083FB02139910D317C91A0B469B000B44AF
:104DC0005B00D11ACAB2FB7D591CF9753032D2B2E0
:104DD00018333B4403F80C2C7B680F4A82FB031208
:104DE0009210DB17D31A7B607B68002BDEDCFB7D27
:104DF000BB750BE0BB7D013B18333B4413F80C3C07
:104E00001846FFF75BFFBB7D013BBB75BB7D002BED
:104E1000F0D11837BD4680BD6766666680B584B040
:104E200000AF7860084611461A460346FB700B46F1
:104E3000BB7013467B700023BB73FB78DB00BB7336
:104E4000BB7B43F04003DBB21846FFF701FF0023B2
:104E5000FB7309E0FB7B7A6813441B781846FFF765
:104E60002DFFFB7B0133FB73FB7B072BF2D97A7899
:104E7000BB7811461846FFF763FFFB781846FFF72B
:104E80001DFF00BF1037BD4680BD00BF90B587B085
:104E900002AF0446084611461A462346FB710346F4
:104EA000BB710B467B7113463B71BB7903F0030367
:104EB000DBB25033FB737B793B733B797B7307F138
:104EC0000C02F97BF879002300930223FFF7D9FD48
:104ED0000023BB6002E0BB680133BB60BB684CF2DF
:104EE0004F329342F7D900BF00BF1437BD4690BD83
:104EF00080B586B002AF3B600346FB710B46BB71C9
:104F000013467B71BB7903F00303DBB25033FB73B1
:104F10007A1DF97BF879012300930123FFF7B1FD96
:104F2000F97BF8790023009301233A68FFF719FE13
:104F300000BF1037BD4680BD80B483B000AF074BC3
:104F40001B687B60064B1B68044A1360044A7B683D
:104F5000136000BF0C37BD4680BC704704000020C2
:104F60000800002080B586B002AF03460A46FB71F8
:104F70001346BB7100233B73BB797B7307F10C02B3
:104F8000F8790023009302233C21FFF77AFD00BF4C
:104F90001037BD4680BD80B586B002AF03460A46D5
:104FA000FB711346BB7140233B73BB797B7307F1E5
:104FB0000C02F8790023009302233C21FFF761FDE6
:104FC00000BF1037BD4680BD80B584B000AF03463A
:104FD000FB710023FB6002E0FB680133FB60FB68B0
:104FE0003F4A9342F8D9FB79AE211846FFF7BAFF42
:104FF000FB79D5211846FFF7B5FFFB7980211846CC
:10500000FFF7B0FFFB79A8211846FFF7ABFFFB794C
:105010003F211846FFF7A6FFFB79D3211846FFF77B
:10502000A1FFFB7900211846FFF79CFFFB79402187
:105030001846FFF797FFFB79AD211846FFF792FF5F
:10504000FB798B211846FFF78DFFFB79A1211846CC
:10505000FFF788FFFB79C8211846FFF783FFFB792C
:10506000DA211846FFF77EFFFB7912211846FFF779
:1050700079FFFB7981211846FFF774FFFB798021C6
:105080001846FFF76FFFFB79D9211846FFF76AFF33
:10509000FB791F211846FFF765FFFB79DB211846D6
:1050A000FFF760FFFB7940211846FFF75BFFFB79B4
:1050B000A4211846FFF756FFFB79A6211846FFF7F3
:1050C00051FF00F00FF8FB79184600F079F8FB79F2
:1050D000AF211846FFF746FF00BF1037BD4680BD21
:1050E0009F86010080B483B000AF0023FB8008E0FE
:1050F000094B1A68FB88134400221A70FB8801339D
:10510000FB80FB88B3F5806FF2D300BF00BF0C3784
:10511000BD4680BC704700BF0400002080B485B04D
:1051200000AF0346FB710B46BB7113467B7197F9C9
:105130000730002B3DDBBB793F2B3AD8FB799AB285
:10514000BB79DB08DBB29BB2DB019BB21344FB8172
:105150007B79012B15D1194B1A68FB8913441B78F5
:105160005AB2BB7903F00703012101FA03F35BB2E2
:10517000134359B2114B1A68FB891344CAB21A700F
:1051800018E00E4B1A68FB8913441B785AB2BB799E
:1051900003F00703012101FA03F35BB2DB435BB2C7
:1051A000134059B2054B1A68FB891344CAB21A70EE
:1051B00000E000BF1437BD4680BC704704000020EB
:1051C00080B5A6B002AF0346FB71002387F88F308D
:1051D00040E097F88F30503BDAB2FB791146184621
:1051E000FFF7C0FEFB7902211846FFF7BBFEFB79F3
:1051F00010211846FFF7B6FE40233B73002387F8C3
:105200008E3015E0184B1B6897F88F20D10197F866
:105210008E200A441A4497F88E3001331278903366
:105220003B4403F8842C97F88E30013387F88E3096
:1052300097F98E30002BE5DA07F10C02F87900239C
:10524000009381233C21FFF71CFC97F88F3001333A
:1052500087F88F3097F88F30072BBAD900BF00BF7F
:105260009037BD4680BD00BF0800002080B500AF6C
:10527000FDF79AFD034941F29410FDF7F9FD00BFD7
:1052800080BD00BF0D53000880B483B000AF03465B
:105290003A60FB710B46BB80FB79032B01D90123DC
:1052A0002CE03B68002B01D1022327E0FA79164954
:1052B00013465B0013449B000B44BA881A80FA79AA
:1052C000114913465B0013449B000B440233012237
:1052D0001A80FA790C4913465B0013449B000B4477
:1052E00008333A681A60FA79074913465B00134499
:1052F0009B000B44043300221A70002318460C371D
:10530000BD4680BC704700BF6008002080B582B0F9
:1053100000AF0023BB710023FB7155E0FA792E49E1
:1053200013465B0013449B000B4404331B78002B93
:1053300047D1FA79284913465B0013449B000B447C
:1053400002331B88013B98B2234913465B00134488
:105350009B000B44023302461A80FA791E49134619
:105360005B0013449B000B4402331B88002B28D1A5
:10537000F979FA7918480B465B000B449B0003440B
:105380001888154913465B0013449B000B440233F5
:1053900002461A80FA79104913465B0013449B00B9
:1053A0000B4408331B68002B0BD0FA790A491346CB
:1053B0005B0013449B000B4408331B689847012390
:1053C000BB71FB790133FB71FB79032BA6D900BFBD
:1053D00000BF0837BD4680BD6008002080B483B0A0
:1053E00000AF0346FB71FB79032B01D9012334E0A5
:1053F000FA791C4913465B0013449B000B440833A5
:105400001B68002B01D1022327E0FA7915491346C6
:105410005B0013449B000B44083300221A60FA79A6
:10542000104913465B0013449B000B4404330322D2
:105430001A70FA790B4913465B0013449B000B4426
:1054400000221A80FA79074913465B0013449B0037
:105450000B44023300221A80002318460C37BD4645
:1054600080BC70476008002080B483B000AF034662
:10547000FB71FA79064913465B0013449B000B4409
:10548000043301221A7000BF0C37BD4680BC704740
:105490006008002080B483B000AF0346FB71FA7946
:1054A000064913465B0013449B000B44043300225F
:1054B0001A7000BF0C37BD4680BC704760080020E2
:1054C00080B483B000AF0346FB71FA7906491346F6
:1054D0005B0013449B000B44043302221A7000BF8C
:1054E0000C37BD4680BC70476008002080B400AF18
:1054F00000BFBD4680BC704780B586B000AF0023BA
:105500007B6000237B6100233B611C4A1C4BD31A48
:105510009B107B601B4B7B61194B3B610023FB6045
:105520000AE07A69131D7B613B69191D39611268B4
:105530001A60FB680133FB60FA687B689A42F0D31B
:10554000114A124BD31A9B107B60104B3B61002316
:10555000BB6007E03B691A1D3A6100221A60BB6814
:105560000133BB60BA687B689A42F3D3FFF7BEFF92
:1055700000F0E8F900BF1837BD4680BD1C000020D0
:1055800000000020B85A0008940800201C000020E9
:1055900080B400AF00BFBD4680BC704790B585B0F9
:1055A00000AF0446084611461A462346FB710346DF
:1055B000BB710B467B7113463B710023FB731BE0F1
:1055C000FA79FB7B1344DBB297F82020B9791846AF
:1055D000FFF7A4FDFA79FB7B1344D8B2BA793B7983
:1055E0001344DBB2013BDBB297F820201946FFF7EA
:1055F00095FDFB7B0133FB73FA7B7B799A42DFD30A
:105600000023BB731BE0BA79BB7B1344D9B297F874
:105610002020FB791846FFF781FDFA797B79134446
:10562000DBB2013BD8B2BA79BB7B1344DBB297F84B
:1056300020201946FFF772FDBB7B0133BB73BA7B99
:105640003B799A42DFD300BF00BF1437BD4690BDFF
:1056500090B585B000AF0446084611461A46234669
:10566000FB710346BB710B467B7113463B710023F4
:10567000FB7319E00023BB730FE0FA79FB7B134443
:10568000D8B2BA79BB7B1344DBB297F82020194615
:10569000FFF744FDBB7B0133BB73BA7B3B799A4276
:1056A000EBD3FB7B0133FB73FA7B7B799A42E1D32B
:1056B00000BF00BF1437BD4690BD80B586B000AFB7
:1056C00003460A46FB711346BB71234A07F10C03DC
:1056D00092E8030083E803000023FB7533E0002316
:1056E000BB752AE0FB7D18333B4413F80C3C1A468B
:1056F000BB7DC3F1070342FA03F303F00103002B60
:105700000CD0FA79BB7D1344D8B2BA79FB7D13442F
:10571000DBB201221946FFF701FD0BE0FA79BB7DF0
:105720001344D8B2BA79FB7D1344DBB20022194688
:10573000FFF7F4FCBB7D0133BB75BB7D072BD1D9D3
:10574000FB7D0133FB75FB7D072BC8D900BF00BF74
:105750001837BD4680BD00BFB05A000880B582B082
:1057600000AF0023FB7117E0264BB3F90030BB718B
:1057700008E0F979BB7901221846FFF7CFFCBB7925
:105780000133BB711F4BB3F900301A1DBB799A422C
:10579000EFDAFB790133FB71FB79132BE4D9282372
:1057A0007B7117E0174BB3F900303B7108E0797952
:1057B0003B7901221846FFF7B1FC3B7901333B717D
:1057C000104BB3F900301A1D3B799A42EFDA7B791E
:1057D00001337B717B793F2BE4D90A4BB3F900305D
:1057E0009BB2023B9BB21AB2064B1A80054BB3F92F
:1057F0000030002B02DA034B76221A8000BF0837F4
:10580000BD4680BD0C00002080B483B000AF0346CD
:10581000FB7100BF0C37BD4680BC704780B500AF40
:10582000FFF760FC204B1B78012B31D1FFF796FF6F
:105830001E4BB3F900309BB201339BB21AB21B4B23
:105840001A801B4BB3F900309AB2184BB3F90030F1
:105850009BB213449BB21AB2154B1A80144BB3F986
:1058600000303C2B03DD124B3C221A8007E0104B2A
:10587000B3F90030002B02DC0D4B01221A800C4BD7
:10588000B3F90030DBB219460520FFF716FF03E03D
:105890001E210A20FFF711FFFFF74EFB0020FFF744
:1058A0008FFC00BF80BD00BF920800209008002040
:1058B0000E00002080B400AF074B1B78002B06D1F0
:1058C000064B01221A70064B4FF6FD721A8000BF7C
:1058D000BD4680BC704700BF180000209208002021
:1058E0009008002080B500AF034A05210120FDF794
:1058F000FBFB00BF80BD00BF1800002080B500AFDB
:105900000B4B1B7883F00103DAB2094B1A70084B7A
:105910001B781A460D210220FDF76CFC044B1B7806
:105920001A460F210120FDF765FC00BF80BD00BFB6
:105930009308002080B500AFFFF770FFFFF7BAFFB4
:1059400000BF80BD80B500AF00F01CF800F038F853
:10595000094A4FF4FA710220FFF796FC074A0A2120
:105960000120FFF791FC064A32210020FFF78CFC52
:10597000FFF77CFCFEE700BFFD580008E558000873
:105980003559000880B500AFFCF7D2FF0221022094
:10599000FDF726F803210220FDF722F8042102205A
:1059A000FDF71EF80E210220FDF71AF81221012042
:1059B000FDF716F815210120FDF712F800BF80BD94
:1059C00080B500AF0B2209210020FDF7B5FA0422B3
:1059D0000A210020FDF7B0FA0B220A210120FDF771
:1059E000ABFA04220B210120FDF7A6FA03220D21B8
:1059F0000220FDF7A1FA03220F210120FDF79CFAF6
:105A0000032200210020FDF797FA03220121002044
:105A1000FDF792FA032202210020FDF78DFA0322FE
:105A200003210020FDF788FA032204210020FDF75E
:105A300083FA032205210020FDF77EFA03220621C6
:105A40000020FDF779FA032207210020FDF774FA00
:105A5000032200210120FDF76FFA0322012101201A
:105A6000FDF76AFA03220C210120FDF765FA0F22E7
:105A700006210120FDF760FA0F2207210120FDF722
:105A80005BFA082205210120FDF756FA01220521C3
:105A90000120FDF7AFFB04490020FEF73FFE002088
:0C5AA000FFF792FA00BF80BD100000204C
:0C5AAC000050002000387CFCFC7C38001E
:105AB800010000005C0000205C04002076001E004D
:0C5AC800801A0600000100000100000030
:040000050800293096
:00000001FF
