:020000040800F2
:20000000005000203D020008D5020008D5020008D5020008D5020008D502000800000000CE
:20002000000000000000000000000000D5020008D502000800000000D5020008C90600084C
:20004000D5020008D5020008D5020008D5020008D5020008D5020008D5020008D5020008A8
:20006000D5020008D5020008D5020008D5020008D5020008D5020008D5020008D502000888
:20008000D5020008D5020008D5020008D5020008D5020008D5020008D5020008D502000868
:2000A000D5020008D5020008D5020008D5020008D5020008D5020008D5020008D502000848
:2000C000D5020008D5020008D5020008D5020008D5020008D5020008D5020008D50E00081C
:2000E000D5020008D502000800000000D5020008D5020008D5020008D5020008D5020008E7
:20010000D5020008D5020008D5020008D5020008D5020008D5020008D5020008D5020008E7
:20012000D5020008D5020008D5020008D502000880B500AF00F0D4F80221022000F01AF95B
:200140001121012000F016F90B220221002000F0E5FA04220321002000F0E0FA00F0D2FC1C
:20016000254B1B6804222549184600F01BFF244B1B68244A1360234B1B689B0E03F001032C
:20018000214A13601F4B1B68DB0E03F001031F4A13601C4B1B681B0F03F001031C4A1360F4
:2001A000174B1B68164A43F0807313601949012000F016FE164B1B68002B03D1134B1B6816
:2001C000002B0AD0144B154A1A60154B1B68154A1360144B1B6898470DE00B4B1B68002B7B
:2001E00009D00D4B104A1A60104B1B680D4A13600C4B1B689847FEE7000000200400002070
:2002000024100240200000201000002014000020180000205810000808ED00E00028000817
:20022000042800080C000020001400080414000880B400AF00BFBD4680BC704780B586B01F
:2002400000AF00237B6000237B6100233B611C4A1C4BD31A9B107B601B4B7B61194B3B61B1
:200260000023FB600AE07A69131D7B613B69191D396112681A60FB680133FB60FA687B6888
:200280009A42F0D3114A124BD31A9B107B60104B3B610023BB6007E03B691A1D3A610022E0
:2002A0001A60BB680133BB60BA687B689A42F3D3FFF7BEFFFFF73CFF00BF1837BD4680BD79
:2002C0000C0000200000002064100008380000200C00002080B400AF00BFBD4680BC70473A
:2002E00080B483B000AF0023FB80204A136843F00103136002E0FB880133FB801B4B1B68BE
:20030000C3F34003DBB2012B04D0FB8841F287329342F0D9164A13686FF310431360144AE9
:200320001368072161F395431360104A136843F08073136002E0FB880133FB800B4B1B6820
:20034000C3F34063DBB2012B04D0FB8841F287329342F0D9064A1368022161F301031360F1
:2003600000BF0C37BD4680BC704700BF001002400410024080B485B000AF03460A46FB7101
:200380001346BB710023FB73FB79022B02D90123FB7330E0BB791E2B02D90223FB732AE034
:2003A000FB79022B1CD0022B25DC002B02D0012B0BD020E0134B1B68BA79012101FA02F259
:2003C0001146104A0B43136015E00F4B1B68BA79012101FA02F211460B4A0B4313600AE03E
:2003E0000A4B1B68BA79012101FA02F21146074A0B43136000BFFB7B18461437BD4680BC5B
:20040000704700BF141002401C1002401810024080B485B000AF03460A46FB711346BB7186
:200420000023FB73FB79022B02D90123FB7333E0BB791E2B02D90223FB732DE0FB79022B71
:200440001ED0022B28DC002B02D0012B0CD023E0144B1B68BA79012101FA02F2D2431146E3
:20046000104A0B40136017E00F4B1B68BA79012101FA02F2D24311460B4A0B4013600BE0E2
:200480000A4B1B68BA79012101FA02F2D2431146064A0B40136000BFFB7B18461437BD46E5
:2004A00080BC7047141002401C1002401810024080B485B000AF03460A46FB711346BB7169
:2004C0000023FB73FB79022B02D90123FB7323E0BB791E2B02D90223FB731DE0FB79012BF2
:2004E00002D0022B0BD015E00E4B1B68BA79012101FA02F211460B4A0B4313600CE00A4B5F
:200500001B68BA79012101FA02F21146064A0B43136001E00123FB73FB7B18461437BD4617
:2005200080BC7047101002400C10024080B400AF044A13686FF38203136000BFBD4680BC04
:20054000704700BF10E000E080B584B000AF78607B6841F2941202FB03F3FB600C4B0022E2
:200560001A600C4AFB6813600B4A136843F00103136000BF084B1B68C3F30043DBB2002B15
:20058000F8D000F079F800BF1037BD4680BD00BF18E000E014E000E010E000E080B485B048
:2005A00000AF786039600123FB733B68002B03D10223FB73FB7B20E0124A13686FF30003A2
:2005C0001360114B00221A60104B00221A600023FB730D4A7B6813600A4A136843F0010375
:2005E00013600B4A3B6813600A4B00221A70054A136843F002031360FB7B18461437BD4685
:2006000080BC704710E000E014E000E018E000E0240000202800002080B485B000AF7860EF
:2006200039600123FB733B68002B02D10223FB7314E00023FB730C4A3B6813600B4A7B6832
:2006400013600B4B01221A700A4A136843F002031360084A136843F001031360FB7B18465F
:200660001437BD4680BC70472400002014E000E02800002010E000E080B400AF044A13685D
:200680006FF30003136000BFBD4680BC704700BF10E000E080B400AF044B1A68044B1B68B8
:2006A000D31A1846BD4680BC704700BF14E000E018E000E080B400AF024B1B681846BD467A
:2006C00080BC704718E000E080B500AF0E4B1B78002B0FD10D4A13686FF3410313600B4A34
:2006E00013686FF300031360094B00221A60094B00221A60084B1B689847044A13686FF3E7
:200700001043136000BF80BD2800002010E000E014E000E018E000E02400002080B485B0A6
:2007200000AF0346FB710B46BB7113467B710023FB73FB79022B02D90123FB73B4E0BB792C
:200740000F2B02D90223FB73AEE0BB79072B52D8FB79022B37D0022B00F3A680002B02D0E8
:20076000012B18D0A0E0534B1B68BA7992000F2101FA02F2D24311464E4A0B4013604D4B86
:200780001B687979BA79920001FA02F21146494A0B43136088E0484B1B68BA7992000F2112
:2007A00001FA02F2D2431146434A0B401360424B1B687979BA79920001FA02F211463E4AFE
:2007C0000B43136070E03D4B1B68BA7992000F2101FA02F2D2431146384A0B401360374BEB
:2007E0001B687979BA79920001FA02F21146334A0B43136058E0BB79072B54D9BB79083BF9
:20080000BB71FB79022B36D0022B4DDC002B02D0012B18D048E02A4B1B68BA7992000F2189
:2008200001FA02F2D2431146254A0B401360244B1B687979BA79920001FA02F21146204AD7
:200840000B43136030E01F4B1B68BA7992000F2101FA02F2D24311461A4A0B401360194B04
:200860001B687979BA79920001FA02F21146154A0B43136018E0144B1B68BA7992000F2109
:2008800001FA02F2D24311460F4A0B4013600E4B1B687979BA79920001FA02F211460A4AB9
:2008A0000B43136000E000BFFB7B18461437BD4680BC704700080140000C014000100140DC
:2008C00004080140040C01400410014080B485B000AF03463A60FB710B46BB710023FB73B0
:2008E000FB79022B02D90123FB7333E0BB790F2B02D90223FB732DE0FB79022B1ED0022B32
:2009000028DC002B02D0012B0CD023E0144B1A68BB7922FA03F3DBB203F00103DAB23B68F1
:200920001A7017E00F4B1A68BB7922FA03F3DBB203F00103DAB23B681A700BE00A4B1A6815
:20094000BB7922FA03F3DBB203F00103DAB23B681A7000BFFB7B18461437BD4680BC704740
:2009600008080140080C01400810014080B485B000AF03463960FB710023FB73FB79022BE0
:2009800002D90123FB731BE0FB79022B12D0022B16DC002B02D0012B06D011E00B4B1B6884
:2009A0009AB23B681A800BE0094B1B689AB23B681A8005E0074B1B689AB23B681A8000BF61
:2009C000FB7B18461437BD4680BC704708080140080C01400810014080B485B000AF0346A2
:2009E000FB710B46BB7113467B710023FB73FB79012B02D90123FB7344E0BB790F2B02D9BE
:200A00000223FB733EE07B79012B1BD1FB79022B12D0022B36DC002B02D0012B06D031E047
:200A2000BB7901229A401A4B1A602BE0BB7901229A40184B1A6025E0BB7901229A40164BF6
:200A40001A601FE07B79002B1BD1FB79022B12D0022B17DC002B02D0012B06D012E0BB794A
:200A600001229A400D4B1A600CE0BB7901229A400B4B1A6006E0BB7901229A40094B1A60D5
:200A800000E000BFFB7B18461437BD4680BC704710080140100C014010100140140801402E
:200AA000140C01401410014080B485B000AF03460A46FB711346BB800023FB73FB79012B8E
:200AC00002D90123FB7312E0FB79022B0ED0022B0DDC002B02D0012B04D008E0074ABB88A9
:200AE000136004E0064ABB88136000E000BFFB7B18461437BD4680BC704700BF0C080140D1
:200B00000C0C014080B485B000AFF4237B607B682F4AA2FB03235B09FB60FB68642202FBAE
:200B200003F37A68D31A3B603B681B013233284AA2FB03235B09BB60BB680F2B04D9FB68E0
:200B40000133FB600023BB60224AFB68C3F30B0399B2136861F30F1313601E4ABB6803F008
:200B60000F03D9B2136861F3030313601A4A13686FF30C331360184A13686FF38A2313603E
:200B8000154A13686FF3C7131360134A13686FF386131360104A13686FF3451313600F4A2B
:200BA00013686FF3CC2313600B4A136843F008031360094A136843F004031360064A13682F
:200BC00043F40053136000BF1437BD4680BC70471F85EB51084400400C4400401044004088
:200BE00080B483B000AF03460A46FB711346BB71FB79022B2ED0022B40DC002B02D0012B44
:200C000014D03BE000BF204B1B68C3F3C013DBB2012BF8D11D4ABB79136000BF1A4B1B6868
:200C2000C3F38013DBB2012BF8D127E000BF184B1B68C3F3C013DBB2012BF8D1154ABB799F
:200C4000136000BF124B1B68C3F38013DBB2012BF8D113E000BF104B1B68C3F3C013DBB211
:200C6000012BF8D10D4ABB79136000BF0A4B1B68C3F38013DBB2012BF8D100BF00BF0C375E
:200C8000BD4680BC704700BF00380140043801400044004004440040004800400448004089
:200CA00080B584B000AF03463960FB710323FB600DE0FB68DB003A6822FA03F3DAB2FB796E
:200CC00011461846FFF78CFFFB68013BFB60FB68002BEEDA00BF00BF1037BD4680BD80B455
:200CE00085B000AF03463960FB710023FB600023FB723B68002B01D10223FB72FB79002BE3
:200D00001BD102E0FB680133FB602D4B1B68C3F34013DBB2002B03D1FB682A4A9342F1D90D
:200D2000FB68294A934202D10323FB7242E0274B1B68DAB23B681A703CE0FB79012B1BD12A
:200D400002E0FB680133FB60214B1B68C3F34013DBB2002B03D1FB681A4A9342F1D9FB6872
:200D6000194A934202D10323FB7223E0194B1B68DAB23B681A701DE0FB79022B1AD102E0C7
:200D8000FB680133FB60144B1B68C3F34013DBB2002B03D1FB680B4A9342F1D9FB680A4ADC
:200DA000934202D10323FB7204E00C4B1B68DAB23B681A70FB7A18461437BD4680BC70476D
:200DC000003801409F860100A08601000438014000440040044400400048004004480040B0
:200DE00080B584B000AF03463960FB710023FB730023BB733B68002B0ED10223FB7311E07A
:200E0000BB7B3A6813441A78FB7911461846FFF7E7FEBB7B0133BB73BB7B3A6813441B78B3
:200E2000002BEDD1FB7B18461037BD4680BD80B584B000AF03463960FB711346BB71002360
:200E4000FB731AE007F10E02FB7911461846FFF746FFBB7B0A2B02D0BB7B0D2B05D1FB7BC7
:200E60003A68134400221A700DE0FB7B5A1CFA731A463B681344BA7B1A70FA7BBB79013B89
:200E80009A42DFDB00BF00BF1037BD4680BD80B487B000AFF860B9601346FB710023FB75D4
:200EA0000EE0FB7DFA6813441A78FB7DB9680B441B789A4201D0002307E0FB7D0133FB7533
:200EC000FA7DFB799A42ECD3012318461C37BD4680BC704780B500AF024B1B68984700BF6F
:200EE00080BD00BF3400002080B582B000AF0A23FB7106E0FB79184600F00BF8FB790133A0
:200F0000FB71FB793F2BF5D900BF00BF0837BD4680BD80B483B000AF0346FB7100BF1E4BC9
:200F2000DB6803F00103012BF9D01B4B1B69DB0903F00103012B05D1174B184A5A60164BDC
:200F4000174A5A60144B1B69134A43F002031361FB799B02104A03F1006353610E4B1B6937
:200F60000D4A43F04003136100BF0B4BDB6803F00103012BF9D0084BDB68074A43F02003AF
:200F8000D360054B1B69044A23F00203136100BF0C37BD4680BC7047002002402301674546
:200FA000AB89EFCD80B487B000AFF860B9601346FB7100BF254BDB6803F00103012BF9D093
:200FC000224B1B69DB0903F00103012B05D11F4B1F4A5A601D4B1F4A5A600023FB752BE08D
:200FE0001A4B1B69194A43F001031361FB7D5B00BA6813441B88BB82FB7D5B00BA681A447B
:20100000FB6812881A80FB680233FB6000BF0F4BDB6803F00103012BF9D00C4BDB680B4A0F
:2010200043F02003D360094B1B69084A23F001031361FB7D0133FB75FA7DFB799A42CFD3ED
:2010400000BF00BF1C37BD4680BC70470020024023016745AB89EFCD0A424D0A0000000004
:1010600000500020F01300083333222211114444B1
:20140000005000204D180008E5180008E5180008E5180008E5180008E518000800000000D6
:20142000000000000000000000000000E5180008E518000800000000E5180008D91C0008A0
:20144000E5180008E5180008E5180008E5180008E5180008E5180008E5180008E518000864
:20146000E5180008E5180008E5180008E5180008E5180008E5180008E5180008E518000844
:20148000E5180008E5180008E5180008E5180008E5180008E5180008E5180008E518000824
:2014A000E5180008E5180008E5180008E5180008E5180008E5180008E5180008E518000804
:2014C000E5180008E5180008E5180008E5180008E5180008E5180008E5180008DD240008E0
:2014E000E5180008E518000800000000E5180008E5180008E5180008E5180008E5180008C9
:20150000E5180008E5180008E5180008E5180008E5180008E5180008E5180008E5180008A3
:20152000E5180008E5180008E5180008E518000880B500AF00F0DCF900F000FB03210220BD
:2015400000F020FA1221012000F01CFA0B220A21012000F0EBFB04220B21012000F0E6FB94
:2015600000F0D8FD00BF80BD80B582B000AFFFF7DFFF1349022000F037FF00F0B9FF11491A
:20158000022000F031FF0023FB7103E0FB79184600F008F9FB1D1946022000F0A4FE034660
:2015A000002BF3D003E00849022000F01DFFFB1D1946022000F097FE0346032BF3D0E2E7BA
:2015C00060260008682600088026000880B588B000AF78600023FB837B6801331A787B6818
:2015E00002331B781946104600F0C0F80346BB767B6803331A787B6804331B78194610463F
:2016000000F0B4F803467B767B6805331A787B6806331B781946104600F0A8F803463B7659
:201620007B7E1B021AB23B7E1BB213431BB2BB837B6807331A787B6808331B7819461046CC
:2016400000F094F80346FB75BB7E9AB27B7E9BB213449AB23B7E9BB213449AB2FB7D9BB279
:2016600013449AB2FB8B1344FB83FB7D002B50D10023FB7648E0FB7E5B0009331A467B6899
:2016800013441A78FB7E05335B0019467B680B441B781946104600F069F80346BB75FB7E39
:2016A0005B000B331A467B6813441A78FB7E06335B0019467B680B441B781946104600F08F
:2016C00055F803467B757B7D1B021AB2BB7D1BB213431BB29BB2FB817B7D9AB2BB7D9BB2E9
:2016E00013449AB2FB8B1344FB83BB8B03F1006307F10E010122184600F058FFBB8B023305
:20170000BB83FB7E0233FB76FA7EBB7E9A42B2D308E0FB7D012B05D11349022000F064FE28
:20172000FF231DE0BB7E5B0009331A467B6813441A78BB7E05335B0019467B680B441B789E
:201740001946104600F012F803463B753B7D9AB2FB8B1344FB83FB8BDBB23B613B69DBB2A2
:2017600018462037BD4680BDF426000880B483B000AF03460A46FB711346BB71FB79084AEC
:20178000D35C1B015AB2BB790549CB5C5BB213435BB2DBB218460C37BD4680BC704700BFF6
:2017A0008826000880B584B000AF0346FB71FB790A2B02D0FB790D2B1CD11B4B1B88002B5E
:2017C00014D0194B1B881A46184B002199541748FFF7FCFE0346FB73FB7BFF2B06D1144973
:2017E000022000F001FE134B134A1A600E4B00221A8015E00C4B1B883E2B0AD80A4B1B885C
:201800005A1C91B2084A11801946084AFB79535406E00A49022000F0E7FD034B00221A8027
:2018200000BF1037BD4680BD4200002000000020082700080CED00E00400FA051827000886
:2018400080B400AF00BFBD4680BC704780B586B000AF00237B6000237B6100233B611C4AB4
:201860001C4BD31A9B107B601B4B7B61194B3B610023FB600AE07A69131D7B613B69191D1B
:20188000396112681A60FB680133FB60FA687B689A42F0D3114A124BD31A9B107B60104B5E
:2018A0003B610023BB6007E03B691A1D3A6100221A60BB680133BB60BA687B689A42F3D33C
:2018C000FFF7BEFFFFF750FE00BF1837BD4680BD00000020000000202C27000858000020B0
:2018E0000000002080B400AF00BFBD4680BC704780B483B000AF0023FB80204A136843F064
:201900000103136002E0FB880133FB801B4B1B68C3F34003DBB2012B04D0FB8841F287325E
:201920009342F0D9164A13686FF310431360144A1368072161F395431360104A136843F05E
:201940008073136002E0FB880133FB800B4B1B68C3F34063DBB2012B04D0FB8841F28732DF
:201960009342F0D9064A1368022161F30103136000BF0C37BD4680BC704700BF0010024007
:201980000410024080B485B000AF03460A46FB711346BB710023FB73FB79022B02D901231E
:2019A000FB7330E0BB791E2B02D90223FB732AE0FB79022B1CD0022B25DC002B02D0012BD0
:2019C0000BD020E0134B1B68BA79012101FA02F21146104A0B43136015E00F4B1B68BA7990
:2019E000012101FA02F211460B4A0B4313600AE00A4B1B68BA79012101FA02F21146074ABB
:201A00000B43136000BFFB7B18461437BD4680BC704700BF141002401C1002401810024034
:201A200080B485B000AF03460A46FB711346BB710023FB73FB79022B02D90123FB7333E052
:201A4000BB791E2B02D90223FB732DE0FB79022B1ED0022B28DC002B02D0012B0CD023E0C6
:201A6000144B1B68BA79012101FA02F2D2431146104A0B40136017E00F4B1B68BA79012193
:201A800001FA02F2D24311460B4A0B4013600BE00A4B1B68BA79012101FA02F2D243114665
:201AA000064A0B40136000BFFB7B18461437BD4680BC7047141002401C1002401810024006
:201AC00080B485B000AF03460A46FB711346BB710023FB73FB79022B02D90123FB7323E0C2
:201AE000BB791E2B02D90223FB731DE0FB79012B02D0022B0BD015E00E4B1B68BA7901215E
:201B000001FA02F211460B4A0B4313600CE00A4B1B68BA79012101FA02F21146064A0B436C
:201B2000136001E00123FB73FB7B18461437BD4680BC7047101002400C10024080B400AF07
:201B4000044A13686FF38203136000BFBD4680BC704700BF10E000E080B584B000AF78602E
:201B60007B6841F2941202FB03F3FB600C4B00221A600C4AFB6813600B4A136843F0010335
:201B8000136000BF084B1B68C3F30043DBB2002BF8D000F079F800BF1037BD4680BD00BF5E
:201BA00018E000E014E000E010E000E080B485B000AF786039600123FB733B68002B03D1EC
:201BC0000223FB73FB7B20E0124A13686FF300031360114B00221A60104B00221A6000233B
:201BE000FB730D4A7B6813600A4A136843F0010313600B4A3B6813600A4B00221A70054A96
:201C0000136843F002031360FB7B18461437BD4680BC704710E000E014E000E018E000E00D
:201C2000440000204800002080B485B000AF786039600123FB733B68002B02D10223FB7389
:201C400014E00023FB730C4A3B6813600B4A7B6813600B4B01221A700A4A136843F00203DE
:201C60001360084A136843F001031360FB7B18461437BD4680BC70474400002014E000E02D
:201C80004800002010E000E080B400AF044A13686FF30003136000BFBD4680BC704700BF14
:201CA00010E000E080B400AF044B1A68044B1B68D31A1846BD4680BC704700BF14E000E0FA
:201CC00018E000E080B400AF024B1B681846BD4680BC704718E000E080B500AF0E4B1B787D
:201CE000002B0FD10D4A13686FF3410313600B4A13686FF300031360094B00221A60094B02
:201D000000221A60084B1B689847044A13686FF31043136000BF80BD4800002010E000E04D
:201D200014E000E018E000E04400002080B485B000AF0346FB710B46BB7113467B710023E1
:201D4000FB73FB79022B02D90123FB73B4E0BB790F2B02D90223FB73AEE0BB79072B52D879
:201D6000FB79022B37D0022B00F3A680002B02D0012B18D0A0E0534B1B68BA7992000F21CE
:201D800001FA02F2D24311464E4A0B4013604D4B1B687979BA79920001FA02F21146494AE7
:201DA0000B43136088E0484B1B68BA7992000F2101FA02F2D2431146434A0B401360424BBC
:201DC0001B687979BA79920001FA02F211463E4A0B43136070E03D4B1B68BA7992000F21EA
:201DE00001FA02F2D2431146384A0B401360374B1B687979BA79920001FA02F21146334AC9
:201E00000B43136058E0BB79072B54D9BB79083BBB71FB79022B36D0022B4DDC002B02D099
:201E2000012B18D048E02A4B1B68BA7992000F2101FA02F2D2431146254A0B401360244B82
:201E40001B687979BA79920001FA02F21146204A0B43136030E01F4B1B68BA7992000F21E5
:201E600001FA02F2D24311461A4A0B401360194B1B687979BA79920001FA02F21146154AA2
:201E80000B43136018E0144B1B68BA7992000F2101FA02F2D24311460F4A0B4013600E4BE7
:201EA0001B687979BA79920001FA02F211460A4A0B43136000E000BFFB7B18461437BD46CC
:201EC00080BC704700080140000C01400010014004080140040C01400410014080B485B0CC
:201EE00000AF03463A60FB710B46BB710023FB73FB79022B02D90123FB7333E0BB790F2B47
:201F000002D90223FB732DE0FB79022B1ED0022B28DC002B02D0012B0CD023E0144B1A689D
:201F2000BB7922FA03F3DBB203F00103DAB23B681A7017E00F4B1A68BB7922FA03F3DBB278
:201F400003F00103DAB23B681A700BE00A4B1A68BB7922FA03F3DBB203F00103DAB23B6816
:201F60001A7000BFFB7B18461437BD4680BC704708080140080C01400810014080B485B09B
:201F800000AF03463960FB710023FB73FB79022B02D90123FB731BE0FB79022B12D0022BFA
:201FA00016DC002B02D0012B06D011E00B4B1B689AB23B681A800BE0094B1B689AB23B682C
:201FC0001A8005E0074B1B689AB23B681A8000BFFB7B18461437BD4680BC704708080140FF
:201FE000080C01400810014080B485B000AF0346FB710B46BB7113467B710023FB73FB799F
:20200000012B02D90123FB7344E0BB790F2B02D90223FB733EE07B79012B1BD1FB79022B5C
:2020200012D0022B36DC002B02D0012B06D031E0BB7901229A401A4B1A602BE0BB790122FD
:202040009A40184B1A6025E0BB7901229A40164B1A601FE07B79002B1BD1FB79022B12D02B
:20206000022B17DC002B02D0012B06D012E0BB7901229A400D4B1A600CE0BB7901229A402F
:202080000B4B1A6006E0BB7901229A40094B1A6000E000BFFB7B18461437BD4680BC7047D7
:2020A00010080140100C01401010014014080140140C01401410014080B485B000AF034685
:2020C0000A46FB711346BB800023FB73FB79012B02D90123FB7312E0FB79022B0ED0022B74
:2020E0000DDC002B02D0012B04D008E0074ABB88136004E0064ABB88136000E000BFFB7B0C
:2021000018461437BD4680BC704700BF0C0801400C0C014080B485B000AFF4237B607B68C6
:202120002D4AA2FB03235B09FB60FB68642202FB03F37A68D31A3B603B681B013233264ACC
:20214000A2FB03235B09BB60BB680F2B04D9FB680133FB600023BB60204AFB68C3F30B0342
:2021600099B2136861F30F1313601C4ABB6803F00F03D9B2136861F303031360184A136872
:202180006FF30C331360164A13686FF38A231360134A13686FF3C7131360114A13686FF30F
:2021A000861313600F4A13686FF3CC2313600C4A136843F008031360094A136843F00403F1
:2021C0001360074A136843F40053136000BF1437BD4680BC704700BF1F85EB510848004094
:2021E0000C4800401048004080B483B000AF03460A46FB711346BB71FB79022B2ED0022B47
:2022000040DC002B02D0012B14D03BE000BF204B1B68C3F3C013DBB2012BF8D11D4ABB7927
:20222000136000BF1A4B1B68C3F38013DBB2012BF8D127E000BF184B1B68C3F3C013DBB2F7
:20224000012BF8D1154ABB79136000BF124B1B68C3F38013DBB2012BF8D113E000BF104B0C
:202260001B68C3F3C013DBB2012BF8D10D4ABB79136000BF0A4B1B68C3F38013DBB2012B39
:20228000F8D100BF00BF0C37BD4680BC704700BF00380140043801400044004004440040FD
:2022A000004800400448004080B584B000AF03463960FB710323FB600DE0FB68DB003A6856
:2022C00022FA03F3DAB2FB7911461846FFF78CFFFB68013BFB60FB68002BEEDA00BF00BFE8
:2022E0001037BD4680BD80B485B000AF03463960FB710023FB600023FB723B68002B01D143
:202300000223FB72FB79002B1BD102E0FB680133FB602D4B1B68C3F34013DBB2002B03D13C
:20232000FB682A4A9342F1D9FB68294A934202D10323FB7242E0274B1B68DAB23B681A7046
:202340003CE0FB79012B1BD102E0FB680133FB60214B1B68C3F34013DBB2002B03D1FB681A
:202360001A4A9342F1D9FB68194A934202D10323FB7223E0194B1B68DAB23B681A701DE0B9
:20238000FB79022B1AD102E0FB680133FB60144B1B68C3F34013DBB2002B03D1FB680B4AAE
:2023A0009342F1D9FB680A4A934202D10323FB7204E00C4B1B68DAB23B681A70FB7A184642
:2023C0001437BD4680BC7047003801409F860100A08601000438014000440040044400406D
:2023E000004800400448004080B584B000AF03463960FB710023FB730023BB733B68002BB3
:202400000ED10223FB7311E0BB7B3A6813441A78FB7911461846FFF7E7FEBB7B0133BB73FC
:20242000BB7B3A6813441B78002BEDD1FB7B18461037BD4680BD80B584B000AF034639609C
:20244000FB711346BB710023FB731AE007F10E02FB7911461846FFF746FFBB7B0A2B02D057
:20246000BB7B0D2B05D1FB7B3A68134400221A700DE0FB7B5A1CFA731A463B681344BA7B28
:202480001A70FA7BBB79013B9A42DFDB00BF00BF1037BD4680BD80B487B000AFF860B960A7
:2024A0001346FB710023FB750EE0FB7DFA6813441A78FB7DB9680B441B789A4201D00023C8
:2024C00007E0FB7D0133FB75FA7DFB799A42ECD3012318461C37BD4680BC704780B500AFC4
:2024E000024B1B68984700BF80BD00BF5400002080B582B000AF0A23FB7106E0FB79184697
:2025000000F00BF8FB790133FB71FB793F2BF5D900BF00BF0837BD4680BD80B483B000AFF5
:202520000346FB7100BF1E4BDB6803F00103012BF9D01B4B1B69DB0903F00103012B05D1C8
:20254000174B184A5A60164B174A5A60144B1B69134A43F002031361FB799B02104A03F136
:20256000006353610E4B1B690D4A43F04003136100BF0B4BDB6803F00103012BF9D0084B8F
:20258000DB68074A43F02003D360054B1B69044A23F00203136100BF0C37BD4680BC704778
:2025A0000020024023016745AB89EFCD80B487B000AFF860B9601346FB7100BF254BDB6837
:2025C00003F00103012BF9D0224B1B69DB0903F00103012B05D11F4B1F4A5A601D4B1F4AE3
:2025E0005A600023FB752BE01A4B1B69194A43F001031361FB7D5B00BA6813441B88BB8260
:20260000FB7D5B00BA681A44FB6812881A80FB680233FB6000BF0F4BDB6803F00103012B5E
:20262000F9D00C4BDB680B4A43F02003D360094B1B69084A23F001031361FB7D0133FB7588
:20264000FA7DFB799A42CFD300BF00BF1C37BD4680BC70470020024023016745AB89EFCD28
:202660000A62746C640A00000A4170706C69636174696F6E204572617365640A00000000A4
:2026800049444C450A00000000000000000000000000000000000000000000000000000012
:2026A0000000000000000000000000000000000000000000000000000001020304050607FE
:2026C0000809000000000000000A0B0C0D0E0F00000000000000000000000000000000009E
:2026E0000000000000000000000A0B0C0D0E0F00000000000A736F66747761726520757015
:202700006461746564200A00454F462072656365697665640A0000004C696E6520746F6F48
:0C272000206C6F6E67210A000050002042
:20280000005000200149000899490008994900089949000899490008994900080000000064
:2028200000000000000000000000000099490008994900080000000099490008092F00089A
:20284000994900089949000899490008994900089949000899490008D9350008F1350008B8
:202860000936000821360008393600089949000899490008994900089949000899490008A9
:202880009949000899490008994900089949000899490008994900089949000899490008E8
:2028A000994900086D4500089949000899490008A9450008E545000821460008994900081F
:2028C00099490008994900089949000831390008593900084D3F0008613F0008753F000836
:2028E000994900089949000800000000994900089949000899490008994900089949000872
:20290000994900089949000899490008994900089949000899490008994900089949000867
:202920009949000899490008994900089949000880B483B000AF0023FB80204A136843F023
:202940000103136002E0FB880133FB801B4B1B68C3F34003DBB2012B04D0FB8841F287320E
:202960009342F0D9164A13686FF310431360144A1368072161F395431360104A136843F00E
:202980008073136002E0FB880133FB800B4B1B68C3F34063DBB2012B04D0FB8841F287328F
:2029A0009342F0D9064A1368022161F30103136000BF0C37BD4680BC704700BF00100240B7
:2029C0000410024080B485B000AF03460A46FB711346BB710023FB73FB79022B02D90123CE
:2029E000FB7330E0BB791E2B02D90223FB732AE0FB79022B1CD0022B25DC002B02D0012B80
:202A00000BD020E0134B1B68BA79012101FA02F21146104A0B43136015E00F4B1B68BA793F
:202A2000012101FA02F211460B4A0B4313600AE00A4B1B68BA79012101FA02F21146074A6A
:202A40000B43136000BFFB7B18461437BD4680BC704700BF141002401C10024018100240E4
:202A600080B485B000AF03460A46FB711346BB710023FB73FB79022B02D90123FB7333E002
:202A8000BB791E2B02D90223FB732DE0FB79022B1ED0022B28DC002B02D0012B0CD023E076
:202AA000144B1B68BA79012101FA02F2D2431146104A0B40136017E00F4B1B68BA79012143
:202AC00001FA02F2D24311460B4A0B4013600BE00A4B1B68BA79012101FA02F2D243114615
:202AE000064A0B40136000BFFB7B18461437BD4680BC7047141002401C10024018100240B6
:202B000080B485B000AF03460A46FB711346BB710023FB73FB79022B02D90123FB7323E071
:202B2000BB791E2B02D90223FB731DE0FB79012B02D0022B0BD015E00E4B1B68BA7901210D
:202B400001FA02F211460B4A0B4313600CE00A4B1B68BA79012101FA02F21146064A0B431C
:202B6000136001E00123FB73FB7B18461437BD4680BC7047101002400C10024080B485B031
:202B800000AF0346FB710023FB73FB791F2B05D8FB7901229A400B4B1A600DE0FB793B2B9D
:202BA00008D8FB79203BFB71FB7901229A40064B1A6001E00123FB73FB7B18461437BD4629
:202BC00080BC704700E100E004E100E080B485B000AF0346FB710023FB73FB791F2B05D883
:202BE000FB7901229A400B4B1A600DE0FB793B2B08D8FB79203BFB71FB7901229A40064BF0
:202C00001A6001E00123FB73FB7B18461437BD4680BC704780E100E084E100E080B485B0C3
:202C200000AF0346FB710023FB73FB791F2B05D8FB7901229A400B4B1A600DE0FB793B2BFC
:202C400008D8FB79203BFB71FB7901229A40064B1A6001E00123FB73FB7B18461437BD4688
:202C600080BC704700E200E004E200E080B485B000AF0346FB710023FB73FB791F2B05D8E0
:202C8000FB7901229A400B4B1A600DE0FB793B2B08D8FB79203BFB71FB7901229A40064B4F
:202CA0001A6001E00123FB73FB7B18461437BD4680BC704780E200E084E200E080B485B021
:202CC00000AF03463960FB710023FB73FB791F2B0BD8134B1A68FB7922FA03F3DBB203F0DF
:202CE0000103DAB23B681A7013E0FB793B2B0ED8FB79203BFB710B4B1A68FB7922FA03F3CB
:202D0000DBB203F00103DAB23B681A7001E00123FB73FB7B18461437BD4680BC704700BF2F
:202D200000E300E004E300E080B485B000AF0346FB710B46BB7113467B71124B124A1A6047
:202D40000223FB7397F90730002B16DB97F90730002B12DBBA79FB7B02FA03F35AB297F9E7
:202D6000053013435BB2DAB297F9073003F1604303F564431201D2B21A7000BF1437BD4604
:202D800080BC70470CED00E00005FA0580B400AF044A13686FF38203136000BFBD4680BC5F
:202DA000704700BF10E000E080B584B000AF78607B6841F2941202FB03F3FB600C4B00225A
:202DC0001A600C4AFB6813600B4A136843F00103136000BF084B1B68C3F30043DBB2002B8D
:202DE000F8D000F069F800BF1037BD4680BD00BF18E000E014E000E010E000E080B485B0D0
:202E000000AF786039600123FB733B68002B02D10223FB7311E00023FB730B4A3B681360DF
:202E20000A4A7B6813600A4A136843F002031360074A136843F001031360FB7B18461437D9
:202E4000BD4680BC704700BF0400002014E000E010E000E080B485B000AF78603960012348
:202E6000FB733B68002B02D10223FB7315E00023FB730D4A3B6813600C4A7B68013B1360D5
:202E80000B4B00221A600B4A136843F002031360084A136843F001031360FB7B184614372F
:202EA000BD4680BC704700BF0400002014E000E018E000E010E000E080B400AF044A136811
:202EC0006FF30003136000BFBD4680BC704700BF10E000E080B400AF044B1A68044B1B6850
:202EE000D31A1846BD4680BC704700BF14E000E018E000E080B400AF024B1B681846BD4612
:202F000080BC704718E000E080B500AF024B1B68984700BF80BD00BF0400002080B485B00B
:202F200000AF0346FB710B46BB7113467B710023FB73FB79022B02D90123FB73B4E0BB7904
:202F40000F2B02D90223FB73AEE0BB79072B52D8FB79022B37D0022B00F3A680002B02D0C0
:202F6000012B18D0A0E0534B1B68BA7992000F2101FA02F2D24311464E4A0B4013604D4B5E
:202F80001B687979BA79920001FA02F21146494A0B43136088E0484B1B68BA7992000F21EA
:202FA00001FA02F2D2431146434A0B401360424B1B687979BA79920001FA02F211463E4AD6
:202FC0000B43136070E03D4B1B68BA7992000F2101FA02F2D2431146384A0B401360374BC3
:202FE0001B687979BA79920001FA02F21146334A0B43136058E0BB79072B54D9BB79083BD1
:20300000BB71FB79022B36D0022B4DDC002B02D0012B18D048E02A4B1B68BA7992000F2161
:2030200001FA02F2D2431146254A0B401360244B1B687979BA79920001FA02F21146204AAF
:203040000B43136030E01F4B1B68BA7992000F2101FA02F2D24311461A4A0B401360194BDC
:203060001B687979BA79920001FA02F21146154A0B43136018E0144B1B68BA7992000F21E1
:2030800001FA02F2D24311460F4A0B4013600E4B1B687979BA79920001FA02F211460A4A91
:2030A0000B43136000E000BFFB7B18461437BD4680BC704700080140000C014000100140B4
:2030C00004080140040C01400410014080B485B000AF03463A60FB710B46BB710023FB7388
:2030E000FB79022B02D90123FB7333E0BB790F2B02D90223FB732DE0FB79022B1ED0022B0A
:2031000028DC002B02D0012B0CD023E0144B1A68BB7922FA03F3DBB203F00103DAB23B68C9
:203120001A7017E00F4B1A68BB7922FA03F3DBB203F00103DAB23B681A700BE00A4B1A68ED
:20314000BB7922FA03F3DBB203F00103DAB23B681A7000BFFB7B18461437BD4680BC704718
:2031600008080140080C01400810014080B485B000AF03463960FB710023FB73FB79022BB8
:2031800002D90123FB731BE0FB79022B12D0022B16DC002B02D0012B06D011E00B4B1B685C
:2031A0009AB23B681A800BE0094B1B689AB23B681A8005E0074B1B689AB23B681A8000BF39
:2031C000FB7B18461437BD4680BC704708080140080C01400810014080B485B000AF03467A
:2031E000FB710B46BB7113467B710023FB73FB79022B02D90123FB7344E0BB790F2B02D995
:203200000223FB733EE07B79012B1BD1FB79022B12D0022B36DC002B02D0012B06D031E01F
:20322000BB7901229A401A4B1A602BE0BB7901229A40184B1A6025E0BB7901229A40164BCE
:203240001A601FE07B79002B1BD1FB79022B12D0022B17DC002B02D0012B06D012E0BB7922
:2032600001229A400D4B1A600CE0BB7901229A400B4B1A6006E0BB7901229A40094B1A60AD
:2032800000E000BFFB7B18461437BD4680BC704710080140100C0140101001401408014006
:2032A000140C01401410014080B485B000AF03460A46FB711346BB800023FB73FB79012B66
:2032C00002D90123FB7312E0FB79022B0ED0022B0DDC002B02D0012B04D008E0074ABB8881
:2032E000136004E0064ABB88136000E000BFFB7B18461437BD4680BC704700BF0C080140A9
:203300000C0C014080B483B000AF0346FB71074B1B68FA79012101FA02F21146034A0B433E
:20332000136000BF0C37BD4680BC70470004014080B483B000AF0346FB71084B1B68FA79C9
:20334000012101FA02F2D2431146044A0B40136000BF0C37BD4680BC704700BF00040140E8
:2033600080B485B000AF0346FB710B46BB7113467B710023FB737B79012B37D1BB79022BA4
:203380001CD0022B2FDC002B02D0012B0BD02AE0394B9B68FA79012101FA02F21146364A19
:2033A0000B43936062E0344BDB68FA79012101FA02F21146304A0B43D36057E02E4B9B683F
:2033C000FA79012101FA02F211462B4A0B439360294BDB68FA79012101FA02F21146264A5A
:2033E0000B43D36042E00123FB733FE07B79002B3BD1BB79022B1ED0022B33DC002B02D0C6
:20340000012B0CD02EE01C4B9B68FA79012101FA02F2D2431146184A0B40936026E0164B35
:20342000DB68FA79012101FA02F2D2431146124A0B40D3601AE0104B9B68FA79012101FA97
:2034400002F2D24311460C4A0B4093600A4BDB68FA79012101FA02F2D2431146064A0B4055
:20346000D36003E00123FB7300E000BFFB7B18461437BD4680BC70470004014080B483B044
:2034800000AF0346FB71074B1B69FA79012101FA02F21146034A0B43136100BF0C37BD4603
:2034A00080BC70470004014080B483B000AF0346FB71074B5B69FA79012101FA02F2114618
:2034C000034A0B43536100BF0C37BD4680BC70470004014080B485B000AF78600123FB73DE
:2034E0007B68002B02D10223FB7304E00023FB73044A7B681360FB7B18461437BD4680BCE1
:20350000704700BF0800002080B485B000AF78600123FB737B68002B02D10223FB7304E033
:203520000023FB73044A7B681360FB7B18461437BD4680BC704700BF0C00002080B485B0ED
:2035400000AF78600123FB737B68002B02D10223FB7304E00023FB73044A7B681360FB7B4F
:2035600018461437BD4680BC704700BF1000002080B485B000AF78600123FB737B68002B2D
:2035800002D10223FB7304E00023FB73044A7B681360FB7B18461437BD4680BC704700BFD8
:2035A0001400002080B485B000AF78600123FB737B68002B02D10223FB7304E00023FB736C
:2035C000044A7B681360FB7B18461437BD4680BC704700BF1800002080B500AF034B1B6886
:2035E00098470020FFF760FF00BF80BD0800002080B500AF034B1B6898470120FFF754FF55
:2036000000BF80BD0C00002080B500AF034B1B6898470220FFF748FF00BF80BD1000002063
:2036200080B500AF034B1B6898470320FFF73CFF00BF80BD1400002080B500AF034B1B68BD
:2036400098470420FFF730FF00BF80BD1800002080B483B000AF03460A46FB711346BB716E
:20366000FB79032B17D83B4B9B68FA7992000F2101FA02F2D2431146364A0B409360354B62
:203680009B68B979FA79920001FA02F21146314A0B43936058E0FB79072B1AD8FB79043B6B
:2036A000FB712C4BDB68FA7992000F2101FA02F2D2431146274A0B40D360264BDB68B9797F
:2036C000FA79920001FA02F21146224A0B43D3603AE0FB790B2B1AD8FB79083BFB711D4B71
:2036E0001B69FA7992000F2101FA02F2D2431146184A0B401361174B1B69B979FA79920078
:2037000001FA02F21146134A0B4313611CE0FB790F2B19D8FB790C3BFB710E4B5B69FA79F2
:2037200092000F2101FA02F2D2431146094A0B405361084B5B69B979FA79920001FA02F2DD
:203740001146044A0B43536100BF0C37BD4680BC704700BF0000014080B483B000AF7860DC
:203760000B467B800E4B1B680D4A23F0010313600C4A7B8813600C4A7B6813600B4B0C4A1C
:203780001A60074B42F292021A60054B1B68044A43F00103136000BF0C37BD4680BC704758
:2037A000580002405C00024064000240600002400C38004080B400AF224A13686FF3CB23EB
:2037C0001360204A13686FF38A2313601D4A136843F4007313601B4A136843F48073136093
:2037E000184A13686FF3C7131360164A1368022161F3C5031360134A136843F0040313602B
:20380000104A13686FF3410313600E4A136843F0010313600B4A136843F0400313600A4A30
:20382000136843F080031360074A136843F040031360054A136843F00203136000BFBD46F8
:2038400080BC7047003800400438004080B485B000AF03463A60FB710B46BB800123FB73FC
:203860003B68002B02D10223FB7329E00023FB73FB79002B02D0012B11D021E0134ABB885B
:20388000136000BF124B1B68C3F3C013DBB2012BF8D00E4B1B689AB23B681A8010E00D4A60
:2038A000BB88136000BF0C4B1B68C3F3C013DBB2012BF8D0074B1B689AB23B681A8000BF92
:2038C000FB7B18461437BD4680BC70470C300140083001400C3800400838004080B483B072
:2038E00000AF03463A60FB710B46BB80FB79002B02D0012B07D00DE0094A3B681360094A21
:20390000BB88136006E0084A3B681360074ABB88136000BF00BF18460C37BD4680BC704787
:203920001C0000200C300140200000200C38004080B500AF064B1B68002B06D0044B1B687F
:20394000044A126892B21046984700BF80BD00BF1C0000200C30014080B500AF064B1B68FA
:20396000002B06D0044B1B68044A126892B21046984700BF80BD00BF200000200C380040B4
:2039800080B586B000AF03463960FB713B68002B07DAFB792D21184600F07CF93B685B424B
:2039A0003B603B68002B05D1FB793021184600F071F937E00023FB751DE03A681B4B83FB1E
:2039C00002139910D317C91A0B469B000B445B00D11ACAB2FB7D591CF9753032D2B21833D3
:2039E0003B4403F80C2C3B68104A82FB03129210DB17D31A3B603B68002BDEDCFB7DBB753A
:203A00000DE0BB7D013B18333B4413F80C2CFB791146184600F03EF9BB7D013BBB75BB7D0C
:203A2000002BEED11837BD4680BD00BF6766666680B48DB000AFF4237B617B698B4AA2FB4C
:203A400003235B09FB62FB6A642202FB03F37A69D31A3B613B691B013233844AA2FB03237F
:203A60005B09BB62BB6A0F2B04D9FB6A0133FB620023BB627E4AFB6AC3F30B0399B213689C
:203A800061F30F1313607A4ABB6A03F00F03D9B2136861F303031360764A13686FF30C33A0
:203AA0001360744A13686FF38A231360714A13686FF3C71313606F4A13686FF38613136051
:203AC0006C4A13686FF3451313606B4A13686FF3CC231360674A136843F008031360654A08
:203AE000136843F004031360624A136843F400531360F423FB60FB685C4AA2FB03235B09D8
:203B00007B627B6A642202FB03F3FA68D31ABB60BB681B013233554AA2FB03235B093B62F9
:203B20003B6A0F2B04D97B6A01337B6200233B62524A7B6AC3F30B0399B2136861F30F1392
:203B400013604E4A3B6A03F00F03D9B2136861F3030313604A4A13686FF30C331360484A28
:203B600013686FF38A231360454A13686FF3C7131360434A13686FF386131360404A136814
:203B80006FF3451313603F4A13686FF3CC2313603B4A136843F008031360394A136843F04E
:203BA00004031360364A136843F400531360F4237B607B682D4AA2FB03235B09FB61FB6960
:203BC000642202FB03F37A68D31A3B603B681B013233264AA2FB03235B09BB61BB690F2BCD
:203BE00004D9FB690133FB610023BB61264AFB69C3F30B0399B2136861F30F131360224A02
:203C0000BB6903F00F03D9B2136861F3030313601E4A13686FF30C3313601C4A13686FF36E
:203C20008A231360194A13686FF3C7131360174A13686FF386131360154A13686FF3CC2362
:203C40001360124A136843F0080313600F4A136843F0040313600D4A136843F40053136019
:203C600000BF3437BD4680BC704700BF1F85EB51083801400C38014010380140084400406A
:203C80000C44004010440040084800400C4800401048004080B483B000AF03460A46FB7129
:203CA0001346BB71FB79022B2ED0022B40DC002B02D0012B14D03BE000BF204B1B68C3F30C
:203CC000C013DBB2012BF8D11D4ABB79136000BF1A4B1B68C3F38013DBB2012BF8D127E008
:203CE00000BF184B1B68C3F3C013DBB2012BF8D1154ABB79136000BF124B1B68C3F3801326
:203D0000DBB2012BF8D113E000BF104B1B68C3F3C013DBB2012BF8D10D4ABB79136000BFC9
:203D20000A4B1B68C3F38013DBB2012BF8D100BF00BF0C37BD4680BC704700BF00380140F1
:203D4000043801400044004004440040004800400448004080B485B000AF03463960FB7160
:203D60000023FB600023FB723B68002B01D10223FB72FB79002B1BD102E0FB680133FB60A4
:203D80002D4B1B68C3F34013DBB2002B03D1FB682A4A9342F1D9FB68294A934202D1032379
:203DA000FB7242E0274B1B68DAB23B681A703CE0FB79012B1BD102E0FB680133FB60224BDD
:203DC0001B68C3F34013DBB2002B03D1FB681B4A9342F1D9FB681A4A934202D10323FB7262
:203DE00023E01A4B1B68DAB23B681A701DE0FB79022B1AD102E0FB680133FB60144B1B68E0
:203E0000C3F34013DBB2002B03D1FB680B4A9342F1D9FB680A4A934202D10323FB7204E0E0
:203E20000C4B1B68DAB23B681A70FB7A18461437BD4680BC704700BF003801409F8601007D
:203E4000A0860100043801400044004004440040004800400448004080B584B000AF03463D
:203E60003960FB710023FB730023BB733B68002B0ED10223FB7311E0BB7B3A6813441A7869
:203E8000FB7911461846FFF705FFBB7B0133BB73BB7B3A6813441B78002BEDD1FB7B1846E8
:203EA0001037BD4680BD80B584B000AF03463960FB711346BB710023FB731AE007F10E02FD
:203EC000FB7911461846FFF745FFBB7B0A2B02D0BB7B0D2B05D1FB7B3A68134400221A70E3
:203EE0000DE0FB7B5A1CFA731A463B681344BA7B1A70FA7BBB79013B9A42DFDB00BF00BF6A
:203F00001037BD4680BD80B487B000AFF860B9601346FB710023FB750EE0FB7DFA68134418
:203F20001A78FB7DB9680B441B789A4201D0002307E0FB7D0133FB75FA7DFB799A42ECD31B
:203F4000012318461C37BD4680BC704780B500AF024B1B68984700BF80BD00BF2400002004
:203F600080B500AF024B1B68984700BF80BD00BF2800002080B500AF024B1B68984700BF59
:203F800080BD00BF2C00002080B582B000AF0523FB7106E0FB79184600F00BF8FB790133DC
:203FA000FB71FB793F2BF5D900BF00BF0837BD4680BD80B483B000AF0346FB7100BF1E4BF9
:203FC000DB6803F00103012BF9D01B4B1B69DB0903F00103012B05D1174B184A5A60164B0C
:203FE000174A5A60144B1B69134A43F002031361FB799B02104A03F1006353610E4B1B6967
:204000000D4A43F04003136100BF0B4BDB6803F00103012BF9D0084BDB68074A43F02003DE
:20402000D360054B1B69044A23F00203136100BF0C37BD4680BC7047002002402301674575
:20404000AB89EFCD80B487B000AFF860B9601346FB7100BF254BDB6803F00103012BF9D0C2
:20406000224B1B69DB0903F00103012B05D11F4B1F4A5A601D4B1F4A5A600023FB752BE0BC
:204080001A4B1B69194A43F001031361FB7D5B00BA6813441B88BB82FB7D5B00BA681A44AA
:2040A000FB6812881A80FB680233FB6000BF0F4BDB6803F00103012BF9D00C4BDB680B4A3F
:2040C00043F02003D360094B1B69084A23F001031361FB7D0133FB75FA7DFB799A42CFD31D
:2040E00000BF00BF1C37BD4680BC70470020024023016745AB89EFCD80B400AF054B1B6821
:20410000044A23F00403136030BF00BFBD4680BC704700BF10ED00E080B400AF0B4B1B68C8
:204120000A4A43F080531360094B1B68084A43F001031360074B1B68064A43F0040313600D
:2041400030BF00BFBD4680BC704700BF1C1002400070004010ED00E080B400AF0E4B1B6842
:204160000D4A43F0805313600C4B1B680B4A43F004031360094B1B68084A43F002031360BF
:20418000074B1B68064A43F00403136030BF00BFBD4680BC704700BF1C10024000700040CC
:2041A00010ED00E080B400AF064B1B6803F00103002B14BF01230023DBB21846BD4680BC05
:2041C000704700BF0470004080B485B000AFF8607A603B600B46FB72FB7A5A1E13469B0031
:2041E00013449B001A46FB68134408331968FB7A5A1E13469B0013449B001A46FB6813440A
:2042000008331A4621F001031360FB7A5A1E13469B0013449B001A46FB68134410331A46EB
:204220007B681360FB7A5A1E13469B0013449B001A46FB68134414331A463B681360FB7A09
:204240005A1E13469B0013449B001A46FB6813440C331A46BB691360FB7A5A1E13469B00CF
:2042600013449B001A46FB68134408331A4642F2C2031360FB7A5A1E13469B0013449B0058
:204280001A46FB68134408331968FB7A5A1E13469B0013449B001A46FB68134408331A46C0
:2042A00041F00103136000BF1437BD4680BC704780B582B000AF0346FB71FB79013B032BAD
:2042C00076D801A252F823F0D94200080F430008454300087B4300080B210220FEF772FB0D
:2042E000354B47221A80354B40F2E7321A80344B1B889BB2324A43F001039BB2138019209B
:20430000FEF73CFC03461A462E4B1A7050E000210120FEF757FB2C4B47221A802B4B40F2E9
:20432000E7321A802A4B1B889BB2294A43F001039BB213801C20FEF721FC03461A46214B78
:204340001A7035E001210120FEF73CFB214B47221A80214B40F2E7321A80204B1B889BB234
:204360001E4A43F001039BB213801D20FEF706FC03461A46134B1A701AE002210120FEF7C6
:2043800021FB174B23221A80164B40F2E7321A80154B1B889BB2144A43F001039BB21380B5
:2043A0001E20FEF7EBFB03461A46064B1A7000BF00BF0837BD4680BD282C01402C2C014035
:2043C0000C2C014000000020280000402C0000400C000040280400402C0400400C040040F8
:2043E000280800402C0800400C08004080B483B000AF0346FB71FB79013B032B30D801A231
:2044000052F823F015440008274400083D4400084F440008154B1B889BB2144A43F0010362
:204420009BB213801CE04FF080431B889BB24FF0804243F001039BB2138011E00C4B1B88AB
:204440009BB20B4A43F001039BB2138008E0094B1B889BB2074A43F001039BB2138000BF50
:2044600000BF0C37BD4680BC704700BF002C0140000400400008004080B483B000AF03462D
:20448000FB71FB79013B032B30D801A252F823F0A1440008B3440008C9440008DB440008A2
:2044A000154B1B889BB2144A23F001039BB213801CE04FF080431B889BB24FF0804223F055
:2044C00001039BB2138011E00C4B1B889BB20B4A23F001039BB2138008E0094B1B889BB248
:2044E000074A23F001039BB2138000BF00BF0C37BD4680BC704700BF002C0140000400404D
:204500000008004080B483B000AF03463960FB71FB79013B032B1BD801A252F823F000BF5F
:20452000314500083945000841450008494500080A4A3B6813600BE0094A3B68136007E0AE
:20454000084A3B68136003E0074A3B68136000BF00BF0C37BD4680BC704700BF30000020E3
:2045600034000020380000203C00002080B500AF0B4B1B889BB203F00103002B0ED0084BB6
:204580001B889BB2064A23F001039BB21380054B1B68002B02D0034B1B68984700BF80BD68
:2045A000102C01403000002080B500AF0B4B1B889BB203F00103002B0ED0084B1B889BB2C1
:2045C000064A23F001039BB21380054B1B68002B02D0034B1B68984700BF80BD10000040C8
:2045E0003400002080B500AF0B4B1B889BB203F00103002B0ED0084B1B889BB2064A23F097
:2046000001039BB21380054B1B68002B02D0034B1B68984700BF80BD10040040380000208E
:2046200080B500AF0E4B1B889BB203F00103002B13D00B4B1B889BB2094A23F001039BB24B
:204640001380084B1B680133064A1360064B1B68002B02D0044B1B68984700BF80BD00BFBD
:2046600010080040400000203C00002080B500AFFEF78CFB034941F29310FEF7EBFB00BF0A
:2046800080BD00BF0D47000880B483B000AF03463A60FB710B46BB80FB79032B01D9012331
:2046A0002CE03B68002B01D1022327E0FA79164913465B0013449B000B44BA881A80FA790C
:2046C000114913465B0013449B000B44023301221A80FA790C4913465B0013449B000B44DC
:2046E00008333A681A60FA79074913465B0013449B000B44043300221A70002318460C3704
:20470000BD4680BC704700BF4800002080B582B000AF0023BB710023FB7155E0FA79304967
:2047200013465B0013449B000B4404331B78002B47D1FA792A4913465B0013449B000B449C
:2047400002331B88013B98B2254913465B0013449B000B44023302461A80FA79204913464C
:204760005B0013449B000B4402331B88002B28D1F979FA791A480B465B000B449B0003447D
:204780001888174913465B0013449B000B44023302461A80FA79124913465B0013449B0099
:2047A0000B4408331B68002B0BD0FA790C4913465B0013449B000B4408331B689847012368
:2047C000BB71FB790133FB71FB79032BA6D9BB79002B01D100F042F900BF0837BD4680BDDE
:2047E0004800002080B483B000AF0346FB71FB79032B01D9012334E0FA791C4913465B0046
:2048000013449B000B4408331B68002B01D1022327E0FA79154913465B0013449B000B44AA
:20482000083300221A60FA79104913465B0013449B000B44043303221A70FA790B491346DA
:204840005B0013449B000B4400221A80FA79074913465B0013449B000B44023300221A8057
:20486000002318460C37BD4680BC70474800002080B483B000AF0346FB71FA790649134630
:204880005B0013449B000B44043301221A7000BF0C37BD4680BC70474800002080B483B0D1
:2048A00000AF0346FB71FA79064913465B0013449B000B44043300221A7000BF0C37BD46F5
:2048C00080BC70474800002080B483B000AF0346FB71FA79064913465B0013449B000B44FB
:2048E000043302221A7000BF0C37BD4680BC70474800002080B400AF00BFBD4680BC7047DB
:2049000080B586B000AF00237B6000237B6100233B611C4A1C4BD31A9B107B601B4B7B613F
:20492000194B3B610023FB600AE07A69131D7B613B69191D396112681A60FB680133FB60C6
:20494000FA687B689A42F0D3114A124BD31A9B107B60104B3B610023BB6007E03B691A1D51
:204960003A6100221A60BB680133BB60BA687B689A42F3D3FFF7BEFF00F092F800BF1837AC
:20498000BD4680BD0400002000000020004B0008800000200400002080B400AF00BFBD46D7
:2049A00080BC704780B500AFFDF7C2FF02210220FEF708F803210220FEF704F804210220B3
:2049C000FEF700F80E210220FDF7FCFF11210120FDF7F8FF12210120FDF7F4FF00BF80BD35
:2049E00080B500AF0B2209210020FEF797FA04220A210020FEF792FA0B220A210120FEF776
:204A00008DFA04220B210120FEF788FA0B2202210020FEF783FA042203210020FEF77EFA6C
:204A200001220D210220FEF779FAFFF701F800BF80BD80B500AF03490020FFF70DFA00BFA4
:204A400080BD00BFF04A000880B500AF02490120FFF702FA00BF80BDF84A000880B400AFAD
:204A6000044B1B680133034A136000BFBD4680BC704700BF7800002080B500AF074B1B789B
:204A800083F00103DAB2054B1A70044B1B781A460D210220FEF7A0FB00BF80BD7C0000207F
:204AA00080B500AFFFF77EFFFFF79AFF0B4A0A210120FFF7E9FD0A4A32210020FFF7E4FDF5
:204AC000084A14210220FFF7DFFD074A01210320FFF7DAFDFFF7CAFDFEE700BF334A000812
:204AE000494A0008794A00085D4A00080050002074657374310A000074657374320A00003A
:044B000001000000B0
:00000001FF
