:020000040800F2
:20000000005000203D020008D5020008D5020008D5020008D5020008D502000800000000CE
:20002000000000000000000000000000D5020008D502000800000000D5020008C90600084C
:20004000D5020008D5020008D5020008D5020008D5020008D5020008D5020008D5020008A8
:20006000D5020008D5020008D5020008D5020008D5020008D5020008D5020008D502000888
:20008000D5020008D5020008D5020008D5020008D5020008D5020008D5020008D502000868
:2000A000D5020008D5020008D5020008D5020008D5020008D5020008D5020008D502000848
:2000C000D5020008D5020008D5020008D5020008D5020008D5020008D5020008D50E00081C
:2000E000D5020008D502000800000000D5020008D5020008D5020008D5020008D5020008E7
:20010000D5020008D5020008D5020008D5020008D5020008D5020008D5020008D5020008E7
:20012000D5020008D5020008D5020008D502000880B500AF00F0D4F80221022000F01AF95B
:200140001121012000F016F90B220221002000F0E5FA04220321002000F0E0FA00F0D2FC1C
:20016000254B1B6804222549184600F01BFF244B1B68244A1360234B1B689B0E03F001032C
:20018000214A13601F4B1B68DB0E03F001031F4A13601C4B1B681B0F03F001031C4A1360F4
:2001A000174B1B68164A43F0807313601949012000F016FE164B1B68002B03D1134B1B6816
:2001C000002B0AD0144B154A1A60154B1B68154A1360144B1B6898470DE00B4B1B68002B7B
:2001E00009D00D4B104A1A60104B1B680D4A13600C4B1B689847FEE7000000200400002070
:2002000024100240200000201000002014000020180000205810000808ED00E00028000817
:20022000042800080C000020001400080414000880B400AF00BFBD4680BC704780B586B01F
:2002400000AF00237B6000237B6100233B611C4A1C4BD31A9B107B601B4B7B61194B3B61B1
:200260000023FB600AE07A69131D7B613B69191D396112681A60FB680133FB60FA687B6888
:200280009A42F0D3114A124BD31A9B107B60104B3B610023BB6007E03B691A1D3A610022E0
:2002A0001A60BB680133BB60BA687B689A42F3D3FFF7BEFFFFF73CFF00BF1837BD4680BD79
:2002C0000C0000200000002064100008380000200C00002080B400AF00BFBD4680BC70473A
:2002E00080B483B000AF0023FB80204A136843F00103136002E0FB880133FB801B4B1B68BE
:20030000C3F34003DBB2012B04D0FB8841F287329342F0D9164A13686FF310431360144AE9
:200320001368072161F395431360104A136843F08073136002E0FB880133FB800B4B1B6820
:20034000C3F34063DBB2012B04D0FB8841F287329342F0D9064A1368022161F301031360F1
:2003600000BF0C37BD4680BC704700BF001002400410024080B485B000AF03460A46FB7101
:200380001346BB710023FB73FB79022B02D90123FB7330E0BB791E2B02D90223FB732AE034
:2003A000FB79022B1CD0022B25DC002B02D0012B0BD020E0134B1B68BA79012101FA02F259
:2003C0001146104A0B43136015E00F4B1B68BA79012101FA02F211460B4A0B4313600AE03E
:2003E0000A4B1B68BA79012101FA02F21146074A0B43136000BFFB7B18461437BD4680BC5B
:20040000704700BF141002401C1002401810024080B485B000AF03460A46FB711346BB7186
:200420000023FB73FB79022B02D90123FB7333E0BB791E2B02D90223FB732DE0FB79022B71
:200440001ED0022B28DC002B02D0012B0CD023E0144B1B68BA79012101FA02F2D2431146E3
:20046000104A0B40136017E00F4B1B68BA79012101FA02F2D24311460B4A0B4013600BE0E2
:200480000A4B1B68BA79012101FA02F2D2431146064A0B40136000BFFB7B18461437BD46E5
:2004A00080BC7047141002401C1002401810024080B485B000AF03460A46FB711346BB7169
:2004C0000023FB73FB79022B02D90123FB7323E0BB791E2B02D90223FB731DE0FB79012BF2
:2004E00002D0022B0BD015E00E4B1B68BA79012101FA02F211460B4A0B4313600CE00A4B5F
:200500001B68BA79012101FA02F21146064A0B43136001E00123FB73FB7B18461437BD4617
:2005200080BC7047101002400C10024080B400AF044A13686FF38203136000BFBD4680BC04
:20054000704700BF10E000E080B584B000AF78607B6841F2941202FB03F3FB600C4B0022E2
:200560001A600C4AFB6813600B4A136843F00103136000BF084B1B68C3F30043DBB2002B15
:20058000F8D000F079F800BF1037BD4680BD00BF18E000E014E000E010E000E080B485B048
:2005A00000AF786039600123FB733B68002B03D10223FB73FB7B20E0124A13686FF30003A2
:2005C0001360114B00221A60104B00221A600023FB730D4A7B6813600A4A136843F0010375
:2005E00013600B4A3B6813600A4B00221A70054A136843F002031360FB7B18461437BD4685
:2006000080BC704710E000E014E000E018E000E0240000202800002080B485B000AF7860EF
:2006200039600123FB733B68002B02D10223FB7314E00023FB730C4A3B6813600B4A7B6832
:2006400013600B4B01221A700A4A136843F002031360084A136843F001031360FB7B18465F
:200660001437BD4680BC70472400002014E000E02800002010E000E080B400AF044A13685D
:200680006FF30003136000BFBD4680BC704700BF10E000E080B400AF044B1A68044B1B68B8
:2006A000D31A1846BD4680BC704700BF14E000E018E000E080B400AF024B1B681846BD467A
:2006C00080BC704718E000E080B500AF0E4B1B78002B0FD10D4A13686FF3410313600B4A34
:2006E00013686FF300031360094B00221A60094B00221A60084B1B689847044A13686FF3E7
:200700001043136000BF80BD2800002010E000E014E000E018E000E02400002080B485B0A6
:2007200000AF0346FB710B46BB7113467B710023FB73FB79022B02D90123FB73B4E0BB792C
:200740000F2B02D90223FB73AEE0BB79072B52D8FB79022B37D0022B00F3A680002B02D0E8
:20076000012B18D0A0E0534B1B68BA7992000F2101FA02F2D24311464E4A0B4013604D4B86
:200780001B687979BA79920001FA02F21146494A0B43136088E0484B1B68BA7992000F2112
:2007A00001FA02F2D2431146434A0B401360424B1B687979BA79920001FA02F211463E4AFE
:2007C0000B43136070E03D4B1B68BA7992000F2101FA02F2D2431146384A0B401360374BEB
:2007E0001B687979BA79920001FA02F21146334A0B43136058E0BB79072B54D9BB79083BF9
:20080000BB71FB79022B36D0022B4DDC002B02D0012B18D048E02A4B1B68BA7992000F2189
:2008200001FA02F2D2431146254A0B401360244B1B687979BA79920001FA02F21146204AD7
:200840000B43136030E01F4B1B68BA7992000F2101FA02F2D24311461A4A0B401360194B04
:200860001B687979BA79920001FA02F21146154A0B43136018E0144B1B68BA7992000F2109
:2008800001FA02F2D24311460F4A0B4013600E4B1B687979BA79920001FA02F211460A4AB9
:2008A0000B43136000E000BFFB7B18461437BD4680BC704700080140000C014000100140DC
:2008C00004080140040C01400410014080B485B000AF03463A60FB710B46BB710023FB73B0
:2008E000FB79022B02D90123FB7333E0BB790F2B02D90223FB732DE0FB79022B1ED0022B32
:2009000028DC002B02D0012B0CD023E0144B1A68BB7922FA03F3DBB203F00103DAB23B68F1
:200920001A7017E00F4B1A68BB7922FA03F3DBB203F00103DAB23B681A700BE00A4B1A6815
:20094000BB7922FA03F3DBB203F00103DAB23B681A7000BFFB7B18461437BD4680BC704740
:2009600008080140080C01400810014080B485B000AF03463960FB710023FB73FB79022BE0
:2009800002D90123FB731BE0FB79022B12D0022B16DC002B02D0012B06D011E00B4B1B6884
:2009A0009AB23B681A800BE0094B1B689AB23B681A8005E0074B1B689AB23B681A8000BF61
:2009C000FB7B18461437BD4680BC704708080140080C01400810014080B485B000AF0346A2
:2009E000FB710B46BB7113467B710023FB73FB79012B02D90123FB7344E0BB790F2B02D9BE
:200A00000223FB733EE07B79012B1BD1FB79022B12D0022B36DC002B02D0012B06D031E047
:200A2000BB7901229A401A4B1A602BE0BB7901229A40184B1A6025E0BB7901229A40164BF6
:200A40001A601FE07B79002B1BD1FB79022B12D0022B17DC002B02D0012B06D012E0BB794A
:200A600001229A400D4B1A600CE0BB7901229A400B4B1A6006E0BB7901229A40094B1A60D5
:200A800000E000BFFB7B18461437BD4680BC704710080140100C014010100140140801402E
:200AA000140C01401410014080B485B000AF03460A46FB711346BB800023FB73FB79012B8E
:200AC00002D90123FB7312E0FB79022B0ED0022B0DDC002B02D0012B04D008E0074ABB88A9
:200AE000136004E0064ABB88136000E000BFFB7B18461437BD4680BC704700BF0C080140D1
:200B00000C0C014080B485B000AFF4237B607B682F4AA2FB03235B09FB60FB68642202FBAE
:200B200003F37A68D31A3B603B681B013233284AA2FB03235B09BB60BB680F2B04D9FB68E0
:200B40000133FB600023BB60224AFB68C3F30B0399B2136861F30F1313601E4ABB6803F008
:200B60000F03D9B2136861F3030313601A4A13686FF30C331360184A13686FF38A2313603E
:200B8000154A13686FF3C7131360134A13686FF386131360104A13686FF3451313600F4A2B
:200BA00013686FF3CC2313600B4A136843F008031360094A136843F004031360064A13682F
:200BC00043F40053136000BF1437BD4680BC70471F85EB51084400400C4400401044004088
:200BE00080B483B000AF03460A46FB711346BB71FB79022B2ED0022B40DC002B02D0012B44
:200C000014D03BE000BF204B1B68C3F3C013DBB2012BF8D11D4ABB79136000BF1A4B1B6868
:200C2000C3F38013DBB2012BF8D127E000BF184B1B68C3F3C013DBB2012BF8D1154ABB799F
:200C4000136000BF124B1B68C3F38013DBB2012BF8D113E000BF104B1B68C3F3C013DBB211
:200C6000012BF8D10D4ABB79136000BF0A4B1B68C3F38013DBB2012BF8D100BF00BF0C375E
:200C8000BD4680BC704700BF00380140043801400044004004440040004800400448004089
:200CA00080B584B000AF03463960FB710323FB600DE0FB68DB003A6822FA03F3DAB2FB796E
:200CC00011461846FFF78CFFFB68013BFB60FB68002BEEDA00BF00BF1037BD4680BD80B455
:200CE00085B000AF03463960FB710023FB600023FB723B68002B01D10223FB72FB79002BE3
:200D00001BD102E0FB680133FB602D4B1B68C3F34013DBB2002B03D1FB682A4A9342F1D90D
:200D2000FB68294A934202D10323FB7242E0274B1B68DAB23B681A703CE0FB79012B1BD12A
:200D400002E0FB680133FB60214B1B68C3F34013DBB2002B03D1FB681A4A9342F1D9FB6872
:200D6000194A934202D10323FB7223E0194B1B68DAB23B681A701DE0FB79022B1AD102E0C7
:200D8000FB680133FB60144B1B68C3F34013DBB2002B03D1FB680B4A9342F1D9FB680A4ADC
:200DA000934202D10323FB7204E00C4B1B68DAB23B681A70FB7A18461437BD4680BC70476D
:200DC000003801409F860100A08601000438014000440040044400400048004004480040B0
:200DE00080B584B000AF03463960FB710023FB730023BB733B68002B0ED10223FB7311E07A
:200E0000BB7B3A6813441A78FB7911461846FFF7E7FEBB7B0133BB73BB7B3A6813441B78B3
:200E2000002BEDD1FB7B18461037BD4680BD80B584B000AF03463960FB711346BB71002360
:200E4000FB731AE007F10E02FB7911461846FFF746FFBB7B0A2B02D0BB7B0D2B05D1FB7BC7
:200E60003A68134400221A700DE0FB7B5A1CFA731A463B681344BA7B1A70FA7BBB79013B89
:200E80009A42DFDB00BF00BF1037BD4680BD80B487B000AFF860B9601346FB710023FB75D4
:200EA0000EE0FB7DFA6813441A78FB7DB9680B441B789A4201D0002307E0FB7D0133FB7533
:200EC000FA7DFB799A42ECD3012318461C37BD4680BC704780B500AF024B1B68984700BF6F
:200EE00080BD00BF3400002080B582B000AF0A23FB7106E0FB79184600F00BF8FB790133A0
:200F0000FB71FB793F2BF5D900BF00BF0837BD4680BD80B483B000AF0346FB7100BF1E4BC9
:200F2000DB6803F00103012BF9D01B4B1B69DB0903F00103012B05D1174B184A5A60164BDC
:200F4000174A5A60144B1B69134A43F002031361FB799B02104A03F1006353610E4B1B6937
:200F60000D4A43F04003136100BF0B4BDB6803F00103012BF9D0084BDB68074A43F02003AF
:200F8000D360054B1B69044A23F00203136100BF0C37BD4680BC7047002002402301674546
:200FA000AB89EFCD80B487B000AFF860B9601346FB7100BF254BDB6803F00103012BF9D093
:200FC000224B1B69DB0903F00103012B05D11F4B1F4A5A601D4B1F4A5A600023FB752BE08D
:200FE0001A4B1B69194A43F001031361FB7D5B00BA6813441B88BB82FB7D5B00BA681A447B
:20100000FB6812881A80FB680233FB6000BF0F4BDB6803F00103012BF9D00C4BDB680B4A0F
:2010200043F02003D360094B1B69084A23F001031361FB7D0133FB75FA7DFB799A42CFD3ED
:2010400000BF00BF1C37BD4680BC70470020024023016745AB89EFCD0A424D0A0000000004
:1010600000500020F01300083333222211114444B1
:2014000000500020A9180008411900084119000841190008411900084119000800000000A9
:2014200000000000000000000000000041190008411900080000000041190008351D00082C
:2014400041190008411900084119000841190008411900084119000841190008411900087C
:2014600041190008411900084119000841190008411900084119000841190008411900085C
:2014800041190008411900084119000841190008411900084119000841190008411900083C
:2014A00041190008411900084119000841190008411900084119000841190008411900081C
:2014C0004119000841190008411900084119000841190008411900084119000839250008F8
:2014E00041190008411900080000000041190008411900084119000841190008411900083E
:201500004119000841190008411900084119000841190008411900084119000841190008BB
:201520004119000841190008411900084119000880B500AF00F00AFA00F02EFB03210220EC
:2015400000F04EFA1221012000F04AFA0B220A21012000F019FC04220B21012000F014FCDA
:2015600000F006FE00BF80BD80B582B000AFFFF7DFFF1349022000F065FF00F0E7FF11498F
:20158000022000F05FFF0023FB7103E0FB79184600F036F9FB1D1946022000F0D2FE0346D6
:2015A000002BF3D003E00849022000F04BFFFB1D1946022000F0C5FE0346032BF3D0E2E75E
:2015C000BC260008C4260008DC26000880B588B000AF78600023FB837B6801331A787B6804
:2015E00002331B781946104600F0EAF80346BB767B6803331A787B6804331B781946104615
:2016000000F0DEF803467B767B6805331A787B6806331B781946104600F0D2F803463B7605
:201620007B7E1B021AB23B7E1BB213431BB2BB837B6807331A787B6808331B7819461046CC
:2016400000F0BEF80346FB75BB7E9AB27B7E9BB213449AB23B7E9BB213449AB2FB7D9BB24F
:2016600013449AB2FB8B1344FB83FB7D002B50D10023FB7648E0FB7E5B0009331A467B6899
:2016800013441A78FB7E05335B0019467B680B441B781946104600F093F80346BB75FB7E0F
:2016A0005B000B331A467B6813441A78FB7E06335B0019467B680B441B781946104600F08F
:2016C0007FF803467B757B7D1B021AB2BB7D1BB213431BB29BB2FB817B7D9AB2BB7D9BB2BF
:2016E00013449AB2FB8B1344FB83BB8B03F1006307F10E010122184600F086FFBB8B0233D7
:20170000BB83FB7E0233FB76FA7EBB7E9A42B2D308E0FB7D012B05D11349022000F092FEFA
:20172000FF231DE0BB7E5B0009331A467B6813441A78BB7E05335B0019467B680B441B789E
:201740001946104600F03CF803463B753B7D9AB2FB8B1344FB83FB8BDBB23B613B69DBB278
:2017600018462037BD4680BDE426000880B485B000AF0346FB710023FB73FB792F2B06D957
:20178000FB79392B03D8FB79303BFB7312E0FB79402B06D9FB79462B03D8FB79373BFB7385
:2017A00008E0FB79602B05D9FB79662B02D8FB79573BFB73FB7B18461437BD4680BC7047FC
:2017C00080B584B000AF03460A46FB711346BB71BB791846FFF7CAFF0346FB73FB7918468D
:2017E000FFF7C4FF0346BB73BB7B1B015AB297F90F3013435BB2DBB218461037BD4680BDB7
:2018000080B584B000AF0346FB71FB790A2B02D0FB790D2B1CD11B4B1B88002B14D0194B6B
:201820001B881A46184B002199541748FFF7CEFE0346FB73FB7BFF2B06D11449022000F076
:2018400001FE134B134A1A600E4B00221A8015E00C4B1B883E2B0AD80A4B1B885A1C91B254
:20186000084A11801946084AFB79535406E00A49022000F0E7FD034B00221A8000BF10377A
:20188000BD4680BD4200002000000020F82600080CED00E00400FA050827000880B400AF6A
:2018A00000BFBD4680BC704780B586B000AF00237B6000237B6100233B611C4A1C4BD31AE3
:2018C0009B107B601B4B7B61194B3B610023FB600AE07A69131D7B613B69191D39611268FB
:2018E0001A60FB680133FB60FA687B689A42F0D3114A124BD31A9B107B60104B3B61002353
:20190000BB6007E03B691A1D3A6100221A60BB680133BB60BA687B689A42F3D3FFF7BEFFE7
:20192000FFF722FE00BF1837BD4680BD00000020000000201C270008580000200000002020
:2019400080B400AF00BFBD4680BC704780B483B000AF0023FB80204A136843F001031360AC
:2019600002E0FB880133FB801B4B1B68C3F34003DBB2012B04D0FB8841F287329342F0D9D7
:20198000164A13686FF310431360144A1368072161F395431360104A136843F08073136036
:2019A00002E0FB880133FB800B4B1B68C3F34063DBB2012B04D0FB8841F287329342F0D947
:2019C000064A1368022161F30103136000BF0C37BD4680BC704700BF0010024004100240EF
:2019E00080B485B000AF03460A46FB711346BB710023FB73FB79022B02D90123FB7330E096
:201A0000BB791E2B02D90223FB732AE0FB79022B1CD0022B25DC002B02D0012B0BD020E012
:201A2000134B1B68BA79012101FA02F21146104A0B43136015E00F4B1B68BA79012101FAED
:201A400002F211460B4A0B4313600AE00A4B1B68BA79012101FA02F21146074A0B431360B6
:201A600000BFFB7B18461437BD4680BC704700BF141002401C1002401810024080B485B02C
:201A800000AF03460A46FB711346BB710023FB73FB79022B02D90123FB7333E0BB791E2BDE
:201AA00002D90223FB732DE0FB79022B1ED0022B28DC002B02D0012B0CD023E0144B1B6801
:201AC000BA79012101FA02F2D2431146104A0B40136017E00F4B1B68BA79012101FA02F226
:201AE000D24311460B4A0B4013600BE00A4B1B68BA79012101FA02F2D2431146064A0B4059
:201B0000136000BFFB7B18461437BD4680BC7047141002401C1002401810024080B485B0D7
:201B200000AF03460A46FB711346BB710023FB73FB79022B02D90123FB7323E0BB791E2B4D
:201B400002D90223FB731DE0FB79012B02D0022B0BD015E00E4B1B68BA79012101FA02F28B
:201B600011460B4A0B4313600CE00A4B1B68BA79012101FA02F21146064A0B43136001E0A7
:201B80000123FB73FB7B18461437BD4680BC7047101002400C10024080B400AF044A136832
:201BA0006FF38203136000BFBD4680BC704700BF10E000E080B584B000AF78607B6841F281
:201BC000941202FB03F3FB600C4B00221A600C4AFB6813600B4A136843F00103136000BFB9
:201BE000084B1B68C3F30043DBB2002BF8D000F079F800BF1037BD4680BD00BF18E000E058
:201C000014E000E010E000E080B485B000AF786039600123FB733B68002B03D10223FB73D0
:201C2000FB7B20E0124A13686FF300031360114B00221A60104B00221A600023FB730D4AA8
:201C40007B6813600A4A136843F0010313600B4A3B6813600A4B00221A70054A136843F04C
:201C600002031360FB7B18461437BD4680BC704710E000E014E000E018E000E044000020F7
:201C80004800002080B485B000AF786039600123FB733B68002B02D10223FB7314E0002376
:201CA000FB730C4A3B6813600B4A7B6813600B4B01221A700A4A136843F002031360084AD0
:201CC000136843F001031360FB7B18461437BD4680BC70474400002014E000E0480000202A
:201CE00010E000E080B400AF044A13686FF30003136000BFBD4680BC704700BF10E000E04C
:201D000080B400AF044B1A68044B1B68D31A1846BD4680BC704700BF14E000E018E000E091
:201D200080B400AF024B1B681846BD4680BC704718E000E080B500AF0E4B1B78002B0FD1E9
:201D40000D4A13686FF3410313600B4A13686FF300031360094B00221A60094B00221A6010
:201D6000084B1B689847044A13686FF31043136000BF80BD4800002010E000E014E000E0B5
:201D800018E000E04400002080B485B000AF0346FB710B46BB7113467B710023FB73FB7973
:201DA000022B02D90123FB73B4E0BB790F2B02D90223FB73AEE0BB79072B52D8FB79022B5A
:201DC00037D0022B00F3A680002B02D0012B18D0A0E0534B1B68BA7992000F2101FA02F220
:201DE000D24311464E4A0B4013604D4B1B687979BA79920001FA02F21146494A0B431360B5
:201E000088E0484B1B68BA7992000F2101FA02F2D2431146434A0B401360424B1B687979A7
:201E2000BA79920001FA02F211463E4A0B43136070E03D4B1B68BA7992000F2101FA02F20F
:201E4000D2431146384A0B401360374B1B687979BA79920001FA02F21146334A0B43136096
:201E600058E0BB79072B54D9BB79083BBB71FB79022B36D0022B4DDC002B02D0012B18D0E6
:201E800048E02A4B1B68BA7992000F2101FA02F2D2431146254A0B401360244B1B687979C1
:201EA000BA79920001FA02F21146204A0B43136030E01F4B1B68BA7992000F2101FA02F20B
:201EC000D24311461A4A0B401360194B1B687979BA79920001FA02F21146154A0B43136070
:201EE00018E0144B1B68BA7992000F2101FA02F2D24311460F4A0B4013600E4B1B687979D3
:201F0000BA79920001FA02F211460A4A0B43136000E000BFFB7B18461437BD4680BC7047ED
:201F200000080140000C01400010014004080140040C01400410014080B485B000AF034666
:201F40003A60FB710B46BB710023FB73FB79022B02D90123FB7333E0BB790F2B02D90223DE
:201F6000FB732DE0FB79022B1ED0022B28DC002B02D0012B0CD023E0144B1A68BB7922FAED
:201F800003F3DBB203F00103DAB23B681A7017E00F4B1A68BB7922FA03F3DBB203F0010371
:201FA000DAB23B681A700BE00A4B1A68BB7922FA03F3DBB203F00103DAB23B681A7000BF64
:201FC000FB7B18461437BD4680BC704708080140080C01400810014080B485B000AF03468C
:201FE0003960FB710023FB73FB79022B02D90123FB731BE0FB79022B12D0022B16DC002B75
:2020000002D0012B06D011E00B4B1B689AB23B681A800BE0094B1B689AB23B681A8005E069
:20202000074B1B689AB23B681A8000BFFB7B18461437BD4680BC704708080140080C0140C8
:202040000810014080B485B000AF0346FB710B46BB7113467B710023FB73FB79012B02D98C
:202060000123FB7344E0BB790F2B02D90223FB733EE07B79012B1BD1FB79022B12D0022BF4
:2020800036DC002B02D0012B06D031E0BB7901229A401A4B1A602BE0BB7901229A40184B6F
:2020A0001A6025E0BB7901229A40164B1A601FE07B79002B1BD1FB79022B12D0022B17DCE8
:2020C000002B02D0012B06D012E0BB7901229A400D4B1A600CE0BB7901229A400B4B1A601F
:2020E00006E0BB7901229A40094B1A6000E000BFFB7B18461437BD4680BC704710080140EE
:20210000100C01401010014014080140140C01401410014080B485B000AF03460A46FB71C1
:202120001346BB800023FB73FB79012B02D90123FB7312E0FB79022B0ED0022B0DDC002BBB
:2021400002D0012B04D008E0074ABB88136004E0064ABB88136000E000BFFB7B1846143716
:20216000BD4680BC704700BF0C0801400C0C014080B485B000AFF4237B607B682D4AA2FBFB
:2021800003235B09FB60FB68642202FB03F37A68D31A3B603B681B013233264AA2FB0323BD
:2021A0005B09BB60BB680F2B04D9FB680133FB600023BB60204AFB68C3F30B0399B21368DF
:2021C00061F30F1313601C4ABB6803F00F03D9B2136861F303031360184A13686FF30C3337
:2021E0001360164A13686FF38A231360134A13686FF3C7131360114A13686FF38613136044
:202200000F4A13686FF3CC2313600C4A136843F008031360094A136843F004031360074AD8
:20222000136843F40053136000BF1437BD4680BC704700BF1F85EB51084800400C48004063
:202240001048004080B483B000AF03460A46FB711346BB71FB79022B2ED0022B40DC002B33
:2022600002D0012B14D03BE000BF204B1B68C3F3C013DBB2012BF8D11D4ABB79136000BFDC
:202280001A4B1B68C3F38013DBB2012BF8D127E000BF184B1B68C3F3C013DBB2012BF8D1D4
:2022A000154ABB79136000BF124B1B68C3F38013DBB2012BF8D113E000BF104B1B68C3F368
:2022C000C013DBB2012BF8D10D4ABB79136000BF0A4B1B68C3F38013DBB2012BF8D100BF8A
:2022E00000BF0C37BD4680BC704700BF00380140043801400044004004440040004800409D
:202300000448004080B584B000AF03463960FB710323FB600DE0FB68DB003A6822FA03F36B
:20232000DAB2FB7911461846FFF78CFFFB68013BFB60FB68002BEEDA00BF00BF1037BD464F
:2023400080BD80B485B000AF03463960FB710023FB600023FB723B68002B01D10223FB729A
:20236000FB79002B1BD102E0FB680133FB602D4B1B68C3F34013DBB2002B03D1FB682A4A97
:202380009342F1D9FB68294A934202D10323FB7242E0274B1B68DAB23B681A703CE0FB792D
:2023A000012B1BD102E0FB680133FB60214B1B68C3F34013DBB2002B03D1FB681A4A934211
:2023C000F1D9FB68194A934202D10323FB7223E0194B1B68DAB23B681A701DE0FB79022BF1
:2023E0001AD102E0FB680133FB60144B1B68C3F34013DBB2002B03D1FB680B4A9342F1D950
:20240000FB680A4A934202D10323FB7204E00C4B1B68DAB23B681A70FB7A18461437BD4632
:2024200080BC7047003801409F860100A086010004380140004400400444004000480040D2
:202440000448004080B584B000AF03463960FB710023FB730023BB733B68002B0ED10223D6
:20246000FB7311E0BB7B3A6813441A78FB7911461846FFF7E7FEBB7B0133BB73BB7B3A68C8
:2024800013441B78002BEDD1FB7B18461037BD4680BD80B584B000AF03463960FB7113464F
:2024A000BB710023FB731AE007F10E02FB7911461846FFF746FFBB7B0A2B02D0BB7B0D2B4E
:2024C00005D1FB7B3A68134400221A700DE0FB7B5A1CFA731A463B681344BA7B1A70FA7B37
:2024E000BB79013B9A42DFDB00BF00BF1037BD4680BD80B487B000AFF860B9601346FB7181
:202500000023FB750EE0FB7DFA6813441A78FB7DB9680B441B789A4201D0002307E0FB7DCD
:202520000133FB75FA7DFB799A42ECD3012318461C37BD4680BC704780B500AF024B1B68F2
:20254000984700BF80BD00BF5400002080B582B000AF0A23FB7106E0FB79184600F00BF813
:20256000FB790133FB71FB793F2BF5D900BF00BF0837BD4680BD80B483B000AF0346FB71D3
:2025800000BF1E4BDB6803F00103012BF9D01B4B1B69DB0903F00103012B05D1174B184A59
:2025A0005A60164B174A5A60144B1B69134A43F002031361FB799B02104A03F10063536183
:2025C0000E4B1B690D4A43F04003136100BF0B4BDB6803F00103012BF9D0084BDB68074AB2
:2025E00043F02003D360054B1B69044A23F00203136100BF0C37BD4680BC7047002002404A
:2026000023016745AB89EFCD80B487B000AFF860B9601346FB7100BF254BDB6803F0010341
:20262000012BF9D0224B1B69DB0903F00103012B05D11F4B1F4A5A601D4B1F4A5A6000239C
:20264000FB752BE01A4B1B69194A43F001031361FB7D5B00BA6813441B88BB82FB7D5B0009
:20266000BA681A44FB6812881A80FB680233FB6000BF0F4BDB6803F00103012BF9D00C4BB1
:20268000DB680B4A43F02003D360094B1B69084A23F001031361FB7D0133FB75FA7DFB795D
:2026A0009A42CFD300BF00BF1C37BD4680BC70470020024023016745AB89EFCD0A62746C67
:2026C000640A00000A4170706C69636174696F6E204572617365640A0000000049444C4572
:2026E0000A0000000A736F6674776172652075706461746564200A00454F46207265636591
:1C270000697665640A0000004C696E6520746F6F206C6F6E67210A0000500020A6
:20280000005000209D290008352A0008352A0008352A0008352A0008352A00080000000077
:20282000000000000000000000000000352A0008352A000800000000352A00080D3000081E
:20284000352A0008352A0008352A0008352A0008352A0008352A0008DD360008F5360008C0
:202860000D370008253700083D370008352A0008352A0008352A0008352A0008352A000829
:20288000352A0008352A0008352A0008352A0008352A0008352A0008352A0008352A000800
:2028A000352A0008352A0008352A0008352A0008352A0008352A0008352A0008352A0008E0
:2028C000352A0008352A0008352A0008353A00085D3A0008494000085D40000871400008BE
:2028E000352A0008352A000800000000352A0008352A0008352A0008352A0008352A000807
:20290000352A0008352A0008352A0008352A0008352A0008352A0008352A0008352A00087F
:20292000352A0008352A0008352A0008352A000880B500AF00F00EF800F01AF84FF49670D6
:2029400000F0BAFA0249002001F004FBF6E700BFBCEA000880B500AF00F072F802210220AB
:2029600000F0B8F80E21022000F0B4F800BF80BD80B500AF0B220921002000F051FB042211
:202980000A21002000F04CFB01F0D0F800BF80BD80B400AF00BFBD4680BC704780B586B0FD
:2029A00000AF00237B6000237B6100233B611C4A1C4BD31A9B107B601B4B7B61194B3B612A
:2029C0000023FB600AE07A69131D7B613B69191D396112681A60FB680133FB60FA687B6801
:2029E0009A42F0D3114A124BD31A9B107B60104B3B610023BB6007E03B691A1D3A61002259
:202A00001A60BB680133BB60BA687B689A42F3D3FFF7BEFFFFF78CFF00BF1837BD4680BDA1
:202A20000000002000000020C8EA0008380000200000002080B400AF00BFBD4680BC70478C
:202A400080B483B000AF0023FB80204A136843F00103136002E0FB880133FB801B4B1B6836
:202A6000C3F34003DBB2012B04D0FB8841F287329342F0D9164A13686FF310431360144A62
:202A80001368072161F395431360104A136843F08073136002E0FB880133FB800B4B1B6899
:202AA000C3F34063DBB2012B04D0FB8841F287329342F0D9064A1368022161F3010313606A
:202AC00000BF0C37BD4680BC704700BF001002400410024080B485B000AF03460A46FB717A
:202AE0001346BB710023FB73FB79022B02D90123FB7330E0BB791E2B02D90223FB732AE0AD
:202B0000FB79022B1CD0022B25DC002B02D0012B0BD020E0134B1B68BA79012101FA02F2D1
:202B20001146104A0B43136015E00F4B1B68BA79012101FA02F211460B4A0B4313600AE0B6
:202B40000A4B1B68BA79012101FA02F21146074A0B43136000BFFB7B18461437BD4680BCD3
:202B6000704700BF141002401C1002401810024080B485B000AF03460A46FB711346BB71FF
:202B80000023FB73FB79022B02D90123FB7333E0BB791E2B02D90223FB732DE0FB79022BEA
:202BA0001ED0022B28DC002B02D0012B0CD023E0144B1B68BA79012101FA02F2D24311465C
:202BC000104A0B40136017E00F4B1B68BA79012101FA02F2D24311460B4A0B4013600BE05B
:202BE0000A4B1B68BA79012101FA02F2D2431146064A0B40136000BFFB7B18461437BD465E
:202C000080BC7047141002401C1002401810024080B485B000AF03460A46FB711346BB71E1
:202C20000023FB73FB79022B02D90123FB7323E0BB791E2B02D90223FB731DE0FB79012B6A
:202C400002D0022B0BD015E00E4B1B68BA79012101FA02F211460B4A0B4313600CE00A4BD7
:202C60001B68BA79012101FA02F21146064A0B43136001E00123FB73FB7B18461437BD4690
:202C800080BC7047101002400C10024080B485B000AF0346FB710023FB73FB791F2B05D888
:202CA000FB7901229A400B4B1A600DE0FB793B2B08D8FB79203BFB71FB7901229A40064B2F
:202CC0001A6001E00123FB73FB7B18461437BD4680BC704700E100E004E100E080B485B003
:202CE00000AF0346FB710023FB73FB791F2B05D8FB7901229A400B4B1A600DE0FB793B2B3C
:202D000008D8FB79203BFB71FB7901229A40064B1A6001E00123FB73FB7B18461437BD46C7
:202D200080BC704780E100E084E100E080B485B000AF0346FB710023FB73FB791F2B05D821
:202D4000FB7901229A400B4B1A600DE0FB793B2B08D8FB79203BFB71FB7901229A40064B8E
:202D60001A6001E00123FB73FB7B18461437BD4680BC704700E200E004E200E080B485B060
:202D800000AF0346FB710023FB73FB791F2B05D8FB7901229A400B4B1A600DE0FB793B2B9B
:202DA00008D8FB79203BFB71FB7901229A40064B1A6001E00123FB73FB7B18461437BD4627
:202DC00080BC704780E200E084E200E080B485B000AF03463960FB710023FB73FB791F2BC3
:202DE0000BD8134B1A68FB7922FA03F3DBB203F00103DAB23B681A7013E0FB793B2B0ED89A
:202E0000FB79203BFB710B4B1A68FB7922FA03F3DBB203F00103DAB23B681A7001E00123D7
:202E2000FB73FB7B18461437BD4680BC704700BF00E300E004E300E080B485B000AF034665
:202E4000FB710B46BB7113467B71124B124A1A600223FB7397F90730002B16DB97F90730D4
:202E6000002B12DBBA79FB7B02FA03F35AB297F9053013435BB2DAB297F9073003F1604381
:202E800003F564431201D2B21A7000BF1437BD4680BC70470CED00E00005FA0580B400AFB2
:202EA000044A13686FF38203136000BFBD4680BC704700BF10E000E080B584B000AF7860BB
:202EC0007B6841F2941202FB03F3FB600C4B00221A600C4AFB6813600B4A136843F00103C2
:202EE000136000BF084B1B68C3F30043DBB2002BF8D000F063F800BF1037BD4680BD00BF01
:202F000018E000E014E000E010E000E080B485B000AF786039600123FB733B68002B02D179
:202F20000223FB7311E00023FB730B4A3B6813600A4A7B6813600A4A136843F002031360ED
:202F4000074A136843F001031360FB7B18461437BD4680BC704700BF0C00002014E000E027
:202F600010E000E080B485B000AF786039600123FB733B68002B02D10223FB7311E000231E
:202F8000FB730B4A3B6813600A4A7B6813600A4A136843F002031360074A136843F0010331
:202FA0001360FB7B18461437BD4680BC704700BF0C00002014E000E010E000E080B400AF17
:202FC000044A13686FF30003136000BFBD4680BC704700BF10E000E080B400AF044B1A6858
:202FE000044B1B68D31A1846BD4680BC704700BF14E000E018E000E080B400AF024B1B68A0
:203000001846BD4680BC704718E000E080B500AF024B1B68984700BF80BD00BF0C0000200A
:2030200080B485B000AF0346FB710B46BB7113467B710023FB73FB79022B02D90123FB7362
:20304000B4E0BB790F2B02D90223FB73AEE0BB79072B52D8FB79022B37D0022B00F3A680F4
:20306000002B02D0012B18D0A0E0534B1B68BA7992000F2101FA02F2D24311464E4A0B406B
:2030800013604D4B1B687979BA79920001FA02F21146494A0B43136088E0484B1B68BA79A0
:2030A00092000F2101FA02F2D2431146434A0B401360424B1B687979BA79920001FA02F2F2
:2030C00011463E4A0B43136070E03D4B1B68BA7992000F2101FA02F2D2431146384A0B40D8
:2030E0001360374B1B687979BA79920001FA02F21146334A0B43136058E0BB79072B54D952
:20310000BB79083BBB71FB79022B36D0022B4DDC002B02D0012B18D048E02A4B1B68BA79AB
:2031200092000F2101FA02F2D2431146254A0B401360244B1B687979BA79920001FA02F2AD
:203140001146204A0B43136030E01F4B1B68BA7992000F2101FA02F2D24311461A4A0B40F1
:203160001360194B1B687979BA79920001FA02F21146154A0B43136018E0144B1B68BA79CB
:2031800092000F2101FA02F2D24311460F4A0B4013600E4B1B687979BA79920001FA02F279
:2031A00011460A4A0B43136000E000BFFB7B18461437BD4680BC704700080140000C014059
:2031C0000010014004080140040C01400410014080B485B000AF03463A60FB710B46BB71C7
:2031E0000023FB73FB79022B02D90123FB7333E0BB790F2B02D90223FB732DE0FB79022B93
:203200001ED0022B28DC002B02D0012B0CD023E0144B1A68BB7922FA03F3DBB203F00103DC
:20322000DAB23B681A7017E00F4B1A68BB7922FA03F3DBB203F00103DAB23B681A700BE094
:203240000A4B1A68BB7922FA03F3DBB203F00103DAB23B681A7000BFFB7B18461437BD4633
:2032600080BC704708080140080C01400810014080B485B000AF03463960FB710023FB7365
:20328000FB79022B02D90123FB731BE0FB79022B12D0022B16DC002B02D0012B06D011E093
:2032A0000B4B1B689AB23B681A800BE0094B1B689AB23B681A8005E0074B1B689AB23B68B8
:2032C0001A8000BFFB7B18461437BD4680BC704708080140080C01400810014080B485B018
:2032E00000AF0346FB710B46BB7113467B710023FB73FB79012B02D90123FB7344E0BB79B2
:203300000F2B02D90223FB733EE07B79012B1BD1FB79022B12D0022B36DC002B02D0012BF0
:2033200006D031E0BB7901229A401A4B1A602BE0BB7901229A40184B1A6025E0BB79012221
:203340009A40164B1A601FE07B79002B1BD1FB79022B12D0022B17DC002B02D0012B06D00C
:2033600012E0BB7901229A400D4B1A600CE0BB7901229A400B4B1A6006E0BB7901229A4054
:20338000094B1A6000E000BFFB7B18461437BD4680BC704710080140100C01401010014094
:2033A00014080140140C01401410014080B485B000AF03460A46FB711346BB800023FB73A8
:2033C000FB79012B02D90123FB7312E0FB79022B0ED0022B0DDC002B02D0012B04D008E074
:2033E000074ABB88136004E0064ABB88136000E000BFFB7B18461437BD4680BC704700BF69
:203400000C0801400C0C014080B483B000AF0346FB71074B1B68FA79012101FA02F2114683
:20342000034A0B43136000BF0C37BD4680BC70470004014080B483B000AF0346FB71084B23
:203440001B68FA79012101FA02F2D2431146044A0B40136000BF0C37BD4680BC704700BF36
:203460000004014080B485B000AF0346FB710B46BB7113467B710023FB737B79012B37D1BF
:20348000BB79022B1CD0022B2FDC002B02D0012B0BD02AE0394B9B68FA79012101FA02F28E
:2034A0001146364A0B43936062E0344BDB68FA79012101FA02F21146304A0B43D36057E0E3
:2034C0002E4B9B68FA79012101FA02F211462B4A0B439360294BDB68FA79012101FA02F2A4
:2034E0001146264A0B43D36042E00123FB733FE07B79002B3BD1BB79022B1ED0022B33DCFB
:20350000002B02D0012B0CD02EE01C4B9B68FA79012101FA02F2D2431146184A0B4093609E
:2035200026E0164BDB68FA79012101FA02F2D2431146124A0B40D3601AE0104B9B68FA794C
:20354000012101FA02F2D24311460C4A0B4093600A4BDB68FA79012101FA02F2D2431146D2
:20356000064A0B40D36003E00123FB7300E000BFFB7B18461437BD4680BC7047000401400F
:2035800080B483B000AF0346FB71074B1B69FA79012101FA02F21146034A0B43136100BFE1
:2035A0000C37BD4680BC70470004014080B483B000AF0346FB71074B5B69FA79012101FA1C
:2035C00002F21146034A0B43536100BF0C37BD4680BC70470004014080B485B000AF786024
:2035E0000123FB737B68002B02D10223FB7304E00023FB73044A7B681360FB7B184614378D
:20360000BD4680BC704700BF1000002080B485B000AF78600123FB737B68002B02D102233D
:20362000FB7304E00023FB73044A7B681360FB7B18461437BD4680BC704700BF14000020FB
:2036400080B485B000AF78600123FB737B68002B02D10223FB7304E00023FB73044A7B68CE
:203660001360FB7B18461437BD4680BC704700BF1800002080B485B000AF78600123FB7349
:203680007B68002B02D10223FB7304E00023FB73044A7B681360FB7B18461437BD4680BC3F
:2036A000704700BF1C00002080B485B000AF78600123FB737B68002B02D10223FB7304E07E
:2036C0000023FB73044A7B681360FB7B18461437BD4680BC704700BF2000002080B500AFBD
:2036E000034B1B6898470020FFF760FF00BF80BD1000002080B500AF034B1B6898470120C4
:20370000FFF754FF00BF80BD1400002080B500AF034B1B6898470220FFF748FF00BF80BD41
:203720001800002080B500AF034B1B6898470320FFF73CFF00BF80BD1C00002080B500AF4D
:20374000034B1B6898470420FFF730FF00BF80BD2000002080B483B000AF03460A46FB7119
:203760001346BB71FB79032B17D83B4B9B68FA7992000F2101FA02F2D2431146364A0B404F
:203780009360354B9B68B979FA79920001FA02F21146314A0B43936058E0FB79072B1AD8AA
:2037A000FB79043BFB712C4BDB68FA7992000F2101FA02F2D2431146274A0B40D360264B40
:2037C000DB68B979FA79920001FA02F21146224A0B43D3603AE0FB790B2B1AD8FB79083BCF
:2037E000FB711D4B1B69FA7992000F2101FA02F2D2431146184A0B401361174B1B69B979A8
:20380000FA79920001FA02F21146134A0B4313611CE0FB790F2B19D8FB790C3BFB710E4B23
:203820005B69FA7992000F2101FA02F2D2431146094A0B405361084B5B69B979FA79920094
:2038400001FA02F21146044A0B43536100BF0C37BD4680BC704700BF0000014080B483B073
:2038600000AF78600B467B800E4B1B680D4A23F0010313600C4A7B8813600C4A7B68136040
:203880000B4B0C4A1A60074B42F292021A60054B1B68044A43F00103136000BF0C37BD469E
:2038A00080BC7047580002405C00024064000240600002400C38004080B400AF224A136847
:2038C0006FF3CB231360204A13686FF38A2313601D4A136843F4007313601B4A136843F4A8
:2038E00080731360184A13686FF3C7131360164A1368022161F3C5031360134A136843F03E
:2039000004031360104A13686FF3410313600E4A136843F0010313600B4A136843F040037C
:2039200013600A4A136843F080031360074A136843F040031360054A136843F002031360F2
:2039400000BFBD4680BC7047003800400438004080B485B000AF03463A60FB710B46BB80CB
:203960000123FB733B68002B02D10223FB7329E00023FB73FB79002B02D0012B11D021E068
:20398000134ABB88136000BF124B1B68C3F3C013DBB2012BF8D00E4B1B689AB23B681A8006
:2039A00010E00D4ABB88136000BF0C4B1B68C3F3C013DBB2012BF8D0074B1B689AB23B68A3
:2039C0001A8000BFFB7B18461437BD4680BC70470C300140083001400C380040083800407F
:2039E00080B483B000AF03463A60FB710B46BB80FB79002B02D0012B07D00DE0094A3B687F
:203A00001360094ABB88136006E0084A3B681360074ABB88136000BF00BF18460C37BD46B3
:203A200080BC7047240000200C300140280000200C38004080B500AF064B1B68002B06D04D
:203A4000044B1B68044A126892B21046984700BF80BD00BF240000200C30014080B500AFF3
:203A6000064B1B68002B06D0044B1B68044A126892B21046984700BF80BD00BF280000205B
:203A80000C38004080B586B000AF03463960FB713B68002B06DA2D21022000F079F93B6817
:203AA0005B423B603B68002B04D13021022000F06FF936E00023FB751DE03A681A4B83FB35
:203AC00002139910D317C91A0B469B000B445B00D11ACAB2FB7D591CF9753032D2B21833D2
:203AE0003B4403F80C2C3B680F4A82FB03129210DB17D31A3B603B68002BDEDCFB7DBB753A
:203B00000CE0BB7D013B18333B4413F80C3C1946022000F03DF9BB7D013BBB75BB7D002B7A
:203B2000EFD11837BD4680BD6766666680B48DB000AF40F2A1737B617B698B4AA2FB0323DF
:203B40005B09FB62FB6A642202FB03F37A69D31A3B613B691B013233834AA2FB03235B0941
:203B6000BB62BB6A0F2B04D9FB6A0133FB620023BB627E4AFB6AC3F30B0399B2136861F3AB
:203B80000F131360794ABB6A03F00F03D9B2136861F303031360764A13686FF30C33136081
:203BA000734A13686FF38A231360714A13686FF3C71313606E4A13686FF3861313606C4A0F
:203BC00013686FF3451313606A4A13686FF3CC231360674A136843F008031360644A136844
:203BE00043F004031360624A136843F400531360F423FB60FB685C4AA2FB03235B097B6275
:203C00007B6A642202FB03F3FA68D31ABB60BB681B013233544AA2FB03235B093B623B6A31
:203C20000F2B04D97B6A01337B6200233B62524A7B6AC3F30B0399B2136861F30F131360C3
:203C40004D4A3B6A03F00F03D9B2136861F3030313604A4A13686FF30C331360474A136821
:203C60006FF38A231360454A13686FF3C7131360424A13686FF386131360404A13686FF32D
:203C8000451313603E4A13686FF3CC2313603B4A136843F008031360384A136843F00403AA
:203CA0001360364A136843F400531360F4237B607B682D4AA2FB03235B09FB61FB696422E0
:203CC00002FB03F37A68D31A3B603B681B013233254AA2FB03235B09BB61BB690F2B04D976
:203CE000FB690133FB610023BB61264AFB69C3F30B0399B2136861F30F131360214ABB69BB
:203D000003F00F03D9B2136861F3030313601E4A13686FF30C3313601B4A13686FF38A23E5
:203D20001360194A13686FF3C7131360164A13686FF386131360154A13686FF3CC2313609C
:203D4000114A136843F0080313600F4A136843F0040313600C4A136843F40053136000BFCE
:203D60003437BD4680BC70471F85EB51083801400C38014010380140084400400C44004057
:203D800010440040084800400C4800401048004080B483B000AF03460A46FB711346BB7133
:203DA000FB79022B2ED0022B40DC002B02D0012B14D03BE000BF204B1B68C3F3C013DBB230
:203DC000012BF8D11D4ABB79136000BF1A4B1B68C3F38013DBB2012BF8D127E000BF184B45
:203DE0001B68C3F3C013DBB2012BF8D1154ABB79136000BF124B1B68C3F38013DBB2012B8E
:203E0000F8D113E000BF104B1B68C3F3C013DBB2012BF8D10D4ABB79136000BF0A4B1B68A9
:203E2000C3F38013DBB2012BF8D100BF00BF0C37BD4680BC704700BF00380140043801404B
:203E40000044004004440040004800400448004080B485B000AF03463960FB710023FB605E
:203E60000023FB723B68002B01D10223FB72FB79002B1BD102E0FB680133FB602D4B1B6826
:203E8000C3F34013DBB2002B03D1FB682A4A9342F1D9FB68294A934202D10323FB7242E0E4
:203EA000274B1B68DAB23B681A703CE0FB79012B1BD102E0FB680133FB60224B1B68C3F332
:203EC0004013DBB2002B03D1FB681B4A9342F1D9FB681A4A934202D10323FB7223E01A4B32
:203EE0001B68DAB23B681A701DE0FB79022B1AD102E0FB680133FB60144B1B68C3F340133E
:203F0000DBB2002B03D1FB680B4A9342F1D9FB680A4A934202D10323FB7204E00C4B1B680E
:203F2000DAB23B681A70FB7A18461437BD4680BC704700BF003801409F860100A08601002F
:203F4000043801400044004004440040004800400448004080B584B000AF03463960FB715E
:203F60000023FB730023BB733B68002B0ED10223FB7311E0BB7B3A6813441A78FB791146A2
:203F80001846FFF705FFBB7B0133BB73BB7B3A6813441B78002BEDD1FB7B18461037BD4668
:203FA00080BD80B584B000AF03463960FB711346BB710023FB731AE007F10E02FB7911467B
:203FC0001846FFF745FFBB7B0A2B02D0BB7B0D2B05D1FB7B3A68134400221A700DE0FB7B4A
:203FE0005A1CFA731A463B681344BA7B1A70FA7BBB79013B9A42DFDB00BF00BF1037BD4682
:2040000080BD80B487B000AFF860B9601346FB710023FB750EE0FB7DFA6813441A78FB7D57
:20402000B9680B441B789A4201D0002307E0FB7D0133FB75FA7DFB799A42ECD301231846A2
:204040001C37BD4680BC704780B500AF024B1B68984700BF80BD00BF2C00002080B500AF99
:20406000024B1B68984700BF80BD00BF3000002080B500AF024B1B68984700BF80BD00BF38
:204080003400002080B582B000AF0523FB7106E0FB79184600F00BF8FB790133FB71FB79EF
:2040A0003F2BF5D900BF00BF0837BD4680BD80B483B000AF0346FB7100BF1E4BDB6803F0A2
:2040C0000103012BF9D01B4B1B69DB0903F00103012B05D1174B184A5A60164B174A5A6026
:2040E000144B1B69134A43F002031361FB799B02104A03F1006353610E4B1B690D4A43F0F7
:204100004003136100BF0B4BDB6803F00103012BF9D0084BDB68074A43F02003D360054BE4
:204120001B69044A23F00203136100BF0C37BD4680BC70470020024023016745AB89EFCD07
:2041400080B487B000AFF860B9601346FB7100BF254BDB6803F00103012BF9D0224B1B69C0
:20416000DB0903F00103012B05D11F4B1F4A5A601D4B1F4A5A600023FB752BE01A4B1B69C3
:20418000194A43F001031361FB7D5B00BA6813441B88BB82FB7D5B00BA681A44FB68128895
:2041A0001A80FB680233FB6000BF0F4BDB6803F00103012BF9D00C4BDB680B4A43F02003E5
:2041C000D360094B1B69084A23F001031361FB7D0133FB75FA7DFB799A42CFD300BF00BFF4
:2041E0001C37BD4680BC70470020024023016745AB89EFCD80B400AF054B1B68044A23F03D
:204200000403136030BF00BFBD4680BC704700BF10ED00E080B400AF0B4B1B680A4A43F0A1
:2042200080531360094B1B68084A43F001031360074B1B68064A43F00403136030BF00BFE5
:20424000BD4680BC704700BF1C1002400070004010ED00E080B400AF0E4B1B680D4A43F065
:20426000805313600C4B1B680B4A43F004031360094B1B68084A43F002031360074B1B6873
:20428000064A43F00403136030BF00BFBD4680BC704700BF1C1002400070004010ED00E0C3
:2042A00080B400AF064B1B6803F00103002B14BF01230023DBB21846BD4680BC704700BF6B
:2042C0000470004080B485B000AFF8607A603B600B46FB72FB7A5A1E13469B0013449B00B4
:2042E0001A46FB68134408331968FB7A5A1E13469B0013449B001A46FB68134408331A4660
:2043000021F001031360FB7A5A1E13469B0013449B001A46FB68134410331A467B6813602F
:20432000FB7A5A1E13469B0013449B001A46FB68134414331A463B681360FB7A5A1E13468D
:204340009B0013449B001A46FB6813440C331A46BB691360FB7A5A1E13469B0013449B00AD
:204360001A46FB68134408331A4642F2C2031360FB7A5A1E13469B0013449B001A46FB6886
:20438000134408331968FB7A5A1E13469B0013449B001A46FB68134408331A4641F001034D
:2043A000136000BF1437BD4680BC7047BEF7FFFFFEFFB8C63195AE84CE84CE84CE84CE841C
:2043C000AE84AE84AE846D7CEB6B0C6C2F740F743074CF6B1074B384369DF8AD559DD48C07
:2043E00018B69AC69AC6BACEBACE9ACEBAC6BBCEBBCE7BC67BC619BE77AD56A5D8B53ABE28
:2044000039BEF8B5D7AD95A5549D139591844F7C2F740E74ED6BED6B2E744E746F7C8F7C92
:20442000B0848F7C4E744E742E744E744E6C4E6C2E6C2E6C2E6C0E6C4E74B084B084D08C13
:20444000F08C3195529D729D519D3095719D519510953095EF8CCF8410951195D08C6F84A3
:20446000D18C549DD6AD38BE59BE7AC6BBBE79BE79BEF6AD339DF29C6F8CED838B73AB7BA7
:20448000E76AA56A688BC99BA9A3A8ABA8B387AB67ABE59AA592C592C5920693079BC58A39
:2044A0004482848A279B47A368A3C9ABF3DD7AFFFEFFFFF7FFFFDEF736BEB08CAE84CE843A
:2044C000CE84AD84CE84CE84AE84AE84AE846D7C0C6C2C6C707C507C9184307492843595D5
:2044E000B7AD5ABE3595D38C18B67AC69AC6BACEBACE9ACEBBCEBBCEDBCE9BCE9BCE5AC684
:20450000B8B597AD19BE7BC69BCE7AC659BE58BE17B6D6AD95A53395D18C6F7CED6BAC63FB
:20452000AC63AC636B5B6B5B8B5B4A53E94AE94AC942E942E942E942C842C842C842A84254
:20454000E94A4B5BAC63CC6B0D746E7CAF8CEF8CEF8CCF8CCF848E7C4D742C740C740C7487
:204560006E7CAF84D08CD18C94A537B679C69AC679C69AC69ABE79BE99BE38BED6B5D5B510
:2045800094B552ADD09C10AD0C94487B688B889B88A3A8AB87AB87AB88AB27A3069BE69A31
:2045A000A58A848A6482447A237AA58A68A368A367A3A8AB688B51BDDDFFBEF7FDF755B64A
:2045C000AE84CF84EF84CE84EE84CD84ED84ED84CD84CD84AD84AD84AE844D7C5074B27CFB
:2045E000D284717C559519AE7ABE7ABE5695F48C39B69AC69AC6BBC6BBCEBBC6BBC6DBCE88
:20460000BBCE9AC69AC69AC65ABE19B67ABE9BC6BBC69BC67ABE79BE99BE9ABE99BE37B62D
:20462000F7ADF6A5949D128D707C0E6C6B536732E5210622E521C519C519C519C519C51924
:20464000C519C519C519C519E621072A4732683A883AA9422A53AC5BCD63CD63AB5BAB5BF2
:20466000AB5B8A5B8B5BED6B6F7CF18C949DD5AD38B679C69AC69BC69BCE9BC6BBC69AC65D
:2046800079BEBACE79C658C679CE58C6D5B516BEB3B54D8C687BA793E7A386A345BB66BB09
:2046A00066BB46BB46BB05B3A5AAC5A28492E279238206A347AB67B366B325B388ABC68A2A
:2046C000EFC4DCFF18CF7195AE7CCE84EE84EE84CD84ED84ED84ED84ED84ED8CCE84CE84CD
:2046E000CE846D7C7074F38CD384B284D8A57ABE9BBE7ABE769DF48C18B6BAC69AC69BC6A7
:20470000BBCEBBC6BBC6BBCEBBC6BBC6BBC6BBCE7AC639BE7AC6BBC6BCC6BBC69ABE9ABECE
:204720009ABE9ABE99BE99BE99BE78BE78B637B6949DD1844B53272AA419C519C519E61986
:20474000E619A511C619C619C619C619C619A619C621E721A619E721072A072A072A2732E8
:20476000A9422B536B53ED6B6F74B084F18C5295949DD5AD37B657BE78BE79C69AC69BCE4C
:20478000BBCEBBCEBBC6BBC69AC6BACE99C679C679C617BE16B637BE36C631ADCA8B878B69
:2047A000C79BA69B66BB66BB66BB46BB66BB26B306B347B3E6A2438AA59247AB67B346B3B4
:2047C00046B325B367AB0693E682B7EE719D8D7CAE7CAE7CCE84EE84CD7CED84ED84ED8485
:2047E000ED84ED8CEE8CEE8CCE8C6D7C707C549DF38CF38C59B6BBC69BC67ABEB7A5F48CB8
:20480000F8AD9AC69AC69AC6BBCEBBCEBBCE9BC69BC6BBCEDBCEDBCE9BC67AC69BC6BBC618
:20482000BCC6BBC69BC69ABE9ABE9ABE9ABE9ABEBAC69ABE79BE17AEF28CAD63CA42E721E6
:204840008511A519C619E721E721A619C719C719E819E821C819A719A719A719A721C821BA
:20486000E829E829A7218619E829AA42CD63128DB59D16AE57B657B678BE78BE99C699C689
:2048800099C69AC69ACEBBCEBBCEBBCEBBC6DBC6BBC69AC69AC699CE79C6B6AD17B658BE07
:2048A00098CE15C6EFACEA93A793C79B86B386B366B366B366B346B346B387B306A32382CC
:2048C000069B47AB87B367B346B326B346ABC59243724DAC8E7C4D74AE7CAE7CAE7CEE846E
:2048E000CD7CED84CC84ED84CC84ED84EE8CEE8CCE8C6D7C507CB5A53495F38C39BE7AC6A0
:204900009AC69AC6F8B51495B7AD7AC69AC69ACEBBCEBBCEBBCE9BC69BC6DBCEFBCEDBCE9D
:20492000BBCE9BC69BC6BBC6BCC6BBC6BBC6DBC6BBBEBABE9ABEBAC6DBC679BE969D5074EE
:204940000B4B082AE729A721A619C721C719C719E821C719C919E921E921E921E921C919BB
:20496000A8198819C921C921C929E929C8218721A8210932106CD7A579BE9ABEBAC679BE2A
:2049800099BE58BE99C699C6BAC6BAC69ACEBBCEBBCEBBCEBBC6DCCEBBCEBAC6BACE9AC6CD
:2049A00038BE96A5F7AD99C698C677CE55CEAEA4477B878BA7ABA7ABA7B387B366AB46AB9D
:2049C00046AB67B3E49A017A26A347AB67B367B346B347BB65B3C392C58AA99B8D7C8D7CD7
:2049E000AE7CAD7CAD7CCD84ED84CC7CEC84EC84CC84ED84CD8CCE8CCE8C6D7C5084D6AD43
:204A000054A5F39418B659BE7AC69AC639BE559D76A539BE7AC69BCEBBCEBBCEBBCE9BCEE9
:204A2000BBCEDBCEDBCEBBCEBBC6BBCE9BC69CC69CC6BCC6DCC6DCC6DBC6BBBE7ABE9BC66A
:204A40009ABE969DD0636A3AC829A7218719A721E821E821C821C819E921E921E919EA21D6
:204A6000EA21EA21EA21C921A921A9218919A921A921A921C929C921882188196F5BB7A54B
:204A80009ABE9ABE7ABE59BE9ABE59BEBAC6BAC69AC69AC69AC69AC6BBCEDBCEDCC6DCCEAA
:204AA000DCCEDBCEBBCE9AC618B6D7A559B6BAC679BE98C6D8D651B5897B487B8793879B95
:204AC00087A3A7A387AB87AB87AB87ABE49A017A46A347AB67B367B346B367BB65B382924B
:204AE00042826CB4AD7CAE7C8D748D74AD7CAD7CED84CC7CED840D85ED84ED8CED8CEE8C92
:204B0000EE8C8D847084D6AD95AD1495F7B539BE7AC67AC65AC6B7AD76A5F8B55AC69BCEB0
:204B20009BCE9BCEBBCEBBCEBBCEDBCEBBCE9ACE9BCEBBCE9BC69BC69CC6BCC6DCC6FCC672
:204B4000DCC6DBBE9BBE39B63695AF634A32A821A821A821A821C921E929C921C921C9219B
:204B6000C921E921EA19EA21EA21EA21EA21CA21A921A9218919C921CA29C921EA29EA2904
:204B8000C921A921AC42D58C3AB67BBE7BBE7ABE9BC69ABEBAC6BBC6DBCEDBCEBBC69AC68B
:204BA000BAC6BBCEDCCEDCCEFCCEDBCEBBCE7ABE18AE18AE9ABE9ABE99BEB9C698CEB4B583
:204BC0008F940C8C898B278326834793679B87A387A386A3E492017A26A366AB67B387BB33
:204BE00047B367BB65B3428A63824CB48D7C8D748C746C748C74AD7CAC7CCC7CCC840D856B
:204C0000ED8C0D8DED8CEE8CEE8CAD844F7C94A5D6AD349D96AD18BE7AC67AC67AC639BEBB
:204C2000B7ADF8B55AC6BBCE9BCE9BCEBBCEBBCEBBCEBBCEBACEBBCEBBCEBBCEBBC69CC6BE
:204C40009CC69CC6BCC6DCC6DCC6BBBE9BBE5695AF634A32C821C929C929A821C921E921F5
:204C6000C921C921C921C921C921CA21E919E919E921E921E921E921C921A921A819E9210C
:204C8000EA29C921C921E921E921E9212B32D163779D5AB69BBE9BC69BC6BBC6BBC6DBCE94
:204CA000DBCEFBCEDBCEBBC6BBC69BC6BBC6BBCEDBCEBBC6BBC67AC639B67AB6DBC6BBBE48
:204CC000BABEBAC698C636BED4B593B58E9C497BA66A077B478B468B46934593C38221720D
:204CE000059366A367AB87BB67BB67BB66B3838AE592EBAB8C744B6C8C746C746C74AC7CA9
:204D00006B74CC7CAC7CEC84ED8C0D8DED8CCD8CCE8C8D840E7C53A5F6B5349D359DD7AD30
:204D20007AC6BBCEBBCEBBCEF8B518B65AC6BCCE9BCE9CCEDBCEDBCEBBCEBACEBACEBBCE2C
:204D4000BBCEBBCEBCC6BCC69CC69CBEBCBEBCC6DBBEBBBEF9AD5274AB42C929A821C92175
:204D6000C921A921A921CA21CA21C921CA21C919A919CA21E91909220922E921E921E92105
:204D8000C921A821A821C921E921C921C921C921C921E921C921ED42947CD9A57BBE9BBEB8
:204DA0009BC6DCCEDCCEDBCEBBCEBBC6BBC6BBC6BBCEBBCEBAC6BBCEDBCEBBC6BBCEBBC63A
:204DC0007ABEBBC6DBC6FCC6BBBE9ABEBAC699C658C6B8CED5BDED7BC76208734883268351
:204DE0000683258BC4824172048B86A367ABA8BB67B367BB46B3E59A437AEBA34B744B6CDF
:204E00004B6C6C746C746C748C74CC7CCC84EC84ED84ED8CCC84AC84AD84AD844F7CD18C3F
:204E2000D5ADD6AD75A5F7B57AC67AC69BC69AC67AC67ABE7AC69BC6BCCE9BCEBBCEBBCE48
:204E4000BACEBACEBACEBACEBBCEBBCE9BC6BCC6BCC69BBE9BBEBCBEBCBEBBBE158DCC42EC
:204E6000E929C921A821E929C921A921C921A921A921CA21CA21EA21CA21C921C819E91990
:204E8000E921E921E921E921C821A821A819C821E921E929E921C821C821E921A8194B324E
:204EA000B05B779D7BBE7BBE9BBE9BC6BBC6BBC6BBCEBBCEBBC6BBC6DCC6BBC6DBCE9AC665
:204EC000DBCEDBCE9AC6BBC6DCCEBBC6BBC6DCC6DBC6DBC6BAC6BAC699C658BED6ADB18CDA
:204EE000EE7B0D84EC8BA983E993099CA793A372258BC7A387AB87B3A7BB87BB87B305A399
:204F0000E68A8A9B2B6C2B6C2B6C4B6C4B6C4B6C6B748C74CC84CC84EC84CC84AC848C8493
:204F20008C848C840D742E741295D5AD17B659BE79BE9AC67ABE9ABE9ABE9AC69BC6BBC660
:204F4000BBC6BBC6DBCEDBCEDBCEDBCEDBCEDBCEDBCEDBCEDCC6BCC69BBE9BBE9BBE9BBE7F
:204F60007BB618A68F5BE929A819A8218821C921A921A921CA21CA21CA21CA21C921C9191D
:204F8000C919C921C819C919E921E921C921A821A821A921A921C921E921E921E921E9214C
:204FA000E921E921E921092ACC42737C19AE9BBEBBC6BBC6BBC69ABE7ABE5ABE5AB67ABE10
:204FC000BCC6DCC6BACE9AC6DBCEDBCEBAC69BC6BBC6BBC6BBC69BBE9BBEBBC6DBC69AC6DB
:204FE00018AE96A55595759D75A553ADB09C2C8C2C944B9C0994C472C47A879BA7ABC8B3EF
:20500000A7BB87BB87BB46AB279BEBAB2A6C2B6C4B6C4C744B6C2B6C4B6C4B74AC7CAC7CA9
:20502000CC84AC848B7C6B7C4B7C4B7C2D74CC6B4E7C539D37B699C679BE99C69AC6BAC620
:20504000BAC69ABE9ABE9ABE7ABE7ABE9AC69AC69AC6BAC6BAC6BAC6BAC6BBC6DCC6BCC693
:205060007BBE9BBE7BBE9BBE5AAE358D4A3287198819A8218819A9218921CA21CA21CA21E6
:20508000A921A921A919C919E9210A2A0A220A220A220A22C9218819881988218821A921A2
:2050A000C921CA21EA210A220A22EA21E921E821092AAF5B979D9ABEBBC69AC6BBC67ABE37
:2050C00039B6F8ADF8AD19B65ABE7BBE9AC6BAC6BACEBBCEBAC6BBC6BBC6BBC6BBC6DBC661
:2050E000DCC6BBC618AE3595927C3074D484F8AD79BE38BED5B532A5CF9C8D9C2B94C56A3E
:20510000846A468BA8A3A8AB87B3A7BB66BB87B3A8AB4CBC4B6C4B6C4B746C746C742B6C5C
:205120002B6C4B6C8C7CAC7CAC7CAB7C6B7C4B7C4B742B742C740C740C748F7C739D36B6EF
:2051400078BED9C6DAC6BAC699BE99BE79BE9ABEBAC6BBC6BAC6BAC6BAC6DACEDACEDBCEA3
:20516000DBCEDBC6BBC6BCC69BBE7BB63AAE7AB618A6316CE921A821C921C921A921A921AA
:20518000A921EA29CA21A921A921A921EA214B2A8B3ACC3ACD3ACD3ACD3AAD3A6C3A0A2AC8
:2051A000A92189218921A921CA21CA21EA21EA21EB21EA21E821092208220D4BF48439AEEF
:2051C0009BBE9ABEBBC69ABE7ABE39B618AEF8AD19AE19AE59BE9AC69AC69AC6BBC6BBC6EC
:2051E000BBC6BBC67ABE9ABE5AB6979D52744D53CC420C4BB47C19AE9BC69AC699C657C6DA
:20520000F5B572ADCF9C6973C66A277BA89BC8AB87ABC8B366BBA7BBC9B36CBC2B6C4B6CD4
:205220006B746C746C744C744B744B748C748C7C8B7C8B7C8B7C6B7C4B7C4B7C2B744C74A0
:205240002C740C6C8F7C5295F5A5B8BED9C6D9C6B9BEB8BEB9BEB9C6DAC6BAC6BAC6BAC6F3
:20526000BAC6BAC6BAC6BAC6BAC6BBC6BBC6BBC65AB6F8A5F8A559AE558DEC42E921C921D6
:20528000C921C921A921A921A921CA21CA21CA21C9212A2A8C3A0E4B6F538F5BB05BB05BFC
:2052A000B05BB05B6F53CD4A4B3A0A32C929CA29CA29CA21EA21EA21EA21EA2109222A2AD0
:2052C00009226A32F063969D9ABEBBC6BBC6BBC6DBC6DBC67ABE59B639B639B6F8AD18B6CC
:2052E000F8ADD7A5F8AD19AEF8AD97A55695F48C31746E5BAB426A32AB3A2E4BD48439AE41
:205300009BBE7ABEBAC6B9CE98C677C6F5BD10A5EB83487B688BCAA3C9AB88ABA6BBC7BBD8
:20532000E9B36CBC2B6C4B746B746C746C746C746C748C746B748B7C8B7C8B7C8B7C8B7CF2
:205340006B7C6B7C2B744B744C740B6C2C746E7CF084D4A576B677BEB8BEB8BED9C6F9C6C8
:20536000DAC6DAC6DAC6DAC6DAC6DAC6DAC6BAC6BAC6BBC69BBE5AB6F8A5979DF8A518AEAF
:205380007274292AE921C921C921C921A921A921A921A921CA21EA294B32CD424F53D05B8D
:2053A000F063F0631164F163F163F16BD16B8F5B0D4BAC42E929C929A921C921E921EA2195
:2053C000EA210A2209222A2A09222A2A2E4BF48C7ABEDBC6BBC6BBC6DCCEFCCEDBC69BBE56
:2053E0009BBE9BBE39B6969D937C116CF163116CF16BB0632D53CC4A6B3A4A324A32AC3AF4
:205400008F5B526C56955AB69BBE7ABE9AC69AC6BAC6BACE78C657C673ADCB83087B899B20
:20542000CAABA9ABC7BBC8B3C9AB6CB42B744B744B746C746C746C748C748C7C6B746B748F
:205440008B7C8B7C8B7C6B7C6B7C6B7C4A742A744B742B740B6C0C6C2C6C8E7C108D5295B3
:20546000B39DF4A516AE57B678BE98BEB9BEB9BEBAC6BAC6BAC6BAC69ABE9ABE39B6D8A5DC
:20548000D8A5F8A57AB6D79D6E530822EA29E921C921CA21A921A921AA218919EB296C3AB6
:2054A000EE4A905BD063F163F063F063F063F063F063D063D063D0638F634E5B6B3AE929B8
:2054C000A821C821E921E921E9210A22E9210A222A2A2A2AAC3A116CF8AD9BBEBBC69BC6AF
:2054E000BBC6BBC6BBC6BBC6BBC6DBC619AE937C2D4B8B3A4A326B326B324A32092A0932D3
:20550000093229324A32AC3A6F531164358D39AE9ABE9ABEDBC6DBC6DBC6DAC699C6B9CE9A
:2055200077CEF1ACAB8B6993899BAAABC7B3A8ABC9A36CAC2B744B744B744B744C6C4C7439
:205540006C746C744B744B746B746B746B744B744B744B744A742A742A740A6C2B744C7464
:20556000EB6BCB63CB5B0C6C4D744E746F74B07CF18C3295959DB59DD6A5D6A5D6A5D6A5C3
:20558000B6A5B6A5B7A5769DF8A57AB6BBBE558D8A32C719EA21C921C921EA21A921AA21A3
:2055A000CA21AA214C32EE4A915BF26BF163F063F0631064F0631064F063CF63CF63F06BEF
:2055C000106CF06B2D536A3AC829E821092AE821E8210922EA210A220A2A0A2AE9212E4B44
:2055E00056955AB6FCCE9BC67ABE9ABE9ABE9ABEBBBEBBBE76958F5B4A2A292A0A2A0A2A2F
:205600002A2A0A2A4A324A322932092A092A2A328B32CD3A106C559518AE7ABEBBC6BBC6C3
:20562000DBC6DBC6FBCEB9C6B9D636CEF0B4CB9B499369A387ABA8A3C99B6DAC4C740B7422
:205640000B6C0B6C4B6C4A6C2A642A6409642A6C2A6C2A6C2A6C2A6C2A6C2A64096C2A6C49
:205660000A6C09642A6C4B6C2A64EA5BA953484B89536953E73AA632E84229438B53CC5B6C
:20568000ED632F6C50740F6C5174349596A5B7A5D7A55AB65AB6126CE929A819EA21EA21B8
:2056A000CA21CA21CA218919A919EA29ED426F5BF163116CF16BF16BF16BF06BF163F063D2
:2056C000F063D063F063F06BF06BCF6BCF634E536B3AE921E921E921E9210A220A22EA21FE
:2056E000EA21E921E929AC423274779D9BC6BCCE9BC639B6F8AD5AB67ABE39B6B3846A3AE9
:20570000E829092AC821E9290A2A0A2A0A2A0A2A4B326B322A2A092A292A092A8C3AD0635A
:2057200036953AB6BBC6BBC6BAC6DBCEDBCE9ACE9ACE79CE17C633AD5094CD83CA83AA8358
:20574000AA836D9C4C7C4C744C742B6C2A6C2A642A640A64E963E96309642A6C2A6C4A6C2D
:205760002A6C0A64E96B096C096C0A642A6C4B6C0A64C95B2743C632C73AE73A652A042261
:20578000252A462A262A8832A93ACA42EB42EB4A8E63D384769DB384F48CB7A5158DED4AA8
:2057A0008819A821CA21EA21CA21CA21CA21A919C9214B32705BB163F16BF16BF16BF16B50
:2057C000F16BD063F163F163F063F063F06BF06BF06BF06B3174AF63EC4A2A32E929E9211B
:2057E000E921EA210A22EA21EA210A22C921E929ED4AF16B159519AE39B63595158D19AE04
:205800007ABEB7A5CF63E829A721C821C9210A2A0A2A0A2A2B320A2A0A2A4A328C3ACC4265
:205820000D4B0D4B0D4B8F5B937CD8A59BC6BBC69AC6DBCEBAC69AC69ACE99CE79CE17C62C
:2058400095BD53B58E9C6E940C8C8EA44C748D7C8D7C4B6C2A642A642A640A64096409647D
:2058600009642A6C2A6C0A64E963C95BA85BA85BC95BC95BC95BE95BC95B484BA532242227
:205880004422862A662A462A66328732472A4732272A0722E82949324D539384B3846E5BFA
:2058A000AF63727C4E53A8216719C921CA21EA21CA21CA21CA21A921EA29CD42B063D1632A
:2058C000F16BF163F16B116C116CF16B116C116C116C116C116C106C106C116C1174F06BA0
:2058E0006E5BAC3A0A2A09220A22EA212B220A222A220A2AE921A821E9294A3A8F5B158D75
:20590000769D1174AF63B3843595727CCC42C8218821C9210A2A4B320B322B2A0B2AEA29D9
:205920000A2AAD42F163D484158D158DD484D484158DD7A57ABEBAC6BAC6DBC6BAC6BAC6AD
:20594000BACE9ACE99CE99D679D658D615C6D4BD53B5B4BD2B6C4C746C746B744B6C4A64A4
:205960002A6409640964E963E963C95B8853474B2643264348534753885BA95B8853A953D1
:20598000884B063B642A232204224522662A8732A832A732A93A6932E721A719A721E92977
:2059A000AC426F5B0D4B4A328B3AAC42A82106098819EA21CA21EA21CA21CA21CA21A921A3
:2059C0002B322E53B163F163F16BF16B116C116C116CF06B116C116C316C316C116C116CC9
:2059E000116C1174F06BD063AF632E4B4A32E921EA210A222B222B2A2B2A0A220A220A2A4C
:205A0000C9216719092A0D4B8F5BCC426A3A0D4B6E53EC4A0A2AA82188198819C921EA296A
:205A2000CA21EA29EA29EA292B2A4F53F68C3AAE7BB67BB67AB67AB659B659B69ABEDBC608
:205A4000DBC6DAC6DBC6DBC6BAC69AC699C699CEB9D699D6B9D678CE17C658CE0A6C0B6C5A
:205A60002B6C4B6C2A642A6409640964E963C95BC95B885306438432642AA532A63AC63A2F
:205A8000274B474B074327432743C5324422442245224522462A88328832672A282AE72184
:205AA000A719A719A821C821C9290A2AE929A821E929A821E6080609A921EA21EA21EA29E8
:205AC000CA21CA21C921C9216C3A905BF163116C116C116C116C116C116CF06B116C116CF4
:205AE000316C316C116C116C116C116C3174F06BF06B8F5B8B3AC819C9190A2A0B222B22FD
:205B00000B22EA21EA212A2AC92147118719C821092A092A092A4A324A32092AC921C9218B
:205B2000892168198919A921AA21EA290B2AEB292B322F53D5841AAE7BB69BBEBAB6DBBE14
:205B4000DABE9ABEBABEFBC6FBC6DAC6DBC6DBC6DBC6BAC69AC6BACEBACE99CEBAC6BACE79
:205B600079C6DACE0A6C0A640A642A642A640964096409640964E963E963A85BE542232A0D
:205B80000322642A452A6532A632C63AA532C632E632A52A6422A62AC732872AA832A8320A
:205BA0008932482AC821A721A819A821A821A921A921A921C921C921C92988192609471168
:205BC000C921EA29EA29EA21CA21CA21C921EA29AC42B05BF16B116C116C116C116C116C11
:205BE000116C106C116C116C316C316C116C116C106C106C3174F06BF063B05BAC42C92150
:205C0000A8190A2A2B222B222B220A22EA21C921A919A819A819A819E9212A2A09220922CE
:205C20000922E921EA210A2ACA218919A921A921AA210B2A0B2A0B2A0B2ACD42126C779D8F
:205C40005AB6DCC6FBBEDABEBABEBABEDABEBABEBABEDBC6BABEDBBEDBC6BBC6BAC6BACEED
:205C6000BACEBACE99BEB9C699BEFACE0A6C2A6C2A6C2A6C09640964E963E963C85BA85B4F
:205C8000A85B885B0643442A2322442A8632A632A632A632C632273B273B273B0733283BB9
:205CA000083BC832A832682A2722E721C821C821C921A921A919A921C921C921EA29E929DF
:205CC000EA29A82147116819CA210B2AEB29CA21CA21EA21C9210A2AEE4AB063F163F16BE1
:205CE000116C116C116C116C116C106C116C116C116C116C116C116C116C106C116CF06BF8
:205D0000D063D0632E4B2A2AC9190A222B222B220B22EA21EA21C919C919C921671188199E
:205D2000E921092AE921E92109222A2ACA21EA29CA21CA21CA2189198919CA21EB29EA297E
:205D40000A2A4B320D4B5274B89D9BBEDABEDABEBABEB9BEBABEBABEBABEDAC6BABEBABEAF
:205D6000BABEBABEBAC6BAC699C699C6D9BED9BE98B6B9BEC9630A6C2A6C2A6C09640964DA
:205D8000E85BA85B675347536853A95B6853C63A8532C63AC73AE73AA632A632073B684379
:205DA00089438943483B493B093BC93289322822E719E821C921C921E921EA29CA21CA2130
:205DC000EA29A921E921C921E929A81927116711EA29EA29EB29A921CA21EA21C9212B322E
:205DE0002E53D063F16B116C116C316C31743174116CF06B116C116C116C116C116C116CEC
:205E0000116C116CF06BF06BF063F1638F5B8C3AE921E921EA190A220A22C919EA212B2ACA
:205E20000A22C919E921A819A819E9210A222A220A22E921EA29EA29CA21EB29EB29891935
:205E40008919A921CA21C921C921C821C821EC4252745595F7A579B6DABEB9BEBABEDAC675
:205E6000DAC6DABEBABEBAB6BAB6BABEB9BE99BE78BE78BE97AE57AED59DD59D4A74096C7F
:205E80000A6C2A6CE963E963E96B875B4753A963C9632B6C8D7C0B640743C63AE83AC83AD9
:205EA000C732C732E732483B8943693B483B0833E932882A0722C719C719C819C921C921BB
:205EC000C921CA21CA21CA21CA21C921EA29E929E9218819260968198919EA21EA21CA211F
:205EE000CA21C921A9216C3A8F5BD063116C116C316C316C3174316C106C106C116C116CD8
:205F0000116C116C106C116C116C116CF06B116C116CF16BB05BAC3AC821E9210B22EA19CF
:205F2000EA19EA19EA21EA21EA21EA21EA21A9198811A819E9210A220A220A220B2A0B2A10
:205F40000B2A0B2AEB29CA216919271148118819881946112509661169322C4B306CF38462
:205F6000959D58B699BEB9BEDAC6BABE99B658AEF69DB69DD69DB59D749D539552858F7428
:205F8000CC5B2D64CC8C8C848B848B846B7C6B7C8B844B7C6B7CAD84EE94509D919D0F8DCE
:205FA0000B64484BE83AC732C732C732E732283B693B6943293BA72A6722071AC619A71190
:205FC000A819A821C921C921C921CA21CA21EA29EA21CA21E921E929E929A82126116819EB
:205FE0008919CA21CA21CA21EA21CA21C921AD42D063116C116C116C316C316C3174116C69
:20600000106C106CF16B116C116C116C116C116C116C116C116C116C316C116CD063ED424B
:20602000E921E9290B220A22EA19EA19EA21EA21EA21EA21EA21A9198811A819C919EA21A5
:206040000A220A220A2A0B2A0B2A0B2A0A2AEA21A919481126096719A82187192509040968
:206060006511C6218932EB424C530F6CB2845495D6A537AE17AEB59DF2842F6CCD5B8B5314
:206080004A532A4B4A43E83A6732094B8FAD8FAD6FA56FA54E9D6FA56FA56FA56FA590AD3A
:2060A000D1ADF2B5F2ADB2A5CE84A95BC83AA732A632A732C72AE732293B693B093347222C
:2060C000C611A6118611A719A819A921C921C921C921CA21CA21EA21CA21E921E921092A7F
:2060E000092AA82126118819A919CA21AA21CA21EA21A921EA29ED4AF163116C116C116C7F
:20610000316C316C116C116CF06BF06BF16B116C316C116C116C116C316C116C316C316C54
:206120003174316CF1630D4B0A2AE9210A220A22EA19EA210A22EA21EA21EA21EA21C91993
:20614000A91988118819C919E9210A22EA21EA290A2A0B2A0B2AEA29C921A8196711871999
:20616000C721E821C6196411430943098519E621C621272AC9422B53CD637074F2841285BB
:206180009074ED5B4B4BC83A6632052A462A462A052AC842D0B5D1BDD0B5B0B5B0B5B0B574
:2061A000B0B5B0B5D1B5D1B5D2B5F2B5F2B5B1A5AD7C8953E73AC732A632862AA62AC72A76
:2061C00008330933A82A06128509A611C819C821C921A921C921C921C921CA21CA21CA211C
:2061E000C921C921E9210A2AE921881927118919A921AA21AA21CA21CA21A9190A2A2E4B63
:20620000F16BF063116C116C316C316C116C116CF16BF06BF16B116C116C116C116C116C1D
:20622000116C116C3174316C5274316CF1634E532A2AC8210A22EA21EA210A220A22EA21E8
:20624000EA21EA21EA21EA21C91988116811A919C921E921CA21EA21EA290B2A0B2A0A2AC1
:20626000EA21E921A819661186190722072AC5196411841106228832272A062A262A262AED
:206280006732E9424B4BCD5B0E64CD5B6B4B0943A732462A67324632E529C94AB0BDB0BD8B
:2062A00090B58FB58FB590B590B590B5B0B5D1BDD1BDF2BD33BE91A54C74074BE73AC732BF
:2062C000A632662A8622C72AE832A82A461AC5118609C719E821C921C921A921A921C921D1
:2062E000C921CA21CA21CA21CA21CA21EA21E921A819471106098919A921AA21AA21CA21F3
:20630000A921A9194B326F5B116CF063116C116C316C316C116C116CF16BF16BF16B116C1B
:20632000116C116C116C116C116C116C316C316C3174116CF1636F536B32C8210A22EA2140
:20634000EA210A220A22EA21EA21EA21EA21EA21CA21A9198819A921CA21EA21EA21EA217F
:206360000A2A0B2A0B2A0A2A0A2A0A2AC821661186110722272AC519C519262A09438B533C
:206380000943A83AA83A873A67326732672AE93A0A43C932A832A832A732A732A842463A2E
:2063A000C529C94AD1C5B0C590BD6FB56FB58FBDB0BDD1C5B0BDD1C5D1BDD2BD13BE91A5C6
:2063C0002C740753E73AE73AC632852A862AC72AC82A6722E611A611A611C819C921C9299C
:2063E000CA29CA29A921C921CA21EA29EA21EA290A220A2AEA21C9216819E608C6008919BB
:20640000AA218A198919A9198919C921AC3AB05B116CF16B116C116C116C316C116C116C46
:20642000116CF16BF16B116C116C116C116C116C116C116C116C116C116C116C116CB05B40
:20644000AC42C9210A22EA210A220A220A22EA21EA21EA21EA21EA21EA21CA21CA21EA2186
:20646000EA290A2A0B2AEA210B2A0B2A0B2A0A2A0A2A0A2AE921A719A619E721E621E621BB
:2064800088326B530C642D646A4BE83AE83AA73A66322522462AC832C932872A672A872A72
:2064A000A732C83A873A0532C429295BB0C590BD90BD6FBD0EAD2EB5B0C5B1C5B1C5B1BDF0
:2064C000B1BDB1B5D2B5B1ADAD84485BC632C632C732C632A72AC72AA82A461AE611C6118C
:2064E000E719E921C921CA29CA29AA29C921CA21EA29EA29EA29EA290B2A0B2AEA21C9216F
:206500006811C600A5008919AA21AA218919A919A9210B2AEE4AB163F16BF16B116C116CFE
:20652000116C116C116C116C116CF16B116C116C116C116C116C316C316C116C116C116C6C
:20654000116C116C116CF163ED4A092A0A220A220A220A220A22EA21EA21EA21EA21EA21F3
:20656000EA21EA29EA29EA29EA290A2A0B2A0B2A0B2A0B2A0B2A0A2AEA29E929E921A71964
:206580008619A619C62167324B4B2E6C6D6C0C5C2843A6328632452A2522051A662AC83252
:2065A000C932A82A882A872A872AA732E429621982218A6370C570BD90C56FBDEDAC0EADD2
:2065C00070BD90C590C590BDB1BDB2BDB1B5F2B52F9D8963C632C632E732E732C732C72AE9
:2065E0008722271AC611C711E821E921C921C921AA298921C921CA21EA29EA29EA29EA2185
:20660000EA210A22EA21EA216819C600A5008A19CB21AB21A921CA21EA216C3A4F53D163AA
:20662000F16B116C116C116C116C116C116C116C116C116C116C31743274116C116C316C3A
:20664000316C116C116C116C116C116C116C116C2D4B092A0A220A220A220A220A22EA21A0
:20666000EA21EA210B2AEA21CA21EA29EA29EA29EA29EA292B2A0B2A0B2A0B2A0B2A0A2225
:20668000EA21E921092AE821C719A619272AE942AC5B0E6CEB5B894BC632652A44220422E0
:2066A000452A662A8732C832A82A67224622462246226722C2294119A2290C7C8FBD6EBDFD
:2066C0008FBD6FBD0DAD4EB5B0C5B0C5AFBDAFBDD0BDB0B5D1B5F1B570A5EA6BA632852AB4
:2066E000A632C732C83AC83A2722A511A619C821E921C921A921A921A921A921C921CA212D
:20670000EA29EA29EA21CA21EA21EA29EA29C921A8190609E6008919CA21CA21A921A92180
:20672000EA29AD42905BD063F06B116C116C116C116C116C1174116C127432741174116C3D
:20674000116C116C116C116C116CF16BF16B116C116C116C316C116C2E53292A2A220A2233
:206760000A22EA21EA21EA29EA29CA21EA21EA21EA21EA21EA210A220A220A2A0A2A0A2A9B
:206780000A2A0A2A0A220A22EA21EA21C921E929E821C721E621C83ACC5BEB5B284BC63255
:2067A000852A441A2412A62A083B083BC83A872A662287226622251A051A25228431222137
:2067C000264A0D8CB0C56FBD8FBD6FBD2EB54FBDB0C5B0C5B0BDB0BDD0BDB0B5D1B5F2B5C5
:2067E000D1ADAD842843C632C632C732C73AA83206226409A719C821C821A921A921A92136
:20680000A921A921CA21EA21EA21EA21EA21EA21EA290B2AEA21E921C92147112711CA2100
:20682000CA21CA21A921A921EA29CD4AB063F16BD063F06B116C106C116C116C1174116CD2
:20684000127412741174116C116C117411741174116C116C116C116C116C116C3274116C0D
:206860002E53292A0A1A0A22EA21EA21EA21EA29EA29EA29EA29EA29EA21EA21EA21EA2148
:20688000EA21EA210A2AEA290A2A0A2A0A220A22EA21EA21EA21092AE829C721E621A832AD
:2068A0006A4B8A4BE73AA6326522241A441AC62A283BE83A672A4622462287228722662282
:2068C000462A662AA5398331875A6E9CB0C56FBD6FBD6FBD2EB54FB58FBD8FBDAFBDB0BDEA
:2068E000D0BDB0B5D0B5D1ADF2B52F9D4C648A532843E73AE83AC83A26228511C719C8214C
:20690000A819A921C921C921A921A921C921C921CA21CA21CA21EA21EA29EA29CA21EA21C8
:20692000E92168196819EA21CA21AA21AA21A921EA29ED42D063F16BF06BF06B116C116C74
:20694000116C317411741174116C12741174116C116C11741174317431743174116C116C96
:20696000116C116C326C116C2E53092A2A220A220A22EA21EA29EA29CA29CA21EA29EA2975
:20698000EA21EA21EA21EA21EA21EA21EA29EA29EA290B2A0B2A0A22EA21EA21EA290A2A89
:2069A000E929E721E621672A29432943083BE73AA62A6522A5220733083BC83A662A662234
:2069C0006622662266226622662A462AA439E441096B8FA490BD70BD70BD50BD2FB54FB552
:2069E0006FBD8FBDD0BDD0BDD0BDD0B5F1B5D1ADF2AD709D30852C6C8A53494B494309438D
:206A0000672AC619E721C819A819A921CA21C921A921A921C921C921CA21CA21CA21CA21A9
:206A2000CA21CA21CA21EA29C92168116819EA21CB21AA21CA21CA210A2AED42D063F16B14
:206A4000F06BF16B116C116C116C317431741174117412741174116C116C116C116C317410
:206A60003174116C31743174116C116C116CF1632E4B292A2A220A220A22EA21EA29EA293E
:206A8000CA29CA21CA21CA21CA21EA21EA210A2AEA29EA29EA29EA29EA290B2A0B2A0A2218
:206AA000EA21EA21EA21EA29E929E821E621472A29434943494349430733C62A0733493B17
:206AC000283BC732A732A7328722661A451A4522452A252A623125526A7B8EA491BD70BD5F
:206AE00071BD70BD4FBD4FB58FBDB0C5AFBDAFBDCFB5D0B511B6D1ADD1AD509D10854D6C8B
:206B0000CB5BAA53AB536A4B672AA511C719C719A819A921C921C921A921C921EA21EA216F
:206B2000CA21CA21CA21CA21CA21A921C921E921A92127116819CA21CA21CA21CA21CA21E6
:206B40000B2AED4AD063F16BF16B116C317431743174116C116C3174327432743174116C65
:206B6000116C116C116C116C116C116C116C31743174116CF16BD0632E534A320922E9192A
:206B8000E921EA21EA29CA21CA21CA21AA21CA21CA21EA21EA29EA29EA29CA21EA29EA211E
:206BA000EA290B2A0B22EA21EA21CA21CA21EA29E929082AE621472A29436A4B294349438C
:206BC000483B28336943AA4B4943E83AC832E832C72A862245224522452A252A4139A662CD
:206BE000CB8B6DA471BD71BD71BD70BD70BD4FBD8FBDD0C5AFBDAFB5AFB5B0ADD1B591A510
:206C000091A5309DCF7C2D6CEB5BCB5BCB5B8B538832A519A619C819C821C921C921CA215D
:206C2000A921CA21EA29EA29CA21CA21A921A921A921C921A921C921881906094811CA21B3
:206C4000CA21CA21A921A9210A2AEE4AD163116CF16B116C116C116C116C116C116C3274BD
:206C60003274327431743174116C116C116C116C116C116C116C3174326C116CF16BF063A4
:206C80004E538B3A2A220922E921E921CA21A92189196819A921CA21EA21EA29EA29EA2932
:206CA000CA21CA29EA29EA21EB210B2A0B22EA21EA21EA21EA21EA29092A082AE721272A6D
:206CC00009434A4B29432943493B693BAA43AB4B6A43083BC832C832C72A86226522452A7D
:206CE000242AE329A241287B0B946DA470BD70BD70BD70BD70BD6FBD8FBDD0C5CFBDD0BDFD
:206D00008FAD2E9D4F9D0F953095F094AF7C2D6CEC63CB5BCC5B8B5388328519A619E82135
:206D2000E921C921C921CA21CA21C921CA21EA21CA21A921A921A921A921CA21A921C9210D
:206D40004711C5002709A921AA21AA21A921A919EA29ED4AD163116CF16B116C116C116C2C
:206D6000116C116C116C3274327432743174116C116C116C116C3174116C116C116C116C78
:206D8000326C116CF16BF1634E538B3A2A220922E921EA21C9218819471127118919A921AF
